:0300000002001EDD
:0C001E00787FE4F6D8FD758117020065BC
:0D030F0008080A0A0A0A0A0A0A0A0114006C
:1001B100E51570397515011202B18F13E51265133A
:1001C100FF5513F510E513F45FF517851312E510CC
:1001D100B4040B0514E514B4641375146322E5101B
:0E01E100B4050A1514E514B4FF03E4F5142266
:10017200E511703A751101E514600C75F00684E51D
:10018200F070047F9980027F331202DDE514C3947C
:100192000A400EE51475F00A8475F00A84AFF08007
:0F01A200027F0A8F0EE51475F00A8485F00F2294
:1002C800538EBF53890F758B18758DFCC28FD28ED4
:0502D800D2ABD2AF2201
:03001B000200AA36
:1000AA00C0E0C0F0C083C082C0D075D000C000C01C
:1000BA0001C002C003C004C005C006C0070515E59B
:1000CA0015B414037515000511E511B4640375110F
:1000DA00000516E516B4080375160074082516F807
:1000EA00E6FFD39414400EEF24D4FDE434FFFC7BE6
:1000FA00017A00800C74082516F8E6FD7C00E4FB02
:10010A00FAAF1612012BD007D006D005D004D003BF
:10011A00D002D001D000D0D0D082D083D0F0D0E0AD
:01012A0032A2
:0E03010012027A1202C81201B112017280F8C3
:04029700D2A07F0A68
:10029B00000000000000000000000000000000AEA5
:0602AB00071FEE70EB22BC
:0F02F200D2A1120297C2A17F0A12029BC2A022C0
:0C031D00C2A1120297D2A17F0A02029B2B
:0201EF00AD075A
:1001F100E4FCC2A07F0A12029BED30E704D2A18089
:1002010002C2A17F0A12029BD2A0ED25E0FD7F0A66
:0902110012029B0CBC08DBC2A028
:01021A0022C1
:10024000E4FC120297ED25E0FD30A103430501C255
:0C025000A07F0A12029B0CBC08E8AF055E
:01025C00227F
:0B025D001201EF120268AF031201EF64
:10026800120297A2A1E433FDC2A07F0A12029BAF3B
:010278000580
:010279002262
:10000300C2A0EF24FF92A17F0A12029B120297C2A1
:08001300A0D2A17F0A02029BAA
:02021B00AB072F
:10021D001202F27F9012025D1202F27F911201EF33
:10022D00120268120240AD077F0112000312031D76
:02023D00AF050B
:01023F00229C
:1002DD00AB071202F27F901201EF1202687F4112FA
:0502ED00025D02031D8B
:10027A007580FFE5A0541F4480F5A053A01FE4F544
:0D028A0080E5A0541F44A0F5A053A01F2242
:1002B100E4FF20B3027F0420B2027F0520B1027F58
:0602C1000620B0027F07D9
:0102C7002214
:0B032900C0F9A4B0999282F88090FF08
:10012B007580FFE5A0541F44E0F5A053A01F740198
:10013B00A807088002C333D8FCF580E5A0541F4400
:10014B00C0F5A053A01F74292DF58274033CF583D1
:10015B00E493F580EB4A600353807FE5A0541F4482
:07016B00E0F5A053A01F22E4
:10002A00020301E493A3F8E493A34003F68001F2E8
:10003A0008DFF48029E493A3F85407240CC8C333D7
:10004A00C4540F4420C8834004F456800146F6DFA6
:10005A00E4800B010204081020408090030FE47E24
:10006A00019360BCA3FF543F30E509541FFEE4939B
:10007A00A360010ECF54C025E060A840B8E493A362
:10008A00FAE493A3F8E493A3C8C582C8CAC583CA8D
:10009A00F0A3C8C582C8CAC583CADFE9DEE780BE45
:01031C0000E0
:00000001FF
