:030000000221E2F8
:0C21E200787FE4F6D8FD7581CD0222293B
:10254C002825752C257529256E00476F7420697414
:10255C000042757379003F0049646C6500576169EE
:10256C00740023002825752C257529004572726F7F
:02257C007200EB
:1020A7008A1400000000000000000000085E0A0A11
:1020B7000A0A0A0A0A0A880C000000000000000049
:1020C70001C20001CD0184233F800000811E0084EE
:1020D700023F800000810100840600000000841F89
:1020E70000000000204D68FF247C00000001000074
:1020F7000000FF0E69000000C800000000FF18A0E4
:102107000000000A00000000FF1E050000000A0092
:10211700000000FF2513000000A000000000FF26BC
:10212700750000006400000000FF158600000064D1
:0421370000000000A4
:102675001224D27852A60778CDE6700C7852E6D3AC
:09268500941E500478CD76022267
:102513007F011225FCAC07E4120347E4FBFA794C74
:102523007842120227784E1207887F9A7E997D9906
:102533007C3F784E12076B1202C4600640047F0191
:0925430080027F00785DA60722EA
:1015860078CDE6600302189F781FE2FE08E2FF7836
:1015960006E2FC08E2C39FFDEC9EFC120342122702
:1015A6005D78531207887821E2FE08E2FF7808E2A8
:1015B600FC08E2C39FFDEC9EFC12034212275D78F5
:1015C60057120788E4F529F528F527752640785738
:1015D60012074F121CEEC004C005C006C007E4F592
:1015E60029F528F527752640785312074F121CEE69
:1015F600D003D002D001D00012002D122001120318
:101606007B78B5EEF608EFF6FDAC06EC120342C0A9
:1016160004C005C006C007785312074FD003D00296
:10162600D001D00012022778B712076B12011E787C
:10163600BC12078878B5E6FC08E6FDEC120342C04A
:1016460004C005C006C007785712074FD003D00262
:10165600D001D00012022778B712076B12011E784C
:10166600C3120788200D0302189F7806E2FE08E2DF
:10167600FFD37820E29F18E29E4033E4FBFA7920FC
:101686007841C00078BC12074FD000120227C00470
:10169600C005C006C0077806E2FC08E2FDE41203B6
:1016A60042D003D002D001D00012002D8048780627
:1016B600E2FE08E2FFC37820E29F18E29E5041C393
:1016C600EE9400403BE4FBFA79207841C00078BCF8
:1016D60012074FD000120227C004C005C006C0077B
:1016E6007806E2FC08E2FDE4120342D003D002D001
:1016F60001D00012002912037B7806EEF208EFF201
:10170600785312074FC004C005C006C007E4FBFAB1
:1017160079207841C00078BC12074FD0001202270A
:10172600A804A905AA06AB07D007D006D005D004A1
:1017360012002978531207887808E2FE08E2FFD3E0
:101746007822E29F18E29E4033E4FBFA7920784142
:10175600C00078C312074FD000120227C004C0058C
:10176600C006C0077808E2FC08E2FDE4120342D096
:1017760003D002D001D00012002D80487808E2FE86
:1017860008E2FFC37822E29F18E29E5041C3EE941E
:1017960000403BE4FBFA79207841C00078C3120789
:1017A6004FD000120227C004C005C006C007780843
:1017B600E2FC08E2FDE4120342D003D002D001D0DD
:1017C6000012002912037B7808EEF208EFF2785730
:1017D60012074FC004C005C006C007E4FBFA792013
:1017E6007841C00078C312074FD000120227A80420
:1017F600A905AA06AB07D007D006D005D00412006B
:10180600297857120788E4FBFA79207841C00078D6
:10181600BC12074FD000120227785312076B120230
:10182600C460025074E4FBFA79207841C00078C3A2
:1018360012074FD000120227785712076B1202C404
:101846006002505578CD7601E478B5F608F67857FB
:101856001207A00000000078531207A00000000045
:1018660078C31207A00000000078BC1207A0000091
:10187600000078B71207A000000000C20DD20E7853
:101886001FE2FF08E27806CFF208EFF27821E2FFC6
:0A18960008E27808CFF208EFF22212
:1018A0001223CB78CBA607E6FF78BB66FE5FFF78F6
:1018B00066F678CBE6FDF45E784CF678BBA605BFFD
:1018C0000611781FE4F2087464F208E4F208746404
:1018D000F2D20D7866E624FB604A24FD6063147042
:1018E0000302198924FD7003021999147003021967
:1018F000FA24096003021A5678CDE6602224FE60BD
:101900000E046003021A56200D03021A56800B784B
:1019100052E6D3941E5003021A56E478CDF622788C
:10192000CD76022278CDE664016003021A5678066D
:10193000F208F208F208F2781FF208F208F208F250
:101940002278C206E675F00384A6F0E6FBB4021A1C
:10195000C20B7823E2FC08E2FD08E2FE08E2FF7811
:1019600002120794781EE27801F2EB6003021A5625
:101970007802E2FC08E2FD08E2FE08E2FF782312AA
:1019800007947801E2781EF22278C2E664026003CE
:10199000021A56A20BB3920B2278C2E664026003CD
:1019A000021A56200B427802E2FC08E2FD08E2FE31
:1019B00008E2FF7BCD7ACC79CC783D12002D7802FD
:1019C000120794E4FFFEFD7C407802E2FB08E2F996
:1019D00008E2FA08E2CBF81202C4607A4078780292
:1019E0001207B940000000227801E22405F2E2D398
:1019F000648094DA4060745AF22278C2E66402701D
:101A000055200B417802E2FC08E2FD08E2FE08E204
:101A1000FF7BCD7ACC79CC783D1200297802120771
:101A200094E4FFFE7D807C3F7802E2FB08E2F90847
:101A3000E2FA08E2CBF81202C4501B78021207B98E
:101A40003F800000227801E224FBF2E2C36480942C
:071A500026500374A6F222E8
:100E690078C2E6147003020FE01470030211102413
:100E7900026003021236785E760C78CDE66007646C
:100E8900026003020F0C781FE2FA08E2FB7C007D86
:100E990064FFAE021206A27C007D0A1206A2785FE8
:100EA900A6057C007D0AAF03AE021206A27C007D76
:100EB9000A1206A27860A605781FE2FE08E2FF7C06
:100EC900007D0A1206A27861A60508760B7821E250
:100ED900FA08E2FB7C007D64FFAE021206A27C00E8
:100EE9007D0A1206A27863A6057C007D0AAF03AECF
:100EF900021206A27C007D0A1206A27864A6057871
:100F090021807B7806E2FA08E2FB7C007D64FFAE73
:100F1900021206A27C007D0A1206A2785FA6057C51
:100F2900007D0AAF03AE021206A27C007D0A1206FA
:100F3900A27860A6057806E2FE08E2FF7C007D0A39
:100F49001206A27861A60508760B7808E2FA08E28B
:100F5900FB7C007D64FFAE021206A27C007D0A12B2
:100F690006A27863A6057C007D0AAF03AE021206CD
:100F7900A27C007D0A1206A27864A6057808E2FE22
:100F890008E2FF7C007D0A1206A27865A605752293
:100F990001745E2522F8E67012745D2522F8E6C315
:100FA900940A4007745E2522F8760A0522E522B4E0
:100FB90003DF752205745E2522F8E67012745D253B
:100FC90022F8E6C3940A4007745E2522F8760A05DA
:100FD90022E522B407DF22785E760D78CDE6FF049C
:100FE900785FF608760AEF600302107778B7120780
:100FF9004F12037BAB07AA067C037DE81206A27C8D
:10100900007D0A1206A27861A6057C007D64AF0303
:10101900AE021206A27C007D0A1206A27862A6051B
:1010290078B712074F12037BAB07AA067C007D0A2B
:101039001206A27C007D0A1206A27863A6057C002E
:101049007D0AAF03AE021206A2ED242C7864F6E401
:10105900FFFE7D207C4178B712076B12011E120337
:101069007B7C007D0A1206A27865A605807478CD7E
:10107900E6FFB401127865760B18760B18760B1813
:10108900760B18760B805BEF640270567852E6FB9C
:101099007C277D10FF7E001206A27C007D0A1206C5
:1010A900A27861A6057C037DE8AF037E001206A243
:1010B9007C007D0A1206A27862A6057852E6FF75C1
:1010C900F0648475F00A847863A6F0EF75F00A84F9
:1010D90075F00A8408A6F07852E675F00A847865F6
:1010E900A6F0752203745E2522F8E67012745D2558
:1010F90022F8E6C3940A4007745E2522F8760A05A9
:1011090022E522B407DF22785E760E08760A780295
:10111900E2FC08E2FD08E2FE08E2FF12037BEF753C
:10112900F00A84E5F0242C7860F6E4FFFE7D207C4B
:10113900417802E2FB08E2F908E2FA08E2CBF81288
:10114900011E12037BEF75F00A847861A6F0087618
:101159000A7801E2FFC3648094E4403EEF3395E0EE
:10116900FED3EF94E7EE64809483502EE2FF75F08E
:1011790064120616FE75F00A120616AEF07863A61A
:1011890006EF75F00A120616FF75F00A120616AF79
:10119900F07864A6077801E280557801E2FFC3641C
:1011A90080948A4011D3EF648094E3500978637680
:1011B9000A7801E280567801E2FFC3648094804096
:1011C90011D3EF6480948950097863760A08760A06
:1011D900804E7801E2FFC3648094774015D3EF64B1
:1011E90080947F500D7863760A08760BEFF404FF3C
:1011F900802F7801E2FFC36480941D4030D3EF64EF
:1012090080947650287863760BEFF404FF75F00A22
:10121900120616FE75F00A120616AEF07864A606D6
:0D122900EF75F00A120616AFF07865A60703
:011236002295
:10247C0078CDE6FFB40103E48011EF7006780C040C
:10248C00F2800BEFB40207A20CE433780CF278CD97
:10249C00E67011785DE670047F0180027F00780D94
:1024AC00EFF28004E4780DF2A20EE433780EF27BA6
:1024BC00FE7A00790C12226E78CDE67003D380017F
:0624CC00C392000225AAE4
:101E0500784AE67003021F16784DE6C3940A50031C
:031E1500021F1693
:101E1800752DFF752E25752F4C75300075310075A1
:101E280032227533007534007535247536007537E0
:101E3800007538267BFE7A0079141212B58E288F29
:101E480029E47800F2784DF6E52964024528703CCB
:101E58007BFE7A0079141226E4EF65277003EE659D
:101E680026702978CDE6B4011BD20D781FE522F241
:101E780008E523F208E524F208E525F27BFF7A2538
:101E8800795680727BFF7A25795D806A78147C00A8
:101E98007DFE7BFF7A2579621209A5EF702978CD3E
:101EA800E6B401087BFF7A257964804A78CDE6B4E8
:101EB80002087BFF7A257969803C78CDE6703A7B09
:101EC800FF7A25795D802F78147C007DFE7BFF7A70
:101ED80025796E1209A5EF7BFF70177A257970783E
:101EE80006E2F52D08E2F52E08E2F52F08E2F530B6
:101EF80080047A257978120A5C784AE6FF7E007DAC
:0E1F0800007BFE7A0079141209C2E4784AF6D2
:011F160022A8
:1026F900538E7F5389F0438905E4F58AF58CC28DA1
:03270900D28C224D
:1026A500538EBF53890F758B18758DFCC28FD28ED3
:0526B500D2ABD2AF2200
:03001B00021A576F
:101A5700C0E0C0F0C083C082C0D075D000C000C055
:101A670001C002C003C004C005C006C00778C71282
:101A7700074FEF2401FFE43EFEE43DFDE43CFC7824
:101A8700C712078878C00806E6187001068606643C
:101A9700644E6003021B2878C0F608F6AF8CEFADE2
:101AA7008A785BF6ED08F618E6FE08E6FF7C007D0F
:101AB7000A120690785BA60608A6077FC37EF57D07
:101AC700487C407823E2FB08E2F908E2FA08E2CB17
:101AD700F812011EC004C005C006C007785BE6FC0B
:101AE70008E6FDE4120342D003D002D001D0001271
:101AF700011EE4FBFA79C87842120227C004C00528
:101B0700C006C007781EE2FC120347D003D002D0FC
:101B170001D00012002D78B7120788758A00758CDE
:101B2700007800E26003784D0678CC06E65407F6A5
:101B3700E6FF245EF8E6FED39414400EEE24D4FDAF
:101B4700E434FFFC7B017A00800E78CCE6FF245E4C
:101B5700F8E6FD7C00E4FBFA12242578CDE6B40212
:101B670010784B06E6B4640F7600A20CB3920C8093
:101B770006C20C784B7600300E1D780A08E2240165
:101B8700FFF218E23400FEF2C3EF94B8EE940B4074
:101B970006C20EE4F208F2D007D006D005D004D072
:101BA70003D002D001D000D0D0D082D083D0F0D0E3
:021BB700E0321A
:0300230002236253
:10236200C0E0C0F0C083C082C0D075D000C000C041
:1023720001C002C003C004C005C006C00730982EC9
:10238200784D760078007401F2784AE6062414F853
:10239200E599F2C298784AE6D3940A401176007E13
:1023A200007F0A7D007BFE7A0079141209C2D007F1
:1023B200D006D005D004D003D002D001D000D0D0B6
:0923C200D082D083D0F0D0E032CB
:05001E0078677607225F
:0B22ED00E4F522E522C37867965069F3
:1022F80078C712074F8F268E258D248C23E52275EB
:10230800F00BA4246FF812074FE52275F00BA424F4
:102318006BF812076BEB2FFFEA3EFEE93DFDE83C48
:10232800FCAB26AA25A924A823C31207244026AF5C
:1023380026AE25AD24AC23E52275F00BA4246FF856
:10234800120788E52275F00BA42468F808E6FA0855
:05235800E6F912082166
:04235D000522808F46
:012361002259
:0F2730001225D512001E1226F912268E0226A59A
:082780001227301222ED80FB4C
:0C213B00010C00010BFF010A000109FF6C
:10226E00E4780CF690000112065125E0FF120638B4
:10227E004FFF90000212065125E025E04FFF90001F
:10228E000312065133333354F84FFF9000041206F5
:10229E0051C454F04FFF900005120651C43354E060
:1022AE004FFF900006120651C4333354C04FFF90B7
:1022BE000007120651C433333354804FFF780CF6A7
:1022CE0018E66F601908E6FFF4F580E5A0541FFECE
:0E22DE004306808EA0E5A0541FF5A018A607A9
:0122EC0022CF
:1025AA00780AE63000054410F6800354EFF6780AFC
:1025BA00E6FF186660148F80E5A0541FFE4306A04C
:0A25CA008EA0E5A0541FF5A0A6079F
:0125D40022E4
:1025D5007580FFE5A0541FFF4307808FA0E5A05439
:1025E5001FF5A0E4F580E5A0541FFF4307A08FA0C9
:0625F500E5A0541FF5A053
:0125FB0022BD
:0F273F00C0F9A4B0999282F88090FFBFC7868C32
:102425007580FFE5A0541FFE4306E08EA0E5A0548D
:102435001FFEF5A07401A807088002C333D8FCF578
:1024450080E5A0541FFE4306C08EA0E5A0541FF5ED
:10245500A0743F2DF58274273CF583E493F580EB5A
:102465004A600353807FE5A0541FFE4306E08EA01B
:06247500E5A0541FF5A0D4
:01247B00223E
:10268E00759850438E01538EFB75D7E675D6FF4372
:07269E008E10D2ACD2AF2276
:082788008F993099FDC29922DE
:0627900000007F26DFFEC1
:012796002220
:1026BA00C2AFE4FED290122790C2901227900EBEAB
:0426CA0008F2D2AF91
:0126CE0022E9
:1024D200E4F5F9F5E9F5D91226BAD2DE20DF0320B8
:1024E20091FAC2DE20DF25AFF9EFFEADE9EDFFACD8
:1024F20006E41203427B967A43798B783C12011EE2
:10250200E4FBFAF9784012002D02037BC2DF7F0060
:0125120022A6
:1023CB00E4FF538EEFC2C4D2C2D2B520B3027F0456
:1023DB0020B2027F0520B1027F0620B0027F07D218
:1023EB00C4C2C2D2B520B3027F0820B2027F09203B
:1023FB00B1027F0A20B0027F0BD2C4D2C2C2B52079
:10240B00B3027F0C20B2027F0D20B1027F0E20B0F1
:09241B00027F0F75B0FF438E1023
:012424002295
:04265B00D2A07F0A80
:10265F00000000000000000000000000000000AEBD
:06266F00071FEE70EB22D4
:0F274E00D2A112265BC2A17F0A12265FC2A0226F
:0C276A00C2A112265BD2A17F0A02265FEA
:02257E00AD07A7
:10258000E4FCC2A07F0A12265FED30E704D2A180EE
:1025900002C2A17F0A12265FD2A0ED25E0FD7F0ACC
:0925A00012265F0CBC08DBC2A08E
:0125A900220F
:10262100E4FC12265BED25E0FD30A103430501C268
:0C263100A07F0A12265F0CBC08E8AF0571
:01263D00227A
:0B263E0012257E122649AF0312257EF4
:1026490012265BA2A1E433FDC2A07F0A12265FAF66
:01265900057B
:01265A00225D
:10000300C2A0EF24FF92A17F0A12265F12265BC2D1
:08001300A0D2A17F0A02265FC2
:0225FC00AB072B
:1025FE0012274E7F9012263E12274E7F9112257E75
:10260E00122649122621AD077F0112000312276AF6
:02261E00AF0506
:012620002297
:1026CF00AB0712274E7F9012257E1226497F4112AB
:0526DF00263E02276AFF
:100026000203E7E86480F8E933E83360110460F01E
:10003600ED33EC337009E8FCE9FDEAFEEBFF220440
:1000460060DED3EB9FEA9EE99DE8C2E78CF0C2F73B
:1000560095F0400CE8CCF8E9CDF9EACEFAEBCFFB07
:100066001203B285D0F05804700320D5B3E80470AB
:10007600075002B2D50203F192D5EC0460F7E4CC46
:10008600C0E0C398F8603B94186008400DD0E0FBD0
:100096000203C9E4FBFAC9FC8028E830E406E4C997
:1000A600FBE4CAFCE830E305E4C9CACBFCE8540724
:1000B6006010F8C3E913F9EA13FAEB13FBEC13FC2F
:1000C600D8F130F52FC3E49CFCEF9BFFEE9AFEEDD2
:1000D60099FDD0E0FBEF4E4D4C701222DB0302037C
:1000E600EEEC2CFCEF33FFEE33FEED33FDED30E7A7
:1000F600EB0203C9EF2BFFEE3AFEED39FDD0E0FB34
:1001060050130BBB00030203F1ED13FDEE13FEEFDC
:0801160013FFEC13FC0203C906
:10011E00EC4D6011E8497017ED33EC3304600DE4DB
:10012E00FCFFFEFD22E933E8330470F80203E71208
:10013E0003B258046009E4CC248150062850090209
:10014E0003F12840030203EEC0E0EB4A7044B9808D
:10015E0006D0E0FB0203DDEF4E701CBD8008EBFF06
:10016E00EAFEE9FD80EBE98DF0A4FEE5F002020760
:10017E00E9CDF9EAFEEBFFEF89F0A4FCE5F0CE89BC
:10018E00F0A42EFFE435F0CD89F0A42DFEE435F079
:10019E008067EF4E7005BD80D780C3EF8BF0A4ACA7
:1001AE00F0EE8BF0A42CFCE435F0F8EF8AF0A42CE2
:1001BE00E5F038FCE433CB8DF0A42CFCE5F03BF8F5
:1001CE00EE8AF0A42CFCE5F038F8E433CF89F0A4E5
:1001DE002CFCE5F038CF3400CE89F0A42FFFE5F0EB
:1001EE003EFEE433C98DF0A42EFEE5F039CD8AF043
:1001FE00A42FFFE5F03EFEE43DFD33D0E0FB5007BB
:10020E000BBB000F0203F1EC2CFCEF33FFEE33FEC1
:06021E00ED33FD0203C9EF
:100224000203F1EC5D046005E8590470030203E77E
:100234001203B2580460F6EC4860F2EC7004FDFE60
:10024400FF22C860DB2481C85009C39860025006AD
:100254000203EE9850CAF582E9294B4A7005AB8235
:100264000203DD75F0007C1A7880C3EF9BEE9AEDF3
:1002740099400DC3EF9BFFEE9AFEED99FDE842F025
:10028400DC23ACF0D0E0FFD0E0FED0E0FDAB822078
:10029400E7101BEB60BAEC2CFCEF33FFEE33FEED02
:1002A40033FD0203C9E803F830E705C0F075F00038
:1002B400EF2FFFEE33FEED33FD40B830E7C280AAE6
:1002C40074F8CC6480CCC86480C8F58204604FC3E1
:1002D400EB9FF5F0EA9E42F0E99D42F0E89C45F080
:1002E400603C501DE5825FFFE582D313CB5BCBF40A
:1002F4002B5582FB50280ABA002409B90020088033
:100304001DE5825BFBE582D313CF5FCFF4C3132FCC
:100314005582FF50090EBE00050DBD00010CC3EB54
:100324009FF5F0EA9E42F0E99D42F0E89C45F060BA
:0903340007CC4820E701B3EC22DC
:10033D0075F020800E75F010800575F0087D007E3B
:10034D00007F003392D530D503120716EC334010E1
:10035D00EF33FFEE33FEED33FDEC33FCD5F0ED2244
:0E036D00E5F0247EA2D513CC92E7CDCEFF2280
:10037B00EDD2E7CD33EC3392D524814006E4FFFE7A
:10038B00FDFC22FCE4CFCECDCC24E0501174FF80D9
:10039B00EDC3CC13CCCD13CDCE13CECF13CF047076
:0703AB00F030D5DE02071659
:1009FA00E541242DF8E6054122782A300702782DB0
:100A0A00E475F0011207DB0206382000EB7F2ED2D4
:100A1A00008018EF540F2490D43440D4FF30040BD4
:100A2A00EF24BFB41A0050032461FFE542600215A7
:100A3A00420545E5457002054430070D782AE475FC
:100A4A00F0011207DBEF02067E0227887403D20741
:100A5A008003E4C207F5418B2A8A2B892CE4F542EC
:100A6A00F544F545E54260077F20120A3580F575A1
:100A7A0043FFC201C200C202C203C205C206C208C3
:100A8A00120A03FF700D3007057F00120A46AF45B0
:100A9A00AE4422B4255FC2D5C204120A03FF24D091
:100AAA00B40A00501A75F00A784230D50508B6FF24
:100ABA000106C6A426F620D5047002D20380D924E2
:100ACA00CFB41A00EF5004C2E5D204020D33D201AA
:100ADA0080C6D20080C0D20280BCD2D580BAD205EC
:100AEA0080B47F20120A352002077401B542004003
:100AFA00F11209FAFF120A35020A6ED208D20680EA
:100B0A00951209FAFB1209FAFA1209FAF94A4B7014
:100B1A0006792A7A0E7BFF20022EE542602A7E00A1
:100B2A008E8275830012065160060EEE654370F0E0
:100B3A00C2D5EBC0E0EAC0E0E9C0E0EE120D93D006
:100B4A00E0F9D0E0FAD0E0FB120638FF60AAEBC069
:100B5A00E0EAC0E0E9C0E0120A35D0E02401F9D0A9
:100B6A00E03400FAD0E0FBE5430460DCD543D980E9
:100B7A0087D20280A2120D7660F7E5437001041253
:100B8A000427A943600DE543600914F543120E1DBD
:100B9A00EF60F3EA30E702F404C3995077EAF425E8
:100BAA00430430E701E404F543800D120D7660C179
:100BBA00EA05432543120427EA7840F630E701E4C0
:100BCA00254304D5430420050114120D93E4C0E023
:100BDA00120E1D7840E6601320E70714F6120A1D6C
:100BEA00802204F6D0E014C0E07F00120A1DE5431B
:100BFA006007120A141543800B300503120A14D039
:100C0A00E0020A6ED0E00480C5120D7660A0E543CA
:100C1A00041204277840EAF6E5432005026001043D
:050C2A002404120D93EB
:100C2F0074FF04C0E0120E1D120A1DE543200502D9
:100C3F006003120A14D0E0B543E87F45120A277803
:100C4F0040E67F2B30E7047F2DF404C0E0120A3515
:100C5F00D0E075F00A84C0F0120A1ED0E0120A1E0E
:100C6F00020A6E791080027908C206C2088008D283
:100C7F00D5790A8004790AC2D5E543047002F54399
:100C8F00E4FAFDFEFF1209FAFC7B0820011312099A
:100C9F00FAFD7B1030000A1209FAFE1209FAFF7BE7
:100CAF0020EC3382D592D55013C3E43000069FFF5A
:100CBF00E49EFEE42001039DFDE49CFCE4CBF8C21E
:100CCF0001EC700CCFCECDCCE824F8F870F3801780
:100CDF00C3EF33FFEE33FEED33FDEC33FCEB33FBB1
:100CEF00994002FB0FD8E9EB300105F8D0E0C4487A
:100CFF00B201C0E00AEC4D4E4F78207B0070C2EA83
:100D0F00B5430040BCC0E0120D95D0F0D0E02001FB
:100D1F0004C4C0E0C4B201C0F0120A1ED0F0D5F076
:100D2F00EB020A6E1207FB0B0B530C72580ADC4CCA
:100D3F000AD8420C764F0C7E440C7E490AF1430CC4
:100D4F0084550BB5460C13450B7F470E4A500AE0EE
:100D5F002D0AE42E0B072B0AE8230B05200E332A4E
:100D6F000AA04800000AFFE543B4FF0375430612CB
:100D7F0009FAFC1209FAFD1209FAFE1209FAFF78B4
:100D8F0039020456790AA2D5200314300509B91087
:100D9F00020404B9080104A2D52006025001042060
:100DAF0002689202B542005034C0E07F2030031930
:100DBF007F30A20272067205500F120DECC202C2F2
:100DCF0006C205C2087F30800F300503E9C0E0126C
:100DDF000A35300503D0E0F9D0E0B542CC30051725
:100DEF007F30B9100C120A357F583004077F788096
:100DFF0003B90803120A353002057F2D020A357F29
:100E0F00202008F87F2B2006F322920280CF7F004C
:100E1F00B4070050052439F8E6FF22286E756C6C74
:100E2F002900D2011209FA3001F8C201784230D5F7
:100E3F000108F6020AA02D504349581209FA24035B
:100E4F00B405004001E4900E4593120A26743A123D
:0A0E5F000A26D203754204020C7249
:10123700E53F30030104F82328242DF822782A30CB
:101247000302782DE475F0011207DB02063860EC23
:10125700C5437002154214C543200304FF022797B4
:10126700782A74FFF5F00207EBFF02270CE54060D0
:1012770006D540037F002220030F12271FEF6008C7
:101287000543E5437002054222782A1207D2120667
:1012970038FF60E9782AE475F0011207DB80DE1277
:1012A700127EEFC0E0121270D0E040F380A0D203AC
:1012B7008002C2038B2A8A2B892CE4F541F53FF57E
:1012C70042F543754000C202C200C201C2041212B5
:1012D70044FF7005AF417E0022B42530121244FF4F
:1012E70024D0B40A00500C75F00AC540A42540F577
:1012F7004080E924CFB41A00EF5002C2E50215522C
:10130700D20180D8D20080D4D20480D0EF121270DC
:1013170050081212A6EF600E80A9EFC0E012127EED
:10132700D0E06F609EEF607412125580A712127E94
:10133700EF6069E54070070540800312127EEF6099
:101347001420040E121237E475F0011207DBEF12B6
:10135700067ED540E6200404053F054180BA1212F7
:1013670074EFC0E0121270D0E05004121255E4FF7F
:1013770020040E121237E475F0011207DBEF120694
:101387007EEF70DA200404053F0541808BE540605D
:101397000205401212A6121274EF70C6300304E45D
:1013A700121255E54160030212DB7EFF7FFF22E543
:1013B70040600205401212A6D206D205121274EF3F
:1013C70030060260D7C0E0121255D0E0AC44AD45FC
:1013D700AE46AF47121F2A8C448D458E468F475025
:1013E7000712127EC20580D4200410200502054191
:0813F7001212371207D2053F64
:1013FF001207350212CAD0E0809A7900800A79105C
:10140F00800679088002790AD205E540600205401E
:10141F00E9C0E01212A6EF60DD12127EBF2D04D2DA
:10142F00028003BF2B091212A6EF60CA121274D0EA
:10143F00E0B40A028033B40802802EBF3027700256
:10144F007408C205C0E0121274D0E0BF78028003A6
:10145F00BF58160540D540028007D54004D20580FD
:10146F000B741080197002740ABF000AEFF8E4FCC5
:10147F00FDFEFF021505C0E0EF121255D0E0F9E4B2
:10148F00FCFDFEFFE9C0E0ECC0E0EDC0E0EEC0E027
:10149F00EFC0E0121274EFF8D0E0FFD0E0FED0E022
:1014AF00FDD0E0FCD0F0E8604DB461004007B47BA4
:1014BF00005002C2E524D0503DFA24F6500724F91B
:1014CF005034240AFAEAB5F000502BCFA9F0A42F1C
:1014DF00FF92D5E9C5F0CEA4A2D53EFE92D5E9C5BF
:1014EF00F0CDA4A2D53DFD92D5E9C5F0CCA4A2D5EF
:1014FF003CFCC205808EE8C0E020042A20050805C8
:10150F00413002031207161212371207D2053F207D
:10151F00000B20010DEE8FF01206F7800912073530
:10152F008004EF12067ED0E01212550212CA200478
:10153F00101212371207D2053FE5428543F012060B
:10154F00F780E81207FB139453140D58130B4C1329
:10155F00074212E34814114F14154413344314096E
:10156F004914155513B64613B64513B647130F2A2C
:07157F00153D4E000013139F
:0D275D00ED33EC3360065004EC6480FC2288
:101FFD000203E722EDA2E7D2E7F9EC3340F260F3FA
:10200D00B4FF08ED547F70E80203F1F82481C2E0BB
:10201D00C0E0F40428FAC313FCED92E7FD8C228D89
:10202D00238E248F25EEA2E7E9BA7F02C313340075
:10203D009400FA75F091A4E5F013F494FE8AF0A4DF
:10204D0033E5F033248CD313FDE492E7FE7F007C5F
:10205D003F758302ECC0E0F8EDC0E0F9EEC0E0FAA8
:10206D00EFC0E0FBAC22AD23AE24AF25120227D08A
:10207D00E0FBD0E0FAD0E0F9D0E0F812002DED64ED
:10208D0080FD30E7011CD583CBED33CC33F8D0E0A8
:0A209D00A2E71328C313CC13FD22A1
:101CEE008F258E248D238C22E4FFFE7D807C3FABDE
:101CFE0025AA24A923A8221202C47009AF25AE2456
:101D0E00AD23AC2222AF25AE24AD23AC221203FCB0
:101D1E00FBAF29AE28AD27AC261203FCFFBF01088E
:101D2E00E4FFFE7D807C3F22EF64046022EB6404BE
:101D3E00601DBB0127E4FFFEFDFCAB29AA28A927E5
:101D4E00A8261202C460084006E4FFFEFDFC2274C1
:101D5E00FFF529F528F527F526021DFCE4F52AF5F1
:101D6E002BFFFEFDFCAB25AA24A923A8221202C438
:101D7E00504BAF29AE28AD27AC2612037B8E2A8F8F
:101D8E002BAC2AAD2BEC120342C8ECC8C9EDC9CA64
:101D9E00EECACBEFCBAF29AE28AD27AC2612002969
:101DAE00E4FBFAF9F81202C470A5AF25AE24AD23F8
:101DBE00AC221204168F258E248D238C22AF25AED5
:101DCE0024AD23AC22121BEDAB29AA28A927A826E5
:101DDE0012011E1221808F298E288D278C26E52B2D
:101DEE0030E00B1204168F298E288D278C26AF29F2
:071DFE00AE28AD27AC262240
:1003B200E9D2E7C933E833F892D5EDD2E7CD33EC91
:0703C20033FC5002B2D5220A
:1003C900EC30E7100FBF000C0EBE00080DBD000495
:1003D9000BEB6014A2D5EB13FCED92E7FD2274FF41
:1003E900FCFDFEFF22E480F8A2D574FF13FC7D809A
:0303F900E480EFAE
:1003FC00ED33EC33601004700FED547F7005740214
:0A040C0092E0227404220422E4228C
:10041600ED33EC33600A047003BD8004ECB2E7FCF4
:0104260022B3
:10042700F920E72824F950037907E4F42402FB189C
:10043700DBFDE624FB5014E9600DE4F618E604F64C
:0F044700B40A08E4F6D9F57401F60A22C2D522E8
:10045600ED33EC3392D5FA602AB4FF33EDC2E77B75
:10046600FF60067A04797BE4227A04798420D50435
:100476007A04797F224E614E002B494E46002D4963
:100486004E4600E47A08F608DAFC7B00740722E898
:10049600C0E0ECC0E0EDC0E0EEC0E0EFC0E0EA7521
:1004A600F010A4CAABF075F04DA42BFBE435F0FCBC
:1004B600EA2410FAEB34C5FBEC34D9FCEDC2E7FFB5
:1004C60075F056A4F42411C5F0F434C58FF0A42AAF
:1004D600E5F03BE43CF620E714120589D0E0FFD0B6
:1004E600E0FED0E0FDD0E0FC1202278014F40412F6
:1004F6000589D0E0FFD0E0FED0E0FDD0E0FC12019F
:100506001ED0E0F8E6FAEDD2E7CD33EC332482FBD9
:10051600E4C3CF33CFCE33CECD33CD33DBF37B073E
:1005260075F00A846004F6081B0AE5F0F6088FF0F9
:10053600740AA4FFACF08EF0740AA42CFEACF05042
:10054600010C8DF0740AA42CFDE435F0F608DBDE10
:0305560074072205
:101F1700C207C208C209C20AF9E4F548F549FCFD3F
:101F2700FEFFE91006EA20090CB42D04D209D322DA
:101F3700B42B02D32224D0504794095041240A30AD
:101F47000A15F88549F0740AA42872E74051C5F0CC
:101F5700704D85F049D322D208C0E0E4FBFA79201E
:101F6700784112011EECF8EDF9EEFAEFFBD0E0FC38
:101F7700E412034712002D3007B41548D322240A70
:101F8700200A20B4FE0720071AD207D32224EB60C9
:101F97000424E0700EA2099207D20AC209D322C311
:101FA7000203E7E4300A0BE549300902F404A2070B
:101FB70092093008EA254820D2E5A2E7920A5002A2
:101FC700F404B4260050D8CCC0E0EDC0E0EEC0E089
:101FD700EFC0E0EC120589D0E0FFD0E0FED0E0FDD5
:101FE700D0E0FC200A0512011E80031202273009E7
:061FF70003120416C322D0
:1021480033DA929E35B16011377FE5FE39218489F3
:102158003AAEC3FF3C1D955B3D6358473E75FDF0A5
:102168003F3172183F800000C2D50203F10203E735
:10217800BD80FA50F30203EEED33EC330460F17BDB
:102188003B7AAA79B8783F12011EED33EC3392D529
:10219800247B5011A2D570DB500BED4480240450F1
:1021A80004A2D580CEEFFBEEFAEDF9ECF812037B32
:1021B800EFF582F404FC12034712002DC08290212F
:1021C8004874091205D8ED33CC33D0F092D525F0F8
:0A21D800A2D57001C313CC13FD2241
:101BB9003E9248DA3ECCCCCD3F2AAAAB4000000089
:101BC9003F8000003F9837F03FB504F33FD744FC0E
:101BD9003E3172173EB172173F0515913EDE5BD952
:101BE900D2008002C200EDD2E7F8CD33EC330470A5
:101BF9000BBD800592D50203F10203E740FBD31424
:101C090060F2F5F07C3FEE7A00C39496C8948B405D
:101C1900230AC89469C8941A401A0AC89468C894CF
:101C29001F40110AC8945AC89425400805F07A0043
:101C3900CDC2E7CDC0F08C2C8D2D8E2E8F2FEA23AF
:101C490023C0E024C9F582E4341BF5831207781216
:101C5900002DECC0E0EDC0E0EEC0E0EFC0E01207FF
:101C69005BA82CA92DAA2EAB2F120029D0E0FBD0FE
:101C7900E0FAD0E0F9D0E0B2E7F81202278C2C8D17
:101C89002D8E2E8F2F901BB974031205C9A82CA96C
:101C99002DAA2EAB2F12011ED0E0600F24D5F5829C
:101CA900E4341BF58312077812002D8C2C8D2D8EB0
:101CB9002E8F2FD0E0C3947FFDE49400FC120342E1
:101CC9007B187A727931783F12011EA82CA92DAAA6
:101CD9002EAB2F12002D30000B7BD97A5B79DE7881
:051CE9003E12011E2265
:100559003F8000004120000042C80000447A0000AA
:10056900461C400047C35000497424004B1896802C
:100579004CBEBC205A0E1BCA6753C21C749DC5AE23
:10058900FB60065407601C23231205B7EB5438603F
:10059900091205A31205B212011EECF8EDF9EEFAE3
:1005A900EFCB22EB1205B280F1543803241C9005DD
:1005B90059FE93FC0EEE93FD0EEE930ECE93FF22A1
:1005C900C0E0EFFBEEFAEDF9ECF812011ED0E0F510
:1005D900F0EFFBEEFAEDF9ECF812075BA3A3A3A386
:1005E900E8C0E0E9C0E0EAC0E0EBC0E0C0F0120119
:1005F9001E120778A3A3A3A312002DD0F0D0E0FB0D
:0D060900D0E0FAD0E0F9D0E0F8D5F0D4222E
:1021EE00022780E493A3F8E493A34003F68001F260
:1021FE0008DFF48029E493A3F85407240CC8C333F2
:10220E00C4540F4420C8834004F456800146F6DFC0
:10221E00E4800B01020408102040809020A7E47E89
:10222E00019360BCA3FF543F30E509541FFEE493B5
:10223E00A360010ECF54C025E060A840B8E493A37C
:10224E00FAE493A3F8E493A3C8C582C8CAC583CAA7
:10225E00F0A3C8C582C8CAC583CADFE9DEE780BE5F
:012147000097
:10061600C2D530F707B2D563F0FF05F030E70CB26C
:10062600D5F4048463F0FF05F080018430D502F42C
:0206360004229C
:10063800BB010689828A83E0225002E722BBFE02C0
:09064800E32289828A83E49322F3
:10065100BB010CE58229F582E5833AF583E022505E
:1006610006E92582F8E622BBFE06E92582F8E222A8
:0D067100E58229F582E5833AF583E49322C2
:10067E00BB010689828A83F0225002F722BBFE015B
:02068E00F32255
:10069000EF8DF0A4A8F0CF8CF0A428CE8DF0A42E7E
:0206A000FE2238
:1006A200BC000BBE0029EF8DF084FFADF022E4CC3C
:1006B200F875F008EF2FFFEE33FEEC33FCEE9DEC05
:1006C200984005FCEE9DFE0FD5F0E9E4CEFD22ED4B
:1006D200F8F5F0EE8420D21CFEADF075F008EF2F95
:1006E200FFED33FD4007985006D5F0F222C398FD86
:0506F2000FD5F0EA2223
:1006F700BB010A89828A83F0E5F0A3F0225006F74E
:0F07070009A7F01922BBFE06F3E5F009F319224A
:0E071600C3E49FFFE49EFEE49DFDE49CFC22F4
:10072400EB9FF5F0EA9E42F0E99D42F0E89C45F02B
:0107340022A2
:10073500BB010789828A830209EE5005E9F80207A1
:0A07450088BBFE05E9F802079422C4
:0C074F00E6FC08E6FD08E6FE08E6FF22D6
:10075B00E493FC740193FD740293FE740393FF22E4
:0D076B00E6FB08E6F908E6FA08E6CBF822FE
:10077800E493F8740193F9740293FA740393FB22D7
:0C078800ECF608EDF608EEF608EFF6229D
:0C079400ECF208EDF208EEF208EFF222A1
:1007A000D083D082E493F608740193F60874029320
:0907B000F608740393F674047357
:1007B900D083D082E493F208740193F2087402930F
:0907C900F208740393F274047346
:0907D200E6FB08E6FA08E6F9224C
:1007DB00FAE6FB0808E6F925F0F618E6CA3AF6221F
:1007EB00FAE6FB0808E625F0F9F618E63AFAF622DF
:1007FB00D083D082F8E4937012740193700DA3A38D
:10080B0093F8740193F5828883E4737402936860A0
:06081B00EFA3A3A380DFA0
:060821008A838982E47362
:10271F00100F0B122776BF0D027F0A022788AF0812
:01272F002287
:052797008F08D20F22A3
:10270C00EFC394094005EF940E4003BF2003D38020
:03271C0001C322D4
:10082700E3F5F009E208B5F06D606B80F3E3F5F0EE
:1008370009E608B5F060605E80F387F009E608B561
:10084700F054605280F487F009E208B5F04860463A
:1008570080F488828C8387F009E0A3B5F03860368E
:1008670080F488828C8387F009E493A3B5F027602E
:100877002580F388828C83E3F5F009E0A3B5F016B1
:10088700601480F388828C83E3F5F009E493A3B5C1
:10089700F004600280F2020952808580E7808E8032
:1008A700D2803C8015806C807E809B80B5808B8059
:1008B700A1804F8070803A02095E89828A83ECFAB0
:1008C700E493F5F0A3C8C582C8CCC583CCE493A351
:1008D700C8C582C8CCC583CCB5F070606E80E1898D
:1008E700828A83E493F5F0A3E208B5F05E605C804A
:1008F700F289828A83E0F5F0A3E608B5F04D604BF4
:1009070080F389828A83E0F5F0A3E208B5F03C60C2
:100917003A80F389828A83E493F5F0A3E608B5F079
:100927002A602880F2805389828A83ECFAE493F55F
:10093700F0A3C8C582C8CCC583CCE0A3C8C582C80C
:10094700CCC583CCB5F004600280E27FFFB5F0022E
:100957000F2240027F012289828A83ECFAE0F5F0B8
:10096700A3C8C582C8CCC583CCE0A3C8C582C8CC00
:10097700C583CCB5F0D560D380E389828A83ECFA4E
:10098700E0F5F0A3C8C582C8CCC583CCE493A3C85F
:10099700C582C8CCC583CCB5F0B160AF80E288F022
:1009A700ED2402B4040050A3F582EB2402B4040042
:0B09B700509923234582239008A07371
:1026E400E4FFFE120638600C0FEF70010E09E9706A
:0526F400F20A80EF2254
:1009C200EF4E6012EF60010EEDBB010B89828A834C
:1009D200F0A3DFFCDEFA2289F05007F709DFFCA959
:0C09E200F022BBFEFCF309DFFCA9F022B0
:0C09EE00ECF0A3EDF0A3EEF0A3EFF0227C
:0A2776003098FDAF99C2987E002252
:00000001FF
