:030000000206AE47
:0C06AE00787FE4F6D8FD7581780206F52F
:100A270044697374616E63653A2564636D0D0A00EA
:10081500084F0A0A0A0A0A0A0A0A083F00000000E5
:1008250000000000017600013D00084700000000BF
:10083500000000008A000000000000000000000029
:06084500013E00015F1EF0
:10060900785DE660030206AD785D760112073A78F7
:100619005CA607E6FF1866FE5FFF7858F6785CE689
:10062900FDF45E7875F6785BA605EF24F860191479
:10063900606124FD601D24FC6039240C7066783EDD
:1006490006E66402705EF622783EE670577860E648
:1006590018F622783EE66401704A785FE6FFC39493
:10066900F64009EFD394FF5003A60722785F740A76
:1006790026F622783EE66401702A785FE6FFC39485
:10068900004009EFD394095003E4F622785F74F629
:1006990026F6227BFF7A0A79277860E6752500F528
:0506A90026120088226A
:1004A300785AE6600302055C785A760112092F78C0
:1004B30060A607784F760B7853760A18760A187673
:1004C3000A783EE614604C04600302055C785076BB
:1004D300017860E6FF75F0648475F00A847854A6A9
:1004E300F0EF75F00A8475F00A8408A6F07860E6E8
:1004F30075F00A847856A6F0787876057878E6FF62
:10050300C394075054744F2FF8E6704D760A7878E9
:100513000680E978507602785FE6FF75F0648475AB
:10052300F00A847854A6F0EF75F00A8475F00A8413
:1005330008A6F0785FE675F00A847856A6F0787816
:1005430076057878E6FFC39407500E744F2FF8E6CC
:0A0553007007760A78780680E92226
:1008B800E4783DF67876F6783EE6FF70047E0180AF
:1008C800027E007847A606EFB401047F0180027F0C
:1008D800007848A6077960E7D3785F964007A20AB0
:0C08E800E433FF80027F007849A607225D
:10096A007857E6FF601C783CE6C3940A4014E4F624
:10097A007859F6FEFD7BFE7A0079001203E9E478E5
:03098A0057F622FB
:1009F000538EBF53890F758B18758DFCC28FD28EA5
:050A0000D2ABD2AF22D1
:03001B0002055D7E
:10055D00C0E0C0F0C083C082C0D075D000C000C064
:10056D0001C002C003C004C005C006C007785D0607
:10057D00E6B414027600785A06E6B45A027600788C
:10058D0059E66003783C067960E7D3785F96400EB4
:10059D00787706E6B4C8077600A20AB3920A785EA9
:1005AD0006E6B408027600785EE6FF244FF8E6FD15
:1005BD007C00785EE6243FF8E6FB7A001208767838
:1005CD005EE6FF2447F8E6FD7C001208F47876E637
:1005DD0024FF920912098D783DE624FF9209120934
:1005ED00B0D007D006D005D004D003D002D001D0B2
:0C05FD0000D0D0D082D083D0F0D0E0320B
:030023000207AD24
:1007AD00C0E0C0F0C083C082C0D075D000C000C012
:1007BD0001C002C003C004C005C006C00730982D9B
:1007CD0078597601783C76007857E6062400F8E5EE
:1007DD0099F2C2987857E6D3940A401176007E00BC
:1007ED007F0A7D007BFE7A0079001203E9D007D0E5
:1007FD0006D005D004D003D002D001D000D0D0D087
:08080D0082D083D0F0D0E0326C
:090A37001209D31200030209F0B8
:100A0500120A371206091204A31208B812096A80DD
:010A1500F2EE
:1009D3007580FFE5A0541F4480F5A053A01FE4F5E4
:0D09E30080E5A0541F44A0F5A053A0A02261
:10073A00E4FFC2C4D2C2D2B5D2B420B3027F04202D
:10074A00B2027F0520B1027F0620B0027F07D2C421
:10075A00C2C2D2B5D2B420B3027F0820B2027F0946
:10076A0020B1027F0A20B0027F0BD2C4D2C2C2B526
:10077A00D2B420B3027F0C20B2027F0D20B1027FD7
:10078A000E20B0027F0FD2C4D2C2D2B5C2B420B3F7
:10079A00027F1020B2027F1120B1027F1220B00224
:0207AA007F13BB
:0107AC00222A
:10084B000136000137FF0138000139FF013A000181
:02085B003BFF61
:1008F400ED4C600F7401A807088002C333D8FC4292
:1009040036800E7401A807088002C333D8FCF45261
:1009140036E53665376013E536F4F580E5A0541FF7
:0A0924004480F5A053A01F8536376C
:01092E0022A6
:10098D0030090543384080035338BFE53865396079
:10099D0011853880E5A0541F44A0F5A053A01F85F4
:0209AD003839D7
:0109AF002225
:1009B000300905433A108003533AEFE53A653B604E
:1009C00011853A80E5A0541F44A0F5A053A01F85CF
:0209D0003A3BB0
:0109D2002202
:10085D000C08C0F9A4B0999282F88090FFC10814D9
:08086D00010204081020408084
:100876007580FFE5A0541F44E0F5A053A01F741433
:100886002FF8E6F580E5A0541F44C0F5A053A01F3D
:10089600EB4A600B74082DF8E6547FF580800774E8
:1008A600082DF8E6F580E5A0541F44E0F5A053A016
:0208B6001F22FF
:10000300759850438E01538EFB75D7E675D6FF4323
:070013008E10D2ACD2AF2227
:080A40008F993099FDC2992243
:060A480000007F21DFFE2B
:010A4E002285
:100A1600E4FED290120A48C290120A480EBE08F2AC
:010A260022AD
:10092F00E4F5D9F5E9F5F9C2AF120A16D2AFD2DE66
:10093F0030910330DFFAC2DE20DF1BAFF9EFFEADDF
:10094F00E9EDFF7C007D0A1203947C007D111203F8
:0A095F00827D64020394C2DF7F0072
:01096900226B
:1006BA00020A05E493A3F8E493A34003F68001F247
:1006CA0008DFF48029E493A3F85407240CC8C33341
:1006DA00C4540F4420C8834004F456800146F6DF10
:1006EA00E4800B0102040810204080900815E47E83
:1006FA00019360BCA3FF543F30E509541FFEE49305
:10070A00A360010ECF54C025E060A840B8E493A3CB
:10071A00FAE493A3F8E493A3C8C582C8CAC583CAF6
:10072A00F0A3C8C582C8CAC583CADFE9DEE780BEAE
:010875000082
:10038200EF8DF0A4A8F0CF8CF0A428CE8DF0A42E8F
:02039200FE2249
:10039400BC000BBE0029EF8DF084FFADF022E4CC4D
:1003A400F875F008EF2FFFEE33FEEC33FCEE9DEC16
:1003B400984005FCEE9DFE0FD5F0E9E4CEFD22ED5C
:1003C400F8F5F0EE8420D21CFEADF075F008EF2FA6
:1003D400FFED33FD4007985006D5F0F222C398FD97
:0503E4000FD5F0EA2234
:10002600E5312425F8E605312278223007027825C5
:10003600E475F00112046D0204152000EB7F2ED248
:10004600008018EF540F2490D43440D4FF30040BB2
:10005600EF24BFB41A0050032461FFE53260021595
:10006600320535E5357002053430070D7822E47522
:10007600F00112046DEF02045B020A407403D2071A
:100086008003E4C207F5318B228A238924E4F53202
:10009600F534F535E53260077F2012006180F5758D
:1000A60033FFC201C200C202C203C205C206C208B1
:1000B60012002FFF700D3007057F00120072AF355A
:1000C600AE3422B4255FC2D5C20412002FFF24D05D
:1000D600B40A00501A75F00A783230D50508B6FF12
:1000E6000106C6A426F620D5047002D20380D924C0
:1000F600CFB41A00EF5004C2E5D204020272D20154
:1001060080C6D20080C0D20280BCD2D580BAD205C9
:1001160080B47F201200612002077401B5320040CE
:10012600F1120026FF12006102009AD208D2068060
:1001360095120026FB120026FA120026F94A4B7089
:100146000679437A037BFF20022EE532602A7E0081
:100156008E8275830012042E60060EEE653370F0F3
:10016600C2D5EBC0E0EAC0E0E9C0E0EE1202B9D0C9
:10017600E0F9D0E0FAD0E0FB120415FF60AAEBC06C
:10018600E0EAC0E0E9C0E0120061D0E02401F9D065
:10019600E03400FAD0E0FBE5330460DCD533D980E7
:1001A600877BFF7A0279B5D202809C79108002792A
:1001B60008C206C2088008D2D5790A8004790AC224
:1001C600D5E533047002F533E4FAFDFEFF1200268E
:1001D600FC7B08200113120026FD7B1030000A125A
:1001E6000026FE120026FF7B20EC3382D592D550E6
:1001F60013C3E43000069FFFE49EFEE42001039D46
:10020600FDE49CFCE4CBF8C201EC700CCFCECDCC67
:10021600E824F8F870F38017C3EF33FFEE33FEEDF2
:1002260033FDEC33FCEB33FB994002FB0FD8E9EBD3
:10023600300105F8D0E0C448B201C0E00AEC4D4EEA
:100246004F78207B0070C2EAB5330040BCC0E01294
:1002560002BBD0F0D0E0200104C4C0E0C4B201C0AB
:10026600F012004AD0F0D5F0EB02009A12047D019C
:10027600375301B15801084C01044201B54F01BD85
:0F0286004401BD49011D4301C35501A74601A70E
:100295004501A747036350010C2D01102E01332B97
:1002A500011423013120034C2A00CC480000012B06
:1002B5003F3F3F00790AA2D5200314300509B91044
:1002C500020404B9080104A2D52006025001042045
:1002D50002689202B532005034C0E07F2030031925
:1002E5007F30A20272067205500F120312C202C2BB
:1002F50006C205C2087F30800F300503E9C0E01251
:100305000061300503D0E0F9D0E0B532CC300517F7
:100315007F30B9100C1200617F583004077F788058
:1003250003B908031200613002057F2D0200617FC9
:10033500202008F87F2B2006F322920280CF286E1A
:10034500756C6C2900D2011200263001F8C20178C3
:100355003230D50108F60200CC2D50434958120021
:10036500262403B405004001E490035E9312005275
:0D037500743A120052D2037532040201B135
:1003E900EF4E6012EF60010EEDBB010B89828A832B
:1003F900F0A3DFFCDEFA2289F05007F709DFFCA938
:0C040900F022BBFEFCF309DFFCA9F0228E
:10041500BB010689828A83E0225002E722BBFE02E5
:09042500E32289828A83E4932218
:10042E00BB010CE58229F582E5833AF583E0225083
:10043E0006E92582F8E622BBFE06E92582F8E222CD
:0D044E00E58229F582E5833AF583E49322E7
:10045B00BB010689828A83F0225002F722BBFE0180
:02046B00F3227A
:10046D00FAE6FB0808E6F925F0F618E6CA3AF62290
:10047D00D083D082F8E4937012740193700DA3A30E
:10048D0093F8740193F5828883E473740293686022
:06049D00EFA3A3A380DF22
:00000001FF
