:03000000020EA845
:0C0EA800787FE4F6D8FD75817C020EEF27
:10137D0052657475726E004E6F697365733A252EE2
:05138D0031666442001E
:1010710008660A0A0A0A0A0A0A0A08560000000053
:1010810000000000017A00014E00085E000000002F
:10109100000000008A0000000000000000000000C5
:0610A1000154000153415F
:10100F007873E6705C78737601120F347872A607E6
:10101F00E6FF1866FE5FFF786EF67872E6FDF45E07
:10102F007879F67871A605EF24F060111460212409
:10103F0005702E785406E664027026F6227854E680
:10104F006401701D18740526F6E6B45F14765A22F3
:10105F007854E6B4010B1874FB26F6E6B4FB02E4F1
:02106F00F62267
:100D03007870E66003020DE9787076017F031212B2
:100D130085AC07E412024FE4FBFA794C78421201E6
:100D23002F7875120672E4FFFEFDFC7875120665D6
:100D33001201CC4029E4FFFE7DA07C4078751206A9
:100D4300651201CC60025016E4FFFE7D907C417871
:100D530075120665120026784F1206728009784FC5
:100D630012067E42B400007866760B7854E6FF04E0
:100D73007867F6EF14604904706C784F12065912C5
:100D83000283EF75F00A8475F00A84786BA6F0EF9E
:100D930075F00A8408A6F0785C7601E4FFFE7D20F6
:100DA3007C41784F1206651200261202837C007D77
:100DB3000A1205F6786DA605786BE67029760A2285
:100DC300E4785CF6786B760A7853E6FF75F00A846C
:100DD30075F00A84786CA6F0EF75F00A8408A6F023
:070DE30018E67002760A22F7
:10112100E4784EF6787AF67854E6FF70047E018012
:10113100027E00785EA606EFB401047F0180027F83
:1011410000785FA6077853E6FCE412024F784F124D
:1011510006651201CC60094007A20AE433FF800250
:071161007F007865A607225C
:1010D200787CE660497855E6C3940A4041E4F61804
:1010E200E6702878007C007DFE7BFF7A13797D1202
:1010F200084BEF70167BFF7A137984784F120659EA
:101102008F288E278D268C251208F67E007F0A7D79
:0F111200007BFE7A007900120868E4787CF622F0
:03002300020FA722
:100FA700C0E0C0F0C083C082C0D075D000C000C010
:100FB70001C002C003C004C005C006C00730982D99
:100FC700786F760178557600787CE6062400F8E598
:100FD70099F2C298787CE6D3940A401176007E0095
:100FE7007F0A7D007BFE7A007900120868D007D05F
:100FF70006D005D004D003D002D001D000D0D0D085
:0810070082D083D0F0D0E0326A
:10136800538EBF53890F758B18758DFCC28FD28E23
:05137800D2ABD2AF2250
:03001B00020DEAE9
:100DEA00C0E0C0F0C083C082C0D075D000C000C0CF
:100DFA0001C002C003C004C005C006C0077873065C
:100E0A00E6B414027600787006E6B45A02760078E0
:100E1A007406E6B4080276007874E6FF2466F8E6FB
:100E2A00FD7C007874E62456F8E6FB7A001211AAD3
:100E3A007874E6FF245EF8E6FD7C001211EC787AFD
:100E4A00E624FF92091212CE784EE624FF92091286
:100E5A0012F17853E6FCE412024F784F120665123B
:100E6A0001CC60124010787B06E6B4640D7600A2CD
:100E7A000AB3920A8004787B7600786FE6B401039D
:100E8A00785506D007D006D005D004D003D002D0BA
:0E0E9A0001D000D0D0D082D083D0F0D0E03292
:0913E8001213311213A70213685D
:1013BC001213E812100F120D031211211210D28009
:0113CC00F22E
:04134E00D2A07F0AA0
:10135200000000000000000000000000000000AEDD
:06136200071FEE70EB22F4
:0F13CD00D2A112134EC2A17F0A121352C2A02244
:0C13DC00C2A112134ED2A17F0A021352CC
:02125900AD07DF
:10125B00E4FCC2A07F0A121352ED30E704D2A18046
:10126B0002C2A17F0A121352D2A0ED25E0FD7F0A24
:09127B001213520CBC08DBC2A0E6
:011284002247
:10131400E4FC12134EED25E0FD30A103430501C2A8
:0C132400A07F0A1213520CBC08E8AF05B1
:01133000229A
:1012AA00AB051213CD7FA01212591212BCAF031252
:0212BA001259C7
:1012BC0012134EA2A1E433FDC2A07F0A121352AF47
:0112CC00051C
:0112CD0022FE
:10000300C2A0EF24FF92A17F0A12135212134EC211
:08001300A0D2A17F0A021352E2
:02128500AB07B5
:101287001213CD7F901212B11213CD7F9112125902
:101297001212BC121314AD077F011200031213DCE4
:0212A700AF0591
:0112A9002222
:10139200AB071213CD7F901212591212BC7F411269
:0513A20012B10213DC92
:101168008B448A4589461212AA1213CD7FA1121206
:10117800591212BCAF481548EF6024121314AB443F
:101188000546E546AA457002054514F9EF1205E43F
:10119800E5486004E4FF80027F0112000380D50265
:0211A80013DC56
:101227008B498A4A894B1212AAAF4D154DEF601FA1
:10123700AB49054BE54BAA4A7002054A14F912055A
:101247009EFF1212591212BC7FC812135280DA0283
:0212570013DCA6
:101331007580FFE5A0541F4480F5A053A01FE4F57C
:0D13410080E5A0541F44A0F5A053A0A022F9
:100F3400E4FFC2C4D2C2D2B5D2B420B3027F04202B
:100F4400B2027F0520B1027F0620B0027F07D2C41F
:100F5400C2C2D2B5D2B420B3027F0820B2027F0944
:100F640020B1027F0A20B0027F0BD2C4D2C2C2B524
:100F7400D2B420B3027F0C20B2027F0D20B1027FD5
:100F84000E20B0027F0FD2C4D2C2D2B5C2B420B3F5
:100F9400027F1020B2027F1120B1027F1220B00222
:020FA4007F13B9
:010FA6002228
:1010A700013E00013FFF0140000141FF01420001F5
:0210B70043FFF5
:1011EC00ED4C600F7401A807088002C333D8FC4291
:1011FC003E800E7401A807088002C333D8FCF45259
:10120C003EE53E653F6013E53EF4F580E5A0541FD6
:0A121C004480F5A053A01F853E3F5B
:0112260022A5
:1012CE0030090543404080035340BFE5406541600F
:1012DE0011854080E5A0541F44A0F5A053A01F85A2
:0212EE0040417D
:0112F00022DB
:1012F10030090543421080035342EFE542654360E4
:1013010011854280E5A0541F44A0F5A053A01F857C
:02131100424355
:0113130022B7
:1010B9000C08C0F9A4B0999282F88090FFC1081475
:0810C900010204081020408020
:1011AA007580FFE5A0541F44E0F5A053A01F7414F6
:1011BA002FF8E6F580E5A0541F44C0F5A053A01F00
:1011CA00EB4A600B74082DF8E6547FF580800774AB
:1011DA00082DF8E6F580E5A0541F44E0F5A053A0D9
:0211EA001F22C2
:1013A700759850438E01538EFB75D7E675D6FF436C
:0513B7008E10D2AC22F3
:0813F1008F993099FDC2992289
:10002600EC4D6011E8497017ED33EC3304600DE4D4
:10003600FCFFFEFD22E933E8330470F80202EF12FA
:1000460002BA58046009E4CC2481500628500902FB
:1000560002F92840030202F6C0E0EB4A7044B98078
:1000660006D0E0FB0202E5EF4E701CBD8008EBFFF8
:10007600EAFEE9FD80EBE98DF0A4FEE5F002010F52
:10008600E9CDF9EAFEEBFFEF89F0A4FCE5F0CE89B5
:10009600F0A42EFFE435F0CD89F0A42DFEE435F072
:1000A6008067EF4E7005BD80D780C3EF8BF0A4ACA0
:1000B600F0EE8BF0A42CFCE435F0F8EF8AF0A42CDB
:1000C600E5F038FCE433CB8DF0A42CFCE5F03BF8EE
:1000D600EE8AF0A42CFCE5F038F8E433CF89F0A4DE
:1000E6002CFCE5F038CF3400CE89F0A42FFFE5F0E4
:1000F6003EFEE433C98DF0A42EFEE5F039CD8AF03C
:10010600A42FFFE5F03EFEE43DFD33D0E0FB5007B3
:100116000BBB000F0202F9EC2CFCEF33FFEE33FEB3
:06012600ED33FD0202D1E1
:10012C000202F9EC5D046005E8590470030202EF69
:10013C001202BA580460F6EC4860F2EC7004FDFE52
:10014C00FF22C860DB2481C85009C39860025006A6
:10015C000202F69850CAF582E9294B4A7005AB8227
:10016C000202E575F0007C1A7880C3EF9BEE9AEDE5
:10017C0099400DC3EF9BFFEE9AFEED99FDE842F01E
:10018C00DC23ACF0D0E0FFD0E0FED0E0FDAB822071
:10019C00E7101BEB60BAEC2CFCEF33FFEE33FEEDFB
:1001AC0033FD0202D1E803F830E705C0F075F0002A
:1001BC00EF2FFFEE33FEED33FD40B830E7C280AADF
:1001CC0074F8CC6480CCC86480C8F58204604FC3DA
:1001DC00EB9FF5F0EA9E42F0E99D42F0E89C45F079
:1001EC00603C501DE5825FFFE582D313CB5BCBF403
:1001FC002B5582FB50280ABA002409B9002008802C
:10020C001DE5825BFBE582D313CF5FCFF4C3132FC5
:10021C005582FF50090EBE00050DBD00010CC3EB4D
:10022C009FF5F0EA9E42F0E99D42F0E89C45F060B3
:09023C0007CC4820E701B3EC22D5
:1002450075F020800E75F010800575F0087D007E34
:10025500007F003392D530D50312064BEC334010A6
:10026500EF33FFEE33FEED33FDEC33FCD5F0ED223D
:0E027500E5F0247EA2D513CC92E7CDCEFF2279
:10028300EDD2E7CD33EC3392D524814006E4FFFE73
:10029300FDFC22FCE4CFCECDCC24E0501174FF80D2
:1002A300EDC3CC13CCCD13CDCE13CECF13CF04706F
:0702B300F030D5DE02064B1E
:10089400E5392425F8E6053922782230070278253F
:1008A400E475F00112069702059E2000EB7F2ED21C
:1008B400008018EF540F2490D43440D4FF30040B3C
:1008C400EF24BFB41A0050032461FFE53A60021517
:1008D4003A053DE53D7002053C30070D7822E4758C
:1008E400F001120697EF0205E40213F17403D20734
:1008F4008003E4C207F5398B228A238924E4F53A7C
:10090400F53CF53DE53A60077F201208CF80F57588
:100914003BFFC201C200C202C203C205C206C20832
:1009240012089DFF700D3007057F001208E0AF3DEF
:10093400AE3C22B4255FC2D5C20412089DFF24D068
:10094400B40A00501A75F00A783A30D50508B6FF93
:100954000106C6A426F620D5047002D20380D92449
:10096400CFB41A00EF5004C2E5D204020BCDD20179
:1009740080C6D20080C0D20280BCD2D580BAD20553
:1009840080B47F201208CF2002077401B53A0040DA
:10099400F1120894FF1208CF020908D208D2068087
:1009A40095120894FB120894FA120894F94A4B70B1
:1009B4000679C47A0C7BFF20022EE53A602A7E0079
:1009C4008E827583001205B760060EEE653B70F0EB
:1009D400C2D5EBC0E0EAC0E0E9C0E0EE120C2DD0D5
:1009E400E0F9D0E0FAD0E0FB12059EFF60AAEBC06C
:1009F400E0EAC0E0E9C0E01208CFD0E02401F9D079
:100A0400E03400FAD0E0FBE53B0460DCD53BD98060
:100A140087D20280A2120C1060F7E53B7001041229
:100A24000304A93B600DE53B600914F53B120CB7C8
:100A3400EF60F3EA30E702F404C3995077EAF4254F
:100A44003B0430E701E404F53B800D120C1060C157
:100A5400EA053B253B120304EA7838F630E701E463
:100A6400253B04D53B0420050114120C2DE4C0E001
:100A7400120CB77838E6601320E70714F61208B7AB
:100A8400802204F6D0E014C0E07F001208B7E53BF2
:100A940060071208AE153B800B3005031208AED078
:100AA400E0020908D0E00480C5120C1060A0E53B08
:100AB400041203047838EAF6E53B200502600104D9
:050AC4002404120C2DBA
:100AC90074FF04C0E0120CB71208B7E53B20050219
:100AD90060031208AED0E0B53BE87F451208C17843
:100AE90038E67F2B30E7047F2DF404C0E01208CFED
:100AF900D0E075F00A84C0F01208B8D0E01208B846
:100B0900020908791080027908C206C2088008D251
:100B1900D5790A8004790AC2D5E53B047002F53B10
:100B2900E4FAFDFEFF120894FC7B08200113120869
:100B390094FD7B1030000A120894FE120894FF7B82
:100B490020EC3382D592D55013C3E43000069FFFC1
:100B5900E49EFEE42001039DFDE49CFCE4CBF8C285
:100B690001EC700CCFCECDCCE824F8F870F38017E7
:100B7900C3EF33FFEE33FEED33FDEC33FCEB33FB18
:100B8900994002FB0FD8E9EB300105F8D0E0C448E1
:100B9900B201C0E00AEC4D4E4F78207B0070C2EAEA
:100BA900B53B0040BCC0E0120C2FD0F0D0E02001D2
:100BB90004C4C0E0C4B201C0F01208B8D0F0D5F046
:100BC900EB0209081206A709A5530B0C5809764C24
:100BD9000972420B104F0B18440B1849098B430B30
:100BE9001E550A4F460AAD450A19470CE450097AC1
:100BF9002D097E2E09A12B098223099F200CCD2ABC
:100C0900093A4800000999E53BB4FF03753B061210
:100C19000894FC120894FD120894FE120894FF78B7
:100C290031020333790AA2D5200314300509B9101A
:100C3900020404B9080104A2D520060250010420C7
:100C490002689202B53A005034C0E07F203003199F
:100C59007F30A20272067205500F120C86C202C2C0
:100C690006C205C2087F30800F300503E9C0E012D3
:100C790008CF300503D0E0F9D0E0B53ACC300517FC
:100C89007F30B9100C1208CF7F583004077F788065
:100C990003B908031208CF3002057F2D0208CF7F60
:100CA900202008F87F2B2006F322920280CF7F00B4
:100CB900B4070050052431F8E6FF22286E756C6CE4
:100CC9002900D2011208943001F8C201783A30D5CE
:100CD9000108F602093A2D50434958120894240391
:100CE900B405004001E4900CDF931208C0743A1275
:0A0CF90008C0D203753A04020B0C88
:1002BA00E9D2E7C933E833F892D5EDD2E7CD33EC8A
:0702CA0033FC5002B2D52203
:1002D100EC30E7100FBF000C0EBE00080DBD00048E
:1002E1000BEB6014A2D5EB13FCED92E7FD2274FF3A
:1002F100FCFDFEFF22E480F8A2D574FF13FC7D8093
:03030100E480EFA6
:10030400F920E72824F950037907E4F42402FB18C0
:10031400DBFDE624FB5014E9600DE4F618E604F670
:0F032400B40A08E4F6D9F57401F60A22C2D5220C
:10033300ED33EC3392D5FA602AB4FF33EDC2E77B99
:10034300FF60067A037958E4227A03796120D504A1
:100353007A03795C224E614E002B494E46002D49AB
:100363004E4600E47A08F608DAFC7B00740722E8BC
:10037300C0E0ECC0E0EDC0E0EEC0E0EFC0E0EA7545
:10038300F010A4CAABF075F04DA42BFBE435F0FCE0
:10039300EA2410FAEB34C5FBEC34D9FCEDC2E7FFD9
:1003A30075F056A4F42411C5F0F434C58FF0A42AD3
:1003B300E5F03BE43CF620E71412055ED0E0FFD005
:1003C300E0FED0E0FDD0E0FC12012F8014F4041213
:1003D300055ED0E0FFD0E0FED0E0FDD0E0FC1200EF
:1003E30026D0E0F8E6FAEDD2E7CD33EC332482FBF6
:1003F300E4C3CF33CFCE33CECD33CD33DBF37B0763
:1004030075F00A846004F6081B0AE5F0F6088FF01D
:10041300740AA4FFACF08EF0740AA42CFEACF05066
:10042300010C8DF0740AA42CFDE435F0F608DBDE34
:0304330074072229
:100436000202EFE86480F8E933E83360110460F003
:10044600ED33EC337009E8FCE9FDEAFEEBFF22042C
:1004560060DED3EB9FEA9EE99DE8C2E78CF0C2F727
:1004660095F0400CE8CCF8E9CDF9EACEFAEBCFFBF3
:100476001202BA85D0F05804700320D5B3E8047090
:10048600075002B2D50202F992D5EC0460F7E4CC2B
:10049600C0E0C398F8603B94186008400DD0E0FBBC
:1004A6000202D1E4FBFAC9FC8028E830E406E4C97C
:1004B600FBE4CAFCE830E305E4C9CACBFCE8540710
:1004C6006010F8C3E913F9EA13FAEB13FBEC13FC1B
:1004D600D8F130F52FC3E49CFCEF9BFFEE9AFEEDBE
:1004E60099FDD0E0FBEF4E4D4C701222DB03020269
:1004F600F6EC2CFCEF33FFEE33FEED33FDED30E78B
:10050600EB0202D1EF2BFFEE3AFEED39FDD0E0FB18
:1005160050130BBB00030202F9ED13FDEE13FEEFC1
:0805260013FFEC13FC0202D1EB
:10052E003F8000004120000042C80000447A0000D5
:10053E00461C400047C35000497424004B18968057
:10054E004CBEBC205A0E1BCA6753C21C749DC5AE4E
:10055E00FB60065407601C232312058CEB54386095
:10056E0009120578120587120026ECF8EDF9EEFA5D
:10057E00EFCB22EB12058780F1543803241C900533
:10058E002EFE93FC0EEE93FD0EEE930ECE93FF22F7
:100EB4000213BCE493A3F8E493A34003F68001F285
:100EC40008DFF48029E493A3F85407240CC8C3333F
:100ED400C4540F4420C8834004F456800146F6DF0E
:100EE400E4800B0102040810204080901071E47E1D
:100EF400019360BCA3FF543F30E509541FFEE49303
:100F0400A360010ECF54C025E060A840B8E493A3C9
:100F1400FAE493A3F8E493A3C8C582C8CAC583CAF4
:100F2400F0A3C8C582C8CAC583CADFE9DEE780BEAC
:0110D100001E
:10059E00BB010689828A83E0225002E722BBFE025B
:0905AE00E32289828A83E493228E
:1005B700BB010CE58229F582E5833AF583E02250F9
:1005C70006E92582F8E622BBFE06E92582F8E22243
:0D05D700E58229F582E5833AF583E493225D
:1005E400BB010689828A83F0225002F722BBFE01F6
:0205F400F322F0
:1005F600BC000BBE0029EF8DF084FFADF022E4CCE9
:10060600F875F008EF2FFFEE33FEEC33FCEE9DECB1
:10061600984005FCEE9DFE0FD5F0E9E4CEFD22EDF7
:10062600F8F5F0EE8420D21CFEADF075F008EF2F41
:10063600FFED33FD4007985006D5F0F222C398FD32
:050646000FD5F0EA22CF
:0E064B00C3E49FFFE49EFEE49DFDE49CFC22C0
:0C065900E6FC08E6FD08E6FE08E6FF22CD
:0D066500E6FB08E6F908E6FA08E6CBF82205
:0C067200ECF608EDF608EEF608EFF622B4
:10067E00D083D082E493F608740193F60874029343
:09068E00F608740393F67404737A
:10069700FAE6FB0808E6F925F0F618E6CA3AF62264
:1006A700D083D082F8E4937012740193700DA3A3E2
:1006B70093F8740193F5828883E4737402936860F6
:0606C700EFA3A3A380DFF6
:1006CD00E3F5F009E208B5F06D606B80F3E3F5F04A
:1006DD0009E608B5F060605E80F387F009E608B5BD
:1006ED00F054605280F487F009E208B5F048604696
:1006FD0080F488828C8387F009E0A3B5F0386036EA
:10070D0080F488828C8387F009E493A3B5F0276089
:10071D002580F388828C83E3F5F009E0A3B5F0160C
:10072D00601480F388828C83E3F5F009E493A3B51C
:10073D00F004600280F20207F8808580E7808E80E9
:10074D00D2803C8015806C807E809B80B5808B80B4
:10075D00A1804F8070803A02080489828A83ECFA66
:10076D00E493F5F0A3C8C582C8CCC583CCE493A3AC
:10077D00C8C582C8CCC583CCB5F070606E80E189E8
:10078D00828A83E493F5F0A3E208B5F05E605C80A5
:10079D00F289828A83E0F5F0A3E608B5F04D604B4F
:1007AD0080F389828A83E0F5F0A3E208B5F03C601E
:1007BD003A80F389828A83E493F5F0A3E608B5F0D5
:1007CD002A602880F2805389828A83ECFAE493F5BB
:1007DD00F0A3C8C582C8CCC583CCE0A3C8C582C868
:1007ED00CCC583CCB5F004600280E27FFFB5F0028A
:1007FD000F2240027F012289828A83ECFAE0F5F014
:10080D00A3C8C582C8CCC583CCE0A3C8C582C8CC5B
:10081D00C583CCB5F0D560D380E389828A83ECFAA9
:10082D00E0F5F0A3C8C582C8CCC583CCE493A3C8BA
:10083D00C582C8CCC583CCB5F0B160AF80E288F07D
:10084D00ED2402B4040050A3F582EB2402B404009D
:0B085D00509923234582239007467327
:10086800EF4E6012EF60010EEDBB010B89828A83A7
:10087800F0A3DFFCDEFA2289F05007F709DFFCA9B4
:0C088800F022BBFEFCF309DFFCA9F0220B
:00000001FF
