:1002070001270001210001280008180A0A0A0A0A22
:100217000A0A0A0808000000000000000008100190
:0C022700000100000100010322235954D3
:10038D00E527701A7527011201948F26E52565263C
:0F039D00FF5526F520E526F45FF5298526252254
:10029300E52170367521017B007A00792212036C07
:1002A300E522C4540FF518E522540FF519E523C4CC
:1002B300540FF51BE523540FF51CE524C4540FF527
:0B02C3001EE524540FF51F85201A22B1
:0100030022DA
:03000B0002009A56
:10009A00C0E0C0F0C083C082C0D075D000C000C02C
:1000AA0001C002C003C004C005C006C0070527E599
:1000BA0027B405037527000521AF217E00BE01067E
:1000CA00BFF4037521000528E528B4080375280044
:1000DA0074182528F8E6FD7C0074082528F8E6FB44
:1000EA007A00AF2812025174102528F8E6FD7C0028
:1000FA00AF281202CED007D006D005D004D003D044
:10010A0002D001D000D0D0D082D083D0F0D0E0325B
:1003C900538E7F5389F0758A18758CFCC28DD28C37
:0503D900D2A9D2AF2201
:0F0405001203AC1203C97B007A00792202033D77
:0E04140012040512038D12029312000380F5EC
:06023300013D00013EFF49
:1002CE00ED4C600F7401A807088002C333D8FC42BE
:1002DE003D800E7401A807088002C333D8FCF45287
:1002EE003DE53D653E6013E53DF4F580E5A0541F08
:0A02FE004480F5A053A01F853D3E8B
:0103080022D2
:10019400E4FFC2C4D2C2D2B5D2B420B3027F0420D9
:1001A400B2027F0520B1027F0620B0027F07D2C4CD
:1001B400C2C2D2B5D2B420B3027F0820B2027F09F2
:1001C40020B1027F0A20B0027F0BD2C4D2C2C2B5D2
:1001D400D2B420B3027F0C20B2027F0D20B1027F83
:1001E4000E20B0027F0FD2C4D2C2D2B5C2B420B3A3
:1001F400027F1020B2027F1120B1027F1220B002D0
:020204007F1366
:0102060022D5
:100239000B2AC0F9A4B0999282F88090FF08350181
:0702490002040810204080B0
:100251007580FFE5A0541F44E0F5A053A01F74353D
:100261002FF8E6F580E5A0541F44C0F5A053A01F68
:10027100EB4A600B742A2DF8E6547FF580800774F1
:100281002A2DF8E6F580E5A0541F44E0F5A053A01F
:020291001F222A
:1003AC007580FFE5A0541F4480F5A053A01FE4F511
:0D03BC0080E5A0541F44A0F5A053A01F220F
:1003F200E4FEC297EF1392A3EFC313FFD2970EBE90
:0204020008F000
:0104040022D5
:1003DE00C29300C29700D293001203F2AF0512032C
:0403EE00F2C29322A2
:10030900E4FDC29300C29700D293001203F2E4FF06
:10031900C297EDC313FD30A303430580D2970FBFE6
:1003290008EEC29300C29700D29700C2A300D2A3DD
:0303390000AF050D
:01033C00229E
:10033D00E4FD7F8E1203DE12011AFD7F841203DEAF
:10034D00900001120133FD7F821203DE9000021234
:0F035D000133FD7F801203DE7D807F8E0203DE81
:10036C007F85120309EF1201607F8312030990004D
:10037C0001EF1201727F81120309900002EF02015A
:01038C0072FE
:0300000002000EED
:0C000E00787FE4F6D8FD75813E020055B5
:10011A00BB010689828A83E0225002E722BBFE02E3
:09012A00E32289828A83E4932216
:10013300BB010CE58229F582E5833AF583E0225081
:1001430006E92582F8E622BBFE06E92582F8E222CB
:0D015300E58229F582E5833AF583E49322E5
:10016000BB010689828A83F0225002F722BBFE017E
:02017000F32278
:10017200F8BB010DE58229F582E5833AF583E8F0C3
:10018200225006E92582C8F622BBFE05E92582C86F
:02019200F22257
:10001A00020414E493A3F8E493A34003F68001F2E4
:10002A0008DFF48029E493A3F85407240CC8C333E7
:10003A00C4540F4420C8834004F456800146F6DFB6
:10004A00E4800B0102040810204080900207E47E3D
:10005A00019360BCA3FF543F30E509541FFEE493AB
:10006A00A360010ECF54C025E060A840B8E493A372
:10007A00FAE493A3F8E493A3C8C582C8CAC583CA9D
:10008A00F0A3C8C582C8CAC583CADFE9DEE780BE55
:0102500000AD
:00000001FF
