:1008A300081B0A0A0A0A0A0A0A0A080900000000C1
:1008B30000000000081300000000000000000129F0
:1008C30000012500010801012D010211000001337F
:0708D30000042F00000000EB
:10084900E5287055752801120A718F27E526652755
:10085900FF5527F523E527F45FF52E852726E523A0
:1008690024FB601514601D1460252403702B0508F2
:10087900E50864027023F50822052DE52DB4021957
:10088900E4F52D220525E525B4020EE4F52522051A
:0A08990029E529B40203E4F5292241
:10042D00E4F549E5246003020611752401E52D70FC
:10043D00217F431209DB8F33AC33E4120247E4FB17
:10044D00FA794C78421201278F328E318D308C2FF4
:10045D00802BE4F532F531F530752F40FBFA79A09C
:10046D007840AF32AE31AD30AC2F120127E4FBFA3C
:10047D00797F784312001E12027B120A9DE52960D6
:10048D00030205F9E50814700302058B04600302ED
:10049D000611E4F50E751B0B751C0AAE2BAF2CFC6B
:1004AD00FD7BA07A867901F81208F4E47B0AFAF94B
:1004BD00F81208F4AC00AD01AE02AF03EC4D4E4F97
:1004CD00601EAE2BAF2CE4FCFD7BA07A867901F883
:1004DD001208F4E47B0AFAF9F81208F4AF0380026B
:1004ED007F0A8F1DAE2BAF2C7C277D101202FC7C5A
:1004FD00007D0A1202FCED4C6004AF0580027F0AFC
:10050D008F1EAE2BAF2C7C037DE81202FC7C007D90
:10051D000A1202FCED4C6004AF0580027F0A8F1FAA
:10052D00AE2BAF2C7C007D641202FC7C007D0A1288
:10053D0002FCED4C6004AF0580027F0A8F20AE2BCC
:10054D00AF2C7C007D0A1202FC7C007D0A1202FC9D
:10055D00ED4C6004AF0580027F0A8F21AE2BAF2CCE
:10056D007C007D0A1202FCED4C6004AF0580027F19
:10057D000A8F227549020549E549B408F922751B10
:10058D000C751C0A751D0A751E0A751F0AE4FFFEFF
:10059D007DC87C42AB32AA31A930A82F12001E12A1
:1005AD00027BAB07AA067C007D641202FC7C007DF9
:1005BD000A1202FC8D20750E017C007D0AAF03AE80
:1005CD00021202FC7C007D0A1202FC8D21E4FFFE6A
:1005DD007DC87C42AB32AA31A930A82F12001E1261
:1005ED00027B7C007D0A1202FC8D2222E4F5497407
:1005FD001B2549F8760A74092549F8E4F60549E5FD
:04060D0049B408EBF9
:0106110022C6
:10061200E4F549E5256003020709E5087007F513CB
:100622007514018006751301E4F514E4FFFE7DC024
:100632007C3FAB32AA31A930A82F1201C4500280EC
:1006420052E4FFFE7DC07C3FAB32AA31A930A82F15
:100652001201C44016E4FFFE7D207C40AB32AA3179
:10066200A930A82F1201C450028041E4FFFE7D2070
:100672007C40AB32AA31A930A82F1201C44019E440
:10068200FFFE7D607C40AB32AA31A930A82F120157
:10069200C45005E4F5158017E4FFFE7D607C40AB95
:1006A20032AA31A930A82F1201C44003751501C323
:1006B200E52C94E8E52B94035002802CC3E52C949E
:1006C200E8E52B9403400CE52C9488E52B94135019
:1006D200028025C3E52C9488E52B9413400FE52C6A
:1006E2009410E52B94275005E4F516800EC3E52CF3
:1006F2009410E52B94274003751601E52D700475BF
:10070200170122E4F51722E4F54974132549F8E4A8
:08071200F60549E549B408F2BF
:01071A0022BC
:100A8800538EBF53890F758B18758DFCC28FD28E0C
:050A9800D2ABD2AF2239
:03001B0002071BBE
:10071B00C0E0C0F0C083C082C0D075D000C000C0A4
:10072B0001C002C003C004C005C006C0070528E510
:10073B0028B414037528000524E524B4C8037524D4
:10074B0000052AE52AB40803752A00741B252AF82C
:10075B00E6FD7C007409252AF8E6FB7A00AF2A1225
:10076B0009387413252AF8E6FD7C00AF2A12097AA2
:10077B000512E51270020511FFAE11BE0319BFE899
:10078B0016751100751200AF8CEFAD8AF52BEDF5D8
:10079B002C758A00758C00D007D006D005D004D0FC
:1007AB0003D002D001D000D0D0D082D083D0F0D0F3
:0207BB00E0322A
:100AB200538E7F5389F0438905E4F58AF58CC28D04
:030AC200D28C22B1
:090AEE00120A00120A88020AB281
:0E0AD400120AEE12084912042D12061280F5C5
:100A00007580FFE5A0541F4480F5A053A01FE4F5B6
:0D0A100080E5A0541F44A0F5A053A01F22B4
:100A7100E4FF20B3027F0420B2027F0520B1027F90
:060A81000620B0027F0711
:010A8700224C
:10097A00E4FE7BFFED4C600F7401A807088002C3F8
:10098A0033D8FC4206800E7401A807088002C333DC
:10099A00D8FCF45206EEF4F580E5A0541F4480F525
:0409AA00A053A01F97
:0109AE002226
:1008DA000D34C0F9A4B0999282F88090FF8EC108B5
:0908EA00410102040810204080C5
:100938007580FFE5A0541F44E0F5A053A01F744143
:100948002FF8E6F580E5A0541F44C0F5A053A01F7A
:10095800EB4A600B74342DF8E6547FF580800774F9
:10096800342DF8E6F580E5A0541F44E0F5A053A027
:020978001F223C
:040A5700D2A07F0AA0
:100A5B00000000000000000000000000000000AEDD
:060A6B00071FEE70EB22F4
:0F0AC500D2A1120A57C2A17F0A120A5BC2A02255
:0C0AE200C2A1120A57D2A17F0A020A5BCF
:0209AF00AD0792
:1009B100E4FCC2A07F0A120A5BED30E704D2A180F9
:1009C10002C2A17F0A120A5BD2A0ED25E0FD7F0AD7
:0909D100120A5B0CBC08DBC2A099
:0109DA0022FA
:100A1D00E4FC120A57ED25E0FD30A103430501C2A8
:0C0A2D00A07F0A120A5B0CBC08E8AF05B1
:010A3900229A
:0B0A3A001209AF120A45AF031209AF0A
:100A4500120A57A2A1E433FDC2A07F0A120A5BAFC6
:010A5500059B
:010A5600227D
:10000300C2A0EF24FF92A17F0A120A5B120A57C211
:08001300A0D2A17F0A020A5BE2
:0209DB00AB0768
:1009DD00120AC57F90120A3A120AC57F911209AF09
:1009ED00120A45120A1DAD077F01120003120AE219
:0209FD00AF0544
:0109FF0022D5
:100A9D00AB07120AC57F901209AF120A457F4112AA
:050AAD000A3A020AE212
:10001E00EC4D6011E8497017ED33EC3304600DE4DC
:10002E00FCFFFEFD22E933E8330470F80202E7120A
:10003E0002B258046009E4CC24815006285009020B
:10004E0002F12840030202EEC0E0EB4A7044B98090
:10005E0006D0E0FB0202DDEF4E701CBD8008EBFF08
:10006E00EAFEE9FD80EBE98DF0A4FEE5F002010762
:10007E00E9CDF9EAFEEBFFEF89F0A4FCE5F0CE89BD
:10008E00F0A42EFFE435F0CD89F0A42DFEE435F07A
:10009E008067EF4E7005BD80D780C3EF8BF0A4ACA8
:1000AE00F0EE8BF0A42CFCE435F0F8EF8AF0A42CE3
:1000BE00E5F038FCE433CB8DF0A42CFCE5F03BF8F6
:1000CE00EE8AF0A42CFCE5F038F8E433CF89F0A4E6
:1000DE002CFCE5F038CF3400CE89F0A42FFFE5F0EC
:1000EE003EFEE433C98DF0A42EFEE5F039CD8AF044
:1000FE00A42FFFE5F03EFEE43DFD33D0E0FB5007BC
:10010E000BBB000F0202F1EC2CFCEF33FFEE33FEC3
:06011E00ED33FD0202C9F1
:100124000202F1EC5D046005E8590470030202E781
:100134001202B2580460F6EC4860F2EC7004FDFE62
:10014400FF22C860DB2481C85009C39860025006AE
:100154000202EE9850CAF582E9294B4A7005AB8237
:100164000202DD75F0007C1A7880C3EF9BEE9AEDF5
:1001740099400DC3EF9BFFEE9AFEED99FDE842F026
:10018400DC23ACF0D0E0FFD0E0FED0E0FDAB822079
:10019400E7101BEB60BAEC2CFCEF33FFEE33FEED03
:1001A40033FD0202C9E803F830E705C0F075F0003A
:1001B400EF2FFFEE33FEED33FD40B830E7C280AAE7
:1001C40074F8CC6480CCC86480C8F58204604FC3E2
:1001D400EB9FF5F0EA9E42F0E99D42F0E89C45F081
:1001E400603C501DE5825FFFE582D313CB5BCBF40B
:1001F4002B5582FB50280ABA002409B90020088034
:100204001DE5825BFBE582D313CF5FCFF4C3132FCD
:100214005582FF50090EBE00050DBD00010CC3EB55
:100224009FF5F0EA9E42F0E99D42F0E89C45F060BB
:0902340007CC4820E701B3EC22DD
:10023D0075F020800E75F010800575F0087D007E3C
:10024D00007F003392D530D503120351EC334010AB
:10025D00EF33FFEE33FEED33FDEC33FCD5F0ED2245
:0E026D00E5F0247EA2D513CC92E7CDCEFF2281
:10027B00EDD2E7CD33EC3392D524814006E4FFFE7B
:10028B00FDFC22FCE4CFCECDCC24E0501174FF80DA
:10029B00EDC3CC13CCCD13CDCE13CECF13CF047077
:0702AB00F030D5DE02035123
:1002B200E9D2E7C933E833F892D5EDD2E7CD33EC92
:0702C20033FC5002B2D5220B
:1002C900EC30E7100FBF000C0EBE00080DBD000496
:1002D9000BEB6014A2D5EB13FCED92E7FD2274FF42
:1002E900FCFDFEFF22E480F8A2D574FF13FC7D809B
:0302F900E480EFAF
:030000000207BD37
:0C07BD00787FE4F6D8FD7581490208043D
:1002FC00BC000BBE0029EF8DF084FFADF022E4CCE6
:10030C00F875F008EF2FFFEE33FEEC33FCEE9DECAE
:10031C00984005FCEE9DFE0FD5F0E9E4CEFD22EDF4
:10032C00F8F5F0EE8420D21CFEADF075F008EF2F3E
:10033C00FFED33FD4007985006D5F0F222C398FD2F
:05034C000FD5F0EA22CC
:1008F400C2D5E830E70FB2D5E4C39BFBE49AFAE42F
:1009040099F9E498F8EC30E717B2D512092A1203E2
:100914009BE4C39BFBE49AFAE499F9E498F8800316
:1009240012039B30D50DE4C39FFFE49EFEE49DFDBE
:04093400E49CFC2221
:0E035100C3E49FFFE49EFEE49DFDE49CFC22BD
:1007C900020AD4E493A3F8E493A34003F68001F268
:1007D90008DFF48029E493A3F85407240CC8C33331
:1007E900C4540F4420C8834004F456800146F6DF00
:1007F900E4800B01020408102040809008A3E47EE5
:10080900019360BCA3FF543F30E509541FFEE493F4
:10081900A360010ECF54C025E060A840B8E493A3BB
:10082900FAE493A3F8E493A3C8C582C8CAC583CAE6
:10083900F0A3C8C582C8CAC583CADFE9DEE780BE9E
:0108F3000004
:10035F0075F008758200EF2FFFEE33FECD33CDCC55
:10036F0033CCC58233C5829BED9AEC99E5829840D8
:10037F000CF582EE9BFEED9AFDEC99FC0FD5F0D6B5
:10038F00E4CEFBE4CDFAE4CCF9A88222B800C1B9DF
:10039F000059BA002DEC8BF084CFCECDFCE5F0CB1D
:1003AF00F97818EF2FFFEE33FEED33FDEC33FCEB56
:1003BF0033FB10D703994004EB99FB0FD8E5E4F911
:1003CF00FA227818EF2FFFEE33FEED33FDEC33FCFE
:1003DF00C933C910D7059BE99A4007EC9BFCE99AF2
:1003EF00F90FD8E0E4C9FAE4CCFB2275F010EF2F37
:1003FF00FFEE33FEED33FDCC33CCC833C810D70737
:10040F009BEC9AE899400AED9BFDEC9AFCE899F871
:0E041F000FD5F0DAE4CDFBE4CCFAE4C8F92204
:00000001FF
