:030000000209747E
:0C097400787FE4F6D8FD7581660209BBAF
:100A5E00084B0A0A0A0A0A0A0A0A083300000000AA
:100A6E0000000000016200013100083B00000000A0
:0D0A7E0000000000013200044741C80000E4
:1008E300785BE66003020973785B7601120AB878D5
:1008F3005AA607E6FF1866FE5FFF7853F6785AE6B6
:10090300FDF45E7861F67859A605EF24F8601114BA
:1009130060362405705A783206E664037052F62274
:100923007832E6640270497847FFFE7D807CBF120F
:1009330003AAE4FBFA799878411202BC7032784733
:100943001204CB420C0000227832E6B4022278472C
:100953007F007E007D807C3F1203AAE4FBFA7910BE
:1009630078421202BC700978471204CB41A0000000
:010973002261
:1005B2007858E660030207EE78587601120C0C7840
:1005C200431204BF785DE6FE08E6FFD394C8EE94BA
:1005D20000402FEF94D0EE94075027E62438FD1800
:1005E200E634FFFCE412033AE4FBFA79E1784312C1
:1005F200021FE4FBFAF9783F12002578541204BF77
:10060200802C785DE6FA08E6FBC394C8EA940050B1
:100612000B78541204CB3F0000008012D3EB94D02D
:10062200EA9407400978541204CB40900000E4FF9A
:10063200FE7D4C7C4278541204B2120116120373EE
:10064200120E287832E614700302071C147003029B
:10065200078C240260030207EE784B760B08760AB9
:10066200785DE6FE08E6FFE4FCFD7BA07A86790170
:10067200F8120B09E47B0AFAF9F8120B09AF0378B6
:100682004DA607785DE6FA08E6FB7C277D10FFAEF3
:10069200021204437C007D0A120443784EA6057CB4
:1006A200037DE8AF03AE021204437C007D0A12040C
:1006B20043784FA605785DE6FA08E6FB7C007D6488
:1006C200FFAE021204437C007D0A1204437850A656
:1006D200057C007D0AAF03AE021204437C007D0A52
:1006E2001204437851A605785DE6FE08E6FF7C0019
:1006F2007D0A1204437852A605786676027866E689
:10070200FFC3940740030207EE744B2FF8E6600321
:100712000207EE760A78660680E3784B760C784F0D
:10072200760A18760A18760A18760AE4FFFE7D2001
:100732007C4178431204B21202BC50047F0A801337
:1007420078431204A6120373EF75F00A8475F00A57
:1007520084AFF07850A60778431204A6120373EF11
:1007620075F00A847851A6F078397601E4FFFE7DAF
:10077200207C4178431204B21201161203737C00EA
:100782007D0A1204437852A60522E47839F6784BA2
:10079200760D784F760A18760A18760A18760A784D
:1007A200471204A6120373EF75F0648475F00A848D
:1007B2007850A6F0EF75F00A8475F00A8408A6F066
:1007C20078471204A6120373EF75F00A847852A6D2
:1007D200F0786676057866E6FFC39407500E744B90
:0D07E2002FF8E67007760A78660680E92297
:100A0000E47862F67832E6FF70047E0180027E00B0
:100A1000783BA606EFB401047F0180027F00783C9A
:100A2000A60778471204A678431204B21202BC60EB
:100A30000640047F0180027F007831A607E4FFFEB4
:100A40007DF07C4178431204B21202BC6009400779
:0E0A5000A202E433FF80027F007842A6072254
:100E3D00538E7F5389F0438905E4F58AF58CC28D75
:030E4D00D28C2222
:100E1300538EBF53890F758B18758DFCC28FD28E7D
:050E2300D2ABD2AF22AA
:03001B000207EFEA
:1007EF00C0E0C0F0C083C082C0D075D000C000C0D0
:1007FF0001C002C003C004C005C006C007785B0675
:10080F00E6B414027600785806E6B45A02760078F9
:10081F005F0806E618700106860664644E702A7833
:10082F005FF608F6AF8CEFAD8A785DF6ED08F61837
:10083F00E6FE08E6FF7C007D0A120431785DA6060D
:10084F0008A607758A00758C00E4FFFE7DF07C41D9
:10085F0078431204B21202BC601C401A7863080677
:10086F00E618700106860664644E700A7863F6080F
:10087F00F6A202B39202785C06E6B408027600781C
:10088F005CE6FF244BF8E6FD7C00785CE62433F849
:10089F00E6FB7A00120B4D785CE6FF243BF8E6FD91
:1008AF007C00120BD17862E624FF9201120D0F78B3
:1008BF0031E624FF9201120D32D007D006D005D0B9
:1008CF0004D003D002D001D000D0D0D082D083D0BA
:0408DF00F0D0E03243
:10000300120C0CE4FBFA79AA78421202BC60F112DA
:080013000D73120E3D020E13E5
:0E0E5F001200031208E31205B2120A0080F519
:100D73007580FFE5A0541F4480F5A053A01FE4F540
:0D0D830080E5A0541F44A0F5A053A0A022BD
:100AB800E4FFC2C4D2C2D2B520B3027F0420B2027E
:100AC8007F0520B1027F0620B0027F07D2C4C2C2D0
:100AD800D2B520B3027F0820B2027F0920B1027F7D
:100AE8000A20B0027F0BD2C4D2C2C2B520B3027FA3
:100AF8000C20B2027F0D20B1027F0E20B0027F0FC2
:010B080022CA
:100A8B000121000122FF0123000124FF01250001A8
:020A9B0026FF34
:100BD100ED4C600F7401A807088002C333D8FC42B2
:100BE10021800E7401A807088002C333D8FCF45297
:100BF10021E52165226013E521F4F580E5A0541F6C
:0A0C01004480F5A053A01F852122B6
:010C0B0022C6
:100D0F0030010543234080035323BFE5236524604F
:100D1F0011852380E5A0541F44A0F5A053A01F8583
:020D2F0023247B
:010D3100229F
:100D320030010543251080035325EFE52565266024
:100D420011852580E5A0541F44A0F5A053A01F855E
:020D5200252654
:010D5400227C
:100A9D000E08C0F9A4B0999282F88090FF8CC6C15F
:0A0AAD000816010204081020408022
:100B4D007580FFE5A0541F44E0F5A053A01F741657
:100B5D002FF8E6F580E5A0541F44C0F5A053A01F63
:100B6D00EB4A600B74082DF8E6547FF5808007740E
:100B7D00082DF8E6F580E5A0541F44E0F5A053A03C
:020B8D001F2225
:040DAD00D2A07F0A47
:100DB100000000000000000000000000000000AE84
:060DC100071FEE70EB229B
:0F0E5000D2A1120DADC2A17F0A120DB1C2A02214
:0C0E6D00C2A1120DADD2A17F0A020DB18E
:020C7300AD07CB
:100C7500E4FCC2A07F0A120DB1ED30E704D2A180D9
:100C850002C2A17F0A120DB1D2A0ED25E0FD7F0AB7
:090C9500120DB10CBC08DBC2A079
:010C9E002233
:100D9000E4FC120DADED25E0FD30A103430501C2D9
:0C0DA000A07F0A120DB10CBC08E8AF05E2
:010DAC002224
:100CEB00AB05120E507FA0120C73120CFDAF03124A
:020CFB000C7378
:100CFD00120DADA2A1E433FDC2A07F0A120DB1AF5A
:010D0D0005E0
:010D0E0022C2
:100DFB00C2A0EF24FF92A17F0A120DB1120DADC25A
:080E0B00A0D2A17F0A020DB183
:020CC600AB077A
:100CC800120E507F90120CF2120E507F91120C737C
:100CD800120CFD120D90AD077F01120DFB120E6D67
:020CE800AF0556
:010CEA0022E7
:100E2800AB07120E507F90120C73120CFD7F41120B
:050E38000CF2020E6D3A
:100B8F008B278A288929120CEB120E507FA1120C89
:100B9F0073120CFDAF2B152BEF6024120D90AB27AA
:100BAF000529E529AA287002052814F9EF12041F58
:100BBF00E52B6004E4FF80027F01120DFB80D5025C
:020BCF000E6DA9
:100C41008B2C8A2D892E120CEBAF301530EF601FE3
:100C5100AB2C052EE52EAA2D7002052D14F91204D8
:100C610006FF120C73120CFD7FC8120DB180DA025F
:020C71000E6D06
:040DC7007F057E0026
:100DCB00EF1FAA0670011E4A600BE4FDEDC3940CE5
:050DDB0050EE0D80F751
:010DE00022F0
:020D5500A907EC
:100D5700E4FBC294E9139294120DC7D294E9C3132A
:0C0D6700F90BBB08ED7F057E00020DCBF0
:100DE100E4FBC294ECC313FCD2943094034304801B
:090DF100120DC70BBB08EBAF04A7
:010DFA0022D6
:100C9F00C200D2947F0C7E00120DCBC2947F507E87
:100CAF0000120DCBD2947F0A7E00120DCBA294922C
:060CBF0000120DC7A200A7
:010CC500220C
:100C0C00120C9F7FCC120D557F44120D55120C9F68
:100C1C007FCC120D557FBE120D55120DE1A9071296
:100C2C000DE1EFAD01FCE412033AE4FBFA798078B4
:040C3C004112021F40
:010C40002291
:10001E000203F1E86480F8E933E83360110460F01C
:10002E00ED33EC337009E8FCE9FDEAFEEBFF220448
:10003E0060DED3EB9FEA9EE99DE8C2E78CF0C2F743
:10004E0095F0400CE8CCF8E9CDF9EACEFAEBCFFB0F
:10005E001203BC85D0F05804700320D5B3E80470A9
:10006E00075002B2D50203FB92D5EC0460F7E4CC44
:10007E00C0E0C398F8603B94186008400DD0E0FBD8
:10008E000203D3E4FBFAC9FC8028E830E406E4C995
:10009E00FBE4CAFCE830E305E4C9CACBFCE854072C
:1000AE006010F8C3E913F9EA13FAEB13FBEC13FC37
:1000BE00D8F130F52FC3E49CFCEF9BFFEE9AFEEDDA
:1000CE0099FDD0E0FBEF4E4D4C701222DB03020384
:1000DE00F8EC2CFCEF33FFEE33FEED33FDED30E7A5
:1000EE00EB0203D3EF2BFFEE3AFEED39FDD0E0FB32
:1000FE0050130BBB00030203FBED13FDEE13FEEFDB
:08010E0013FFEC13FC0203D304
:10011600EC4D6011E8497017ED33EC3304600DE4E3
:10012600FCFFFEFD22E933E8330470F80203F11206
:1001360003BC58046009E4CC248150062850090207
:1001460003FB2840030203F8C0E0EB4A7044B98081
:1001560006D0E0FB0203E7EF4E701CBD8008EBFF04
:10016600EAFEE9FD80EBE98DF0A4FEE5F00201FF71
:10017600E9CDF9EAFEEBFFEF89F0A4FCE5F0CE89C4
:10018600F0A42EFFE435F0CD89F0A42DFEE435F081
:100196008067EF4E7005BD80D780C3EF8BF0A4ACAF
:1001A600F0EE8BF0A42CFCE435F0F8EF8AF0A42CEA
:1001B600E5F038FCE433CB8DF0A42CFCE5F03BF8FD
:1001C600EE8AF0A42CFCE5F038F8E433CF89F0A4ED
:1001D6002CFCE5F038CF3400CE89F0A42FFFE5F0F3
:1001E6003EFEE433C98DF0A42EFEE5F039CD8AF04B
:1001F600A42FFFE5F03EFEE43DFD33D0E0FB5007C3
:100206000BBB000F0203FBEC2CFCEF33FFEE33FEBF
:06021600ED33FD0203D3ED
:10021C000203FBEC5D046005E8590470030203F172
:10022C001203BC580460F6EC4860F2EC7004FDFE5E
:10023C00FF22C860DB2481C85009C39860025006B5
:10024C000203F89850CAF582E9294B4A7005AB8233
:10025C000203E775F0007C1A7880C3EF9BEE9AEDF1
:10026C0099400DC3EF9BFFEE9AFEED99FDE842F02D
:10027C00DC23ACF0D0E0FFD0E0FED0E0FDAB822080
:10028C00E7101BEB60BAEC2CFCEF33FFEE33FEED0A
:10029C0033FD0203D3E803F830E705C0F075F00036
:1002AC00EF2FFFEE33FEED33FD40B830E7C280AAEE
:1002BC0074F8CC6480CCC86480C8F58204604FC3E9
:1002CC00EB9FF5F0EA9E42F0E99D42F0E89C45F088
:1002DC00603C501DE5825FFFE582D313CB5BCBF412
:1002EC002B5582FB50280ABA002409B9002008803B
:1002FC001DE5825BFBE582D313CF5FCFF4C3132FD5
:10030C005582FF50090EBE00050DBD00010CC3EB5C
:10031C009FF5F0EA9E42F0E99D42F0E89C45F060C2
:09032C0007CC4820E701B3EC22E4
:1003350075F020800E75F010800575F0087D007E43
:10034500007F003392D530D503120498EC3340106A
:10035500EF33FFEE33FEED33FDEC33FCD5F0ED224C
:0E036500E5F0247EA2D513CC92E7CDCEFF2288
:10037300EDD2E7CD33EC3392D524814006E4FFFE82
:10038300FDFC22FCE4CFCECDCC24E0501174FF80E1
:10039300EDC3CC13CCCD13CDCE13CECF13CF04707E
:0703A300F030D5DE020498E2
:1003AA0088827D80E4FEFF1204B2120025A8820230
:0203BA0004BF7E
:1003BC00E9D2E7C933E833F892D5EDD2E7CD33EC87
:0703CC0033FC5002B2D52200
:1003D300EC30E7100FBF000C0EBE00080DBD00048B
:1003E3000BEB6014A2D5EB13FCED92E7FD2274FF37
:1003F300FCFDFEFF22E480F8A2D574FF13FC7D8090
:03040300E480EFA3
:10098000020E5FE493A3F8E493A34003F68001F220
:1009900008DFF48029E493A3F85407240CC8C33378
:1009A000C4540F4420C8834004F456800146F6DF47
:1009B000E4800B0102040810204080900A5EE47E6F
:1009C000019360BCA3FF543F30E509541FFEE4933C
:1009D000A360010ECF54C025E060A840B8E493A303
:1009E000FAE493A3F8E493A3C8C582C8CAC583CA2E
:1009F000F0A3C8C582C8CAC583CADFE9DEE780BEE6
:010AB700003E
:10040600BB010689828A83E0225002E722BBFE02F4
:09041600E32289828A83E4932227
:10041F00BB010689828A83F0225002F722BBFE01BC
:02042F00F322B6
:10043100EF8DF0A4A8F0CF8CF0A428CE8DF0A42EDF
:02044100FE2299
:10044300BC000BBE0029EF8DF084FFADF022E4CC9D
:10045300F875F008EF2FFFEE33FEEC33FCEE9DEC66
:10046300984005FCEE9DFE0FD5F0E9E4CEFD22EDAC
:10047300F8F5F0EE8420D21CFEADF075F008EF2FF6
:10048300FFED33FD4007985006D5F0F222C398FDE7
:050493000FD5F0EA2284
:100B0900C2D5E830E70FB2D5E4C39BFBE49AFAE417
:100B190099F9E498F8EC30E717B2D5120B3F1205B2
:100B290020E4C39BFBE49AFAE499F9E498F880037A
:100B390012052030D50DE4C39FFFE49EFEE49DFD20
:040B4900E49CFC220A
:0E049800C3E49FFFE49EFEE49DFDE49CFC2275
:0C04A600E6FC08E6FD08E6FE08E6FF2282
:0D04B200E6FB08E6F908E6FA08E6CBF822BA
:0C04BF00ECF608EDF608EEF608EFF62269
:1004CB00D083D082E493F608740193F608740293F8
:0904DB00F608740393F67404732F
:1004E40075F008758200EF2FFFEE33FECD33CDCCCF
:1004F40033CCC58233C5829BED9AEC99E582984052
:100504000CF582EE9BFEED9AFDEC99FC0FD5F0D62E
:10051400E4CEFBE4CDFAE4CCF9A88222B800C1B958
:100524000059BA002DEC8BF084CFCECDFCE5F0CB96
:10053400F97818EF2FFFEE33FEED33FDEC33FCEBCF
:1005440033FB10D703994004EB99FB0FD8E5E4F98A
:10055400FA227818EF2FFFEE33FEED33FDEC33FC77
:10056400C933C910D7059BE99A4007EC9BFCE99A6B
:10057400F90FD8E0E4C9FAE4CCFB2275F010EF2FB0
:10058400FFEE33FEED33FDCC33CCC833C810D707B0
:100594009BEC9AE899400AED9BFDEC9AFCE899F8EB
:0E05A4000FD5F0DAE4CDFBE4CCFAE4C8F9227E
:00000001FF
