:1009A50008320A0A0A0A0A0A0A0A0822000000008E
:1009B50000000000082A00000000000000000121DE
:1009C50000C102C180045040400000013CC80847F6
:1009D500409000003F0000000854409000003F0098
:0509E5000000014F00BD
:10067500E53F6003020813753F011209328F3EE51D
:100685003D653EFF553EF53AE53EF45FF546853E50
:100695003DE53A24FB6076147003020721147003CC
:1006A5000207A0240360030208130521E521B40312
:1006B50003E4F521E521B4021AC202854A578549AA
:1006C50056854855854754854E5B854D5A854C5909
:1006D500854B58E5216003020813AF5BAE5AAD594F
:1006E500AC58AB57AA56A955A8541202AC60025093
:1006F5000302081385574A85564985554885544749
:10070500855B4E855A4D85594C85584B22E52164AC
:10071500026003020813A202B3920222E5216402D9
:100725006003020813200239AF57AE56AD55AC54DD
:10073500FBFAF9783F1200158F578E568D558C545C
:10074500E4FFFE7DB07C40AB57AA56A955A85412CC
:1007550002AC6003020813F557F556F55575543F7D
:1007650022AF5BAE5AAD59AC58E4FBFAF9783F12AB
:1007750000158F5B8E5A8D598C58E4FFFE7DB07C39
:1007850040AB5BAA5AA959A8581202AC60030208EB
:1007950013F55BF55AF55975583F22E5216402704A
:1007A5006D200235AF57AE56AD55AC54FBFAF9780E
:1007B5003F1200118F578E568D558C54E4FFFEFD68
:1007C500FCAB57AA56A955A8541202AC7040F55770
:1007D500F5567555A075544022AF5BAE5AAD59AC70
:1007E50058E4FBFAF9783F1200118F5B8E5A8D5948
:1007F5008C58E4FFFEFDFCAB5BAA5AA959A8581218
:0F08050002AC700AF55BF55A7559A07558402280
:10044700E53B6003020674753B01120A9B8F3C7FF4
:1004570043120B758F45AC45E412032FE4FBFA7981
:100467004C784212020F8F448E438D428C41AB4E23
:10047700AA4DA94CA84B1202AC5019AF4AAE49ADD0
:1004870048AC47AB44AA43A942A8411202AC500466
:10049700D2008002C20020000BE4F553F552F5515B
:1004A700F5508054E53CD39414500DE4F553F552C0
:1004B70075518075503F8040E53CC39450400DE432
:1004C700F553F5527551A0755040802CE53CD394F7
:1004D700144025E53C9450501FE53C24FBFDE434D3
:1004E700FFFCE412032AE4FBFA7970784112020F49
:1004F7008F538E528D518C50AF53AE52AD51AC507D
:10050700120363120C38E521146075147003020698
:100517000224026003020674E4F528F52575320B00
:1005270075360A75350A75340A75330AAF53AE52F4
:10053700AD51AC501203637C007D0A1203E48D3782
:10054700752701E4FFFE7D207C41AB53AA52A951D8
:10055700A8501201061203637C007D0A1203E48D82
:1005670038E4FFFE7DC87C42AB53AA52A951A8507C
:100577001201061203637C007D0A1203E48D3922FF
:10058700E4F52775320D75360A75350A75340A751F
:10059700330A20000A75390E75380E75370E22E5B5
:1005A7003CC39464401AD3E53C94E7748094835029
:1005B7000FE53C75F0648475F00A8485F037801187
:1005C700E53CC3940A4019E53CD394635012753750
:1005D7000AE53C75F00A8475F00A8485F0388017BF
:1005E700E53CC394005003020674E53CD3940950DC
:1005F7007C75370A75380AE53C806B75320C7537A0
:100607000A75340A75330A752501AF57AE56AD55CD
:10061700AC54120363EF75F00A8485F035E4FFFEEE
:100627007D207C41AB57AA56A955A8541201061242
:100637000363EF75F00A8485F036752801AF5BAE6A
:100647005AAD59AC58120363EF75F00A8485F03838
:10065700E4FFFE7D207C41AB5BAA5AA959A858123A
:0E0667000106120363EF75F00A8485F0392254
:100B1300E52170047F0180027F008F2AE521B40163
:100B2300047F0180027F008F2BE521B402047F0143
:100B330080027F008F2CE54F6007A201E433FF8022
:060B4300027F008F312249
:100C2300538E7F5389F0758A18758CFCC28DD28CD4
:050C3300D2A9D2AF229E
:03000B00020814D4
:10081400C0E0C0F0C083C082C0D075D000C000C0AA
:1008240001C002C003C004C005C006C007053FE5FF
:100834003FB41403753F00053BE53BB46403753BCB
:10084400000540E540B4080375400074322540F8C3
:10085400E6FD7C0074222540F8E6FB7A00AF4012E6
:100864000A59742A2540F8E6FD7C00AF40120AD8E4
:10087400300011054FE54FB4640D754F00A201B36C
:1008840092018003754F00D007D006D005D004D064
:1008940003D002D001D000D0D0D082D083D0F0D009
:0208A400E03240
:100A0C00120B9A7F43120B758F45AC45E412032FE2
:100A1C00E4FBFA794C784212020F8F448E438D42DC
:100A2C008C41AB4EAA4DA94CA84B1202AC5019AF3D
:100A3C004AAE49AD48AC47AB44AA43A942A84112BF
:0D0A4C0002AC5004D2008002C200020C2354
:0E0C6D00120A0C120675120447120B1380F5C2
:100B9A007580FFE5A0541F4480F5A053A01FE4F51B
:0D0BAA0080E5A0541F44A0F5A053A01F2219
:10093200E4FFC2C4D2C2D2B5D2B420B3027F042033
:10094200B2027F0520B1027F0620B0027F07D2C427
:10095200C2C2D2B5D2B420B3027F0820B2027F094C
:1009620020B1027F0A20B0027F0BD2C4D2C2C2B52C
:10097200D2B420B3027F0C20B2027F0D20B1027FDD
:100982000E20B0027F0FD2C4D2C2D2B5C2B420B3FD
:10099200027F1020B2027F1120B1027F1220B0022A
:0209A2007F13C1
:0109A4002230
:0609EA00015C00015DFF4D
:100AD800ED4C600F7401A807088002C333D8FC42AC
:100AE8005C800E7401A807088002C333D8FCF45256
:100AF8005CE55C655D6013E55CF4F580E5A0541F7A
:0A0B08004480F5A053A01F855C5D3A
:010B120022C0
:1009F0000F08C0F9A4B0999282F88090FFC18CC30F
:0B0A0000880817010204081020408045
:100A59007580FFE5A0541F44E0F5A053A01F74174B
:100A69002FF8E6F580E5A0541F44C0F5A053A01F58
:100A7900EB4A600B74082DF8E6547FF58080077403
:100A8900082DF8E6F580E5A0541F44E0F5A053A031
:020A99001F221A
:040BF100D2A07F0A05
:100BF500000000000000000000000000000000AE42
:060C0500071FEE70EB2258
:0F0C5E00D2A1120BF1C2A17F0A120BF5C2A02284
:0C0C7B00C2A1120BF1D2A17F0A020BF5FE
:020B4900AD07F6
:100B4B00E4FCC2A07F0A120BF5ED30E704D2A180C2
:100B5B0002C2A17F0A120BF5D2A0ED25E0FD7F0AA0
:090B6B00120BF50CBC08DBC2A062
:010B7400225E
:100BB700E4FC120BF1ED25E0FD30A103430501C272
:0C0BC700A07F0A120BF50CBC08E8AF057B
:010BD30022FF
:0B0BD400120B49120BDFAF03120B499C
:100BDF00120BF1A2A1E433FDC2A07F0A120BF5AFF5
:010BEF000500
:010BF00022E2
:100C0B00C2A0EF24FF92A17F0A120BF5120BF1C2C7
:080C1B00A0D2A17F0A020BF533
:020B7500AB07CC
:100B7700120C5E7F90120BD4120C5E7F91120B4900
:100B8700120BDF120BB7AD077F01120C0B120C7B98
:020B9700AF05A8
:010B99002239
:100C3800AB07120C5E7F90120B49120BDF7F41123B
:050C48000BD4020C7B3F
:0600030000007F21DFFE7A
:0100090022D4
:100C4D00E4FED290120003C2901200030EBE08F211
:010C5D002274
:100A9B0053890FE4F58BF58DC2AF120C4DD2AFD24B
:100AAB008E309103308FFAC28E208F1CAF8DEFFEEC
:100ABB00AD8BEDFFAC06E412032A7B967A43798B60
:0C0ACB00783C120106020363C28F7F001A
:010AD70022FC
:10000E000203CFE86480F8E933E83360110460F04E
:10001E00ED33EC337009E8FCE9FDEAFEEBFF220458
:10002E0060DED3EB9FEA9EE99DE8C2E78CF0C2F753
:10003E0095F0400CE8CCF8E9CDF9EACEFAEBCFFB1F
:10004E0012039A85D0F05804700320D5B3E80470DB
:10005E00075002B2D50203D992D5EC0460F7E4CC76
:10006E00C0E0C398F8603B94186008400DD0E0FBE8
:10007E000203B1E4FBFAC9FC8028E830E406E4C9C7
:10008E00FBE4CAFCE830E305E4C9CACBFCE854073C
:10009E006010F8C3E913F9EA13FAEB13FBEC13FC47
:1000AE00D8F130F52FC3E49CFCEF9BFFEE9AFEEDEA
:1000BE0099FDD0E0FBEF4E4D4C701222DB03020394
:1000CE00D6EC2CFCEF33FFEE33FEED33FDED30E7D7
:1000DE00EB0203B1EF2BFFEE3AFEED39FDD0E0FB64
:1000EE0050130BBB00030203D9ED13FDEE13FEEF0D
:0800FE0013FFEC13FC0203B137
:10010600EC4D6011E8497017ED33EC3304600DE4F3
:10011600FCFFFEFD22E933E8330470F80203CF1238
:10012600039A58046009E4CC248150062850090239
:1001360003D92840030203D6C0E0EB4A7044B980D5
:1001460006D0E0FB0203C5EF4E701CBD8008EBFF36
:10015600EAFEE9FD80EBE98DF0A4FEE5F00201EF91
:10016600E9CDF9EAFEEBFFEF89F0A4FCE5F0CE89D4
:10017600F0A42EFFE435F0CD89F0A42DFEE435F091
:100186008067EF4E7005BD80D780C3EF8BF0A4ACBF
:10019600F0EE8BF0A42CFCE435F0F8EF8AF0A42CFA
:1001A600E5F038FCE433CB8DF0A42CFCE5F03BF80D
:1001B600EE8AF0A42CFCE5F038F8E433CF89F0A4FD
:1001C6002CFCE5F038CF3400CE89F0A42FFFE5F003
:1001D6003EFEE433C98DF0A42EFEE5F039CD8AF05B
:1001E600A42FFFE5F03EFEE43DFD33D0E0FB5007D3
:1001F6000BBB000F0203D9EC2CFCEF33FFEE33FEF2
:06020600ED33FD0203B11F
:10020C000203D9EC5D046005E8590470030203CFC6
:10021C0012039A580460F6EC4860F2EC7004FDFE90
:10022C00FF22C860DB2481C85009C39860025006C5
:10023C000203D69850CAF582E9294B4A7005AB8265
:10024C000203C575F0007C1A7880C3EF9BEE9AED23
:10025C0099400DC3EF9BFFEE9AFEED99FDE842F03D
:10026C00DC23ACF0D0E0FFD0E0FED0E0FDAB822090
:10027C00E7101BEB60BAEC2CFCEF33FFEE33FEED1A
:10028C0033FD0203B1E803F830E705C0F075F00068
:10029C00EF2FFFEE33FEED33FD40B830E7C280AAFE
:1002AC0074F8CC6480CCC86480C8F58204604FC3F9
:1002BC00EB9FF5F0EA9E42F0E99D42F0E89C45F098
:1002CC00603C501DE5825FFFE582D313CB5BCBF422
:1002DC002B5582FB50280ABA002409B9002008804B
:1002EC001DE5825BFBE582D313CF5FCFF4C3132FE5
:1002FC005582FF50090EBE00050DBD00010CC3EB6D
:10030C009FF5F0EA9E42F0E99D42F0E89C45F060D2
:09031C0007CC4820E701B3EC22F4
:1003250075F020800E75F010800575F0087D007E53
:10033500007F003392D530D503120439EC334010D9
:10034500EF33FFEE33FEED33FDEC33FCD5F0ED225C
:0E035500E5F0247EA2D513CC92E7CDCEFF2298
:10036300EDD2E7CD33EC3392D524814006E4FFFE92
:10037300FDFC22FCE4CFCECDCC24E0501174FF80F1
:10038300EDC3CC13CCCD13CDCE13CECF13CF04708E
:07039300F030D5DE02043951
:10039A00E9D2E7C933E833F892D5EDD2E7CD33ECA9
:0703AA0033FC5002B2D52222
:1003B100EC30E7100FBF000C0EBE00080DBD0004AD
:1003C1000BEB6014A2D5EB13FCED92E7FD2274FF59
:1003D100FCFDFEFF22E480F8A2D574FF13FC7D80B2
:0303E100E480EFC6
:030000000208A64D
:0C08A600787FE4F6D8FD75815D0208ED56
:1003E400BC000BBE0029EF8DF084FFADF022E4CCFD
:1003F400F875F008EF2FFFEE33FEEC33FCEE9DECC6
:10040400984005FCEE9DFE0FD5F0E9E4CEFD22ED0B
:10041400F8F5F0EE8420D21CFEADF075F008EF2F55
:10042400FFED33FD4007985006D5F0F222C398FD46
:050434000FD5F0EA22E3
:0E043900C3E49FFFE49EFEE49DFDE49CFC22D4
:1008B200020C6DE493A3F8E493A34003F68001F2E3
:1008C20008DFF48029E493A3F85407240CC8C33347
:1008D200C4540F4420C8834004F456800146F6DF16
:1008E200E4800B01020408102040809009A5E47EF8
:1008F200019360BCA3FF543F30E509541FFEE4930B
:10090200A360010ECF54C025E060A840B8E493A3D1
:10091200FAE493A3F8E493A3C8C582C8CAC583CAFC
:10092200F0A3C8C582C8CAC583CADFE9DEE780BEB4
:010A0B0000EA
:00000001FF
