:1006190008340A0A0A0A0A0A0A0A0822000000001B
:1006290000000000082B0000000000000000C101CC
:10063900012A0001550001210001600008430190D1
:1006490001F4025802BC084D019001F4025802BCA1
:1006590004590405060702570000025D0000C100A5
:04066900023E00004D
:10019B00E54260030203047542011205A68F41E597
:1001AB00406541FF5541F53CE541F45FF55685410E
:1001BB0040E521700DE540B404057560018003E452
:1001CB00F560E53C24FC70030202BE1470030202CE
:1001DB007514600C146003020304A201B392012294
:1001EB00E5217002F55FE521B40122E4F561E561DB
:1001FB0025E02443F8E6FE08E6FFE56125E0244D03
:10020B00F8A60608A6070561E561B404E1E52164DB
:10021B00027049F561E56125E0244DF8E6FE08E63C
:10022B00FFE56125E02443F8A60608A607E561254E
:10023B00E02443F8E6FE08E6FF7C007D64120551DE
:10024B0074592561F8A6070561E561B404C77B0005
:10025B007A007959756604E4FD1207930521E521AF
:10026B0064036003020304F52122E521B4010E05AA
:10027B005FE55F64046003020304F55F22E521641C
:10028B00027076E55F25E0244DF808746426F618B5
:10029B00E436F6E55F25E0244DF8E6FE08E6D39458
:1002AB00B0EE94044053E55F25E0244DF876040846
:1002BB0076B022E521B4010B155FE55FF4703A755A
:1002CB005F0322E52164027030E55F25E0244DF8E1
:1002DB0008749C26F61874FF36F6E55F25E0244D6E
:1002EB00F8E6FE08E6C39490EE9401500CE55F250A
:0902FB00E0244DF876010876902C
:0103040022D6
:10000E00E53D600302019A753D017F031207F18FF2
:10001E004CE54C75F0418404F533E5606003020154
:10002E007DE5211460281470030200DB24026003B6
:10003E0002017D75340A75350A75360A75370A75EB
:10004E00380A75390A753A0A753B0A02017D75340C
:10005E000B3000047F0A8004E55F04FF8F35753690
:10006E000B75370AE55F25E02443F8E6FA08E6FB50
:10007E007C037DE8FFAE021205517C007D0A12055D
:10008E00518D387C007D64AF03AE021205517C00A9
:10009E007D0A1205518D39E55F25E02443F8E6FA15
:1000AE0008E6FB7C007D0AFFAE021205517C007D46
:1000BE000A1205518D3A7C007D0AAF03AE0212057D
:1000CE00518D3BE538600302017D02017A75340BD8
:1000DE00E55F04F53575360B75370A3000047F0A77
:1000EE00801CE55F25E0244DF8E6FE08E6FF7C0364
:1000FE007DE81205517C007D0A120551AF058F383F
:10010E003000047F0A801CE55F25E0244DF8E6FEF2
:10011E0008E6FF7C007D641205517C007D0A120505
:10012E0051AF058F393000047F0A801CE55F25E052
:10013E00244DF8E6FE08E6FF7C007D0A1205517C90
:10014E00007D0A120551AF058F3A3000047F0A80F8
:10015E0015E55F25E0244DF8E6FE08E6FF7C007D00
:10016E000A120551AF058F3BE538700375380AE565
:10017E0060B4011875340A75350A75360A75370A72
:0D018E0075380A75390A753A0B85333B2226
:1003DD00200169E52A25E02443F8E6FC08E6653F9F
:1003ED007003E53E6C7055F53EF53FE52A14601A35
:1003FD00146026146036240370420555E5556408D3
:10040D00703A755507752A0180321555E555F4700A
:10041D002B755507752A02802374092555F555D37B
:10042D0094224018755522752A03801074F72555AE
:10043D00F555D394C84005E4F555F52AE52A600332
:10044D00B40117E4FFEFB555047E0180027E007400
:10045D002B2FF8A6060FBF08EC22E52A64026006D2
:10046D00E52A64037026E4FFE55575F00A846F6094
:10047D000BE55575F00A84E5F0B507047E018002A1
:0C048D007E00742B2FF8A6060FBF08DCC1
:010499002240
:1008A600538E7F5389F0758A18758CFCC28DD28C55
:0508B600D2A9D2AF221F
:03000B00020305E8
:10030500C0E0C0F0C083C082C0D075D000C000C0BE
:1003150001C002C003C004C005C006C0070542E510
:1003250042B41403754200053DAF3D7E00BE010693
:10033500BFF403753D00054BE54BB40803754B0051
:100345007434254BF8E6FD7C007422254BF8E6FB5A
:100355007A00AF4B1206DA0558E558700205576466
:100365000D45577005F557755801E53375F003A42C
:10037500FFD3E5589FE55795F0500B742B254BF8A7
:10038500E6FD7C008003E4FDFCAF4B12075E055ED5
:10039500E55E7002055DFFAE5DBE030EBF200B7509
:1003A5005D00755E00A200B39200300108753E0045
:1003B500753F008008053FE53F7002053ED007D038
:1003C50006D005D004D003D002D001D000D0D0D0C3
:0803D50082D083D0F0D0E032A9
:1006860012083A7B007A007959756504E4FD120771
:100696001CE55975F064A4AEF08E4DF54E8E43F50B
:1006A60044E55A75F064A4AEF08E4FF5508E45F5CC
:1006B60046E55B75F064A4AEF08E51F5528E47F5B3
:1006C60048E55C75F064A4AEF08E53F5548E49F59A
:0406D6004A0208A626
:0E08CA0012068612019B12000E1203DD80F54D
:10083A007580FFE5A0541F4480F5A053A01FE4F57E
:0D084A0080E5A0541F44A0F5A053A01F227C
:1005A600E4FFC2C4D2C2D2B5D2B420B3027F0420C3
:1005B600B2027F0520B1027F0620B0027F07D2C4B7
:1005C600C2C2D2B5D2B420B3027F0820B2027F09DC
:1005D60020B1027F0A20B0027F0BD2C4D2C2C2B5BC
:1005E600D2B420B3027F0C20B2027F0D20B1027F6D
:1005F6000E20B0027F0FD2C4D2C2D2B5C2B420B38D
:10060600027F1020B2027F1120B1027F1220B002B9
:020616007F1350
:0106180022BF
:10075E00E4FE7BFFED4C600F7401A807088002C316
:10076E0033D8FC4206800E7401A807088002C333FA
:10077E00D8FCF45206EEF4F580E5A0541F4480F543
:04078E00A053A01FB5
:010792002244
:10066D000C08C0F9A4B0999282F88090FFBF0814CD
:08067D00010204081020408076
:1006DA007580FFE5A0541F44E0F5A053A01F7414D1
:1006EA002FF8E6F580E5A0541F44C0F5A053A01FDB
:1006FA00EB4A600B74082DF8E6547FF58080077486
:10070A00082DF8E6F580E5A0541F44E0F5A053A0B3
:02071A001F229C
:04087400D2A07F0A85
:10087800000000000000000000000000000000AEC2
:06088800071FEE70EB22D9
:0F08BB00D2A1120874C2A17F0A120878C2A0222B
:0C08D800C2A1120874D2A17F0A020878A5
:0207C500AD077E
:1007C700E4FCC2A07F0A120878ED30E704D2A180CA
:1007D70002C2A17F0A120878D2A0ED25E0FD7F0AA8
:0907E7001208780CBC08DBC2A06A
:0107F00022E6
:10085700E4FC120874ED25E0FD30A103430501C255
:0C086700A07F0A1208780CBC08E8AF055E
:010873002262
:10081600AB051208BB7FA01207C5120828AF03124A
:0208260007C504
:10082800120874A2A1E433FDC2A07F0A120878AFAF
:0108380005BA
:01083900229C
:10088E00C2A0EF24FF92A17F0A120878120874C248
:08089E00A0D2A17F0A02087834
:0207F100AB0754
:1007F3001208BB7F9012081D1208BB7F911207C518
:10080300120828120857AD077F0112088E1208D864
:02081300AF052F
:0108150022C0
:100793008B628A638964120816AF661566EF601F61
:1007A300AB620564E564AA637002056314F912057C
:1007B30026FF1207C51208287FC812087880DA02BC
:0207C30008D854
:10071C008B618A6289631208161208BB7FA11207CB
:10072C00C5120828AF651565EF6024120857AB6138
:10073C000563E563AA627002056214F9EF12053FC6
:10074C00E5656004E4FF80027F0112088E80D5020B
:02075C0008D8BB
:0300000002049A5D
:0C049A00787FE4F6D8FD7581660204E16D
:10052600BB010689828A83E0225002E722BBFE02D3
:09053600E32289828A83E4932206
:10053F00BB010689828A83F0225002F722BBFE019B
:02054F00F32295
:10055100BC000BBE0029EF8DF084FFADF022E4CC8E
:10056100F875F008EF2FFFEE33FEEC33FCEE9DEC57
:10057100984005FCEE9DFE0FD5F0E9E4CEFD22ED9D
:10058100F8F5F0EE8420D21CFEADF075F008EF2FE7
:10059100FFED33FD4007985006D5F0F222C398FDD8
:0505A1000FD5F0EA2275
:1004A6000208CAE493A3F8E493A34003F68001F29A
:1004B60008DFF48029E493A3F85407240CC8C33357
:1004C600C4540F4420C8834004F456800146F6DF26
:1004D600E4800B0102040810204080900619E47E97
:1004E600019360BCA3FF543F30E509541FFEE4931B
:1004F600A360010ECF54C025E060A840B8E493A3E2
:10050600FAE493A3F8E493A3C8C582C8CAC583CA0C
:10051600F0A3C8C582C8CAC583CADFE9DEE780BEC4
:010685000074
:00000001FF
