:0300000002071BD9
:0C071B00787FE4F6D8FD75815602076275
:10081A00083D0A0A0A0A0A0A0A0A08290000000008
:10082A000000000001550001270008310000000007
:10083A00000000000128000347230859064C113024
:06084A0000113000C101A5
:10056F007852E66003020674785276011207A77874
:10057F004BA607E6FF1866FE5FFF7845F6784BE659
:10058F00FDF45E7854F6784AA605EF24FB60362416
:10059F00FD606D14700302064C240560030206749F
:1005AF007828E6B40112784CE6784FF6784DE67865
:1005BF0050F6784EE67851F6782806E66403600325
:1005CF00020674F6227828E67018784706E6540F6C
:1005DF00FFBF0A04740626F67847E6B42402E4F651
:1005EF0080397828E66402707C784F06E6540FFF56
:1005FF00BF0A04740626F6784FE664257067F62264
:10060F007828E6701A784806E6540FFFBF0A04747C
:10061F000626F67848E6B46002E4F67B0080277879
:10062F0028E66402703F785006E6540FFFBF0A04B5
:10063F00740626F67850E66460702AF6227828E66B
:10064F00700B7849F6FB7A0079470209A97828E6FA
:10065F00B40212784FE6784CF67850E6784DF6787B
:06066F0051E6784EF62270
:100417007846E6600302056E784676017B007A002F
:100427007947120A747947E7784C66700A09E70832
:10043700667004D2018002C20130010A12094078B5
:10044700391203F2800978391203FE0000000078A0
:1004570028E614603614700302053E240260030286
:10046700056E7847E6FFC4540F783DF6EF540F0842
:10047700F608760B7848E6FFC4540F7840F6EF5439
:100487000F08F608760B7849020561783D760C78F7
:1004970041760A18760A18760A18760AE4FFFEFDEE
:1004A700FC78391203E51201C470047F0B801378BE
:1004B700391203D912027BEF75F00A8475F00A84AA
:1004C700AFF07842A607E4FFFEFDFC78391203E59A
:1004D7001201C470047F0B800F78391203D91202FE
:1004E7007BEF75F00A84AFF07843A607E4FFFEFDC3
:1004F700FC78391203E51201C47003FF80027F0103
:10050700782FA607E4FFFEFDFC78391203E51201F8
:10051700C470047F0B801BE4FFFE7D207C4178398B
:100527001203E512001E12027B7C007D0A1203767D
:10053700AF057844A60722E4782FF6783D760D7844
:100547003F760A18760A784FE6FFC4540F7840F6CC
:10055700EF540F08F608760B7850E6FFC4540F786F
:0805670043F6EF540F08F622E1
:10087D00E47827F67855F67828E6FF70047E018037
:10088D00027E007831A606EFB401047F0180027F5D
:10089D00007832A6077828E6B402047F0180027F33
:1008AD00007833A607300107A200E433FF80027FF2
:0608BD00007838A60722B6
:10000300538EBF53890F758B18758DFCC28FD28E9B
:05001300D2ABD2AF22C8
:03001B0002067565
:10067500C0E0C0F0C083C082C0D075D000C000C04B
:1006850001C002C003C004C005C006C007785206F9
:10069500E6B414027600784606E6B45A0276007887
:1006A5005306E6B4080276007853E6FF243DF8E6E3
:1006B500FD7C007853E62429F8E6FB7A001208C38E
:1006C5007853E6FF2431F8E6FD7C001209057855DC
:1006D500E624FF9203120A2E7827E624FF920312DE
:1006E5000A51300110785606E6B4640F7600A20070
:1006F500B392008006C20078567600D007D006D0A7
:1007050005D004D003D002D001D000D0D0D082D003
:0607150083D0F0D0E032B9
:0F0B4C00120AD47B007A0079471209A90200032C
:0E0B5B00120B4C12056F12041712087D80F564
:100850000E08C0F9A4B0999282F88090FFBFC686B6
:0A0860000816010204081020408071
:1008C3007580FFE5A0541F44E0F5A053A01F7416E4
:1008D3002FF8E6F580E5A0541F44C0F5A053A01FF0
:1008E300EB4A600B74082DF8E6547FF5808007749B
:1008F300082DF8E6F580E5A0541F44E0F5A053A0C9
:020903001F22B1
:100AD4007580FFE5A0541F4480F5A053A01FE4F5E2
:0D0AE40080E5A0541F44A0F5A053A0A0225F
:1007A700E4FFC2C4D2C2D2B5D2B420B3027F0420C0
:1007B700B2027F0520B1027F0620B0027F07D2C4B4
:1007C700C2C2D2B5D2B420B3027F0820B2027F09D9
:1007D70020B1027F0A20B0027F0BD2C4D2C2C2B5B9
:1007E700D2B420B3027F0C20B2027F0D20B1027F6A
:1007F7000E20B0027F0FD2C4D2C2D2B5C2B420B38A
:10080700027F1020B2027F1120B1027F1220B002B6
:020817007F134D
:0108190022BC
:10086A000121000122FF0123000124FF01250001CB
:02087A0026FF57
:10090500ED4C600F7401A807088002C333D8FC4280
:1009150021800E7401A807088002C333D8FCF45265
:1009250021E52165226013E521F4F580E5A0541F3A
:0A0935004480F5A053A01F85212285
:01093F002295
:100A2E0030030543234080035323BFE52365246031
:100A3E0011852380E5A0541F44A0F5A053A01F8567
:020A4E0023245F
:010A50002283
:100A510030030543251080035325EFE52565266006
:100A610011852580E5A0541F44A0F5A053A01F8542
:020A7100252638
:010A73002260
:100B3900E4FEC297EF1392A3EFC313FFD2970EBE41
:020B490008F0B2
:010B4B002287
:100B2500C29300C29700D29300120B39AF05120B86
:040B350039C293220C
:10097500E4FDC29300C29700D29300120B39E4FF45
:10098500C297EDC313FD30A303430580D2970FBF74
:1009950008EEC29300C29700D29700C2A300D2A36B
:0309A50000AF059B
:0109A800222C
:1009A900E4FD7F8E120B251202FCFD7F84120B25BC
:1009B900900001120315FD7F82120B25900002128F
:0F09C9000315FD7F80120B257D807F8E020B258D
:100A74007F85120975EF1203427F83120975900076
:100A840001EF1203547F81120975900002EF0203F3
:010A9400540D
:1009D800E4FD7F8E120B251202FCFD7F8C120B2585
:1009E800900001120315FD7F88120B25900002125A
:0F09F8000315FD7F86120B257D017F8E020B25D7
:100A95007F8D120975EF1203427F89120975900047
:100AA50001EF1203547F87120975900002EF0203CC
:010AB50054EC
:040AF1007F057E00FF
:100AF500EF1FAA0670011E4A600BE4FDEDC3940CBE
:050B050050EE0D80F729
:010B0A0022C8
:020AB600A9078E
:100AB800E4FBC294E9139294120AF1D294E9C313A5
:0C0AC800F90BBB08ED7F057E00020AF56B
:100B0B00E4FBC294ECC313FCD294309403430480F3
:090B1B00120AF10BBB08EBAF0458
:010B240022AE
:100A0700C202D2947F0C7E00120AF5C2947F507EF8
:100A170000120AF5D2947F0A7E00120AF5A2949278
:060A270002120AF1A20216
:010A2D0022A6
:10094000120A077FCC120AB67F44120AB6120A07AF
:100950007FCC120AB67FBE120AB6120B0BA9071281
:100960000B0BEFAD01FCE4120242E4FBFA79807854
:040970004112012708
:010974002260
:10001E00EC4D6011E8497017ED33EC3304600DE4DC
:10002E00FCFFFEFD22E933E8330470F80202E7120A
:10003E0002B258046009E4CC24815006285009020B
:10004E0002F12840030202EEC0E0EB4A7044B98090
:10005E0006D0E0FB0202DDEF4E701CBD8008EBFF08
:10006E00EAFEE9FD80EBE98DF0A4FEE5F002010762
:10007E00E9CDF9EAFEEBFFEF89F0A4FCE5F0CE89BD
:10008E00F0A42EFFE435F0CD89F0A42DFEE435F07A
:10009E008067EF4E7005BD80D780C3EF8BF0A4ACA8
:1000AE00F0EE8BF0A42CFCE435F0F8EF8AF0A42CE3
:1000BE00E5F038FCE433CB8DF0A42CFCE5F03BF8F6
:1000CE00EE8AF0A42CFCE5F038F8E433CF89F0A4E6
:1000DE002CFCE5F038CF3400CE89F0A42FFFE5F0EC
:1000EE003EFEE433C98DF0A42EFEE5F039CD8AF044
:1000FE00A42FFFE5F03EFEE43DFD33D0E0FB5007BC
:10010E000BBB000F0202F1EC2CFCEF33FFEE33FEC3
:06011E00ED33FD0202C9F1
:100124000202F1EC5D046005E8590470030202E781
:100134001202B2580460F6EC4860F2EC7004FDFE62
:10014400FF22C860DB2481C85009C39860025006AE
:100154000202EE9850CAF582E9294B4A7005AB8237
:100164000202DD75F0007C1A7880C3EF9BEE9AEDF5
:1001740099400DC3EF9BFFEE9AFEED99FDE842F026
:10018400DC23ACF0D0E0FFD0E0FED0E0FDAB822079
:10019400E7101BEB60BAEC2CFCEF33FFEE33FEED03
:1001A40033FD0202C9E803F830E705C0F075F0003A
:1001B400EF2FFFEE33FEED33FD40B830E7C280AAE7
:1001C40074F8CC6480CCC86480C8F58204604FC3E2
:1001D400EB9FF5F0EA9E42F0E99D42F0E89C45F081
:1001E400603C501DE5825FFFE582D313CB5BCBF40B
:1001F4002B5582FB50280ABA002409B90020088034
:100204001DE5825BFBE582D313CF5FCFF4C3132FCD
:100214005582FF50090EBE00050DBD00010CC3EB55
:100224009FF5F0EA9E42F0E99D42F0E89C45F060BB
:0902340007CC4820E701B3EC22DD
:10023D0075F020800E75F010800575F0087D007E3C
:10024D00007F003392D530D5031203CBEC33401031
:10025D00EF33FFEE33FEED33FDEC33FCD5F0ED2245
:0E026D00E5F0247EA2D513CC92E7CDCEFF2281
:10027B00EDD2E7CD33EC3392D524814006E4FFFE7B
:10028B00FDFC22FCE4CFCECDCC24E0501174FF80DA
:10029B00EDC3CC13CCCD13CDCE13CECF13CF047077
:0702AB00F030D5DE0203CBA9
:1002B200E9D2E7C933E833F892D5EDD2E7CD33EC92
:0702C20033FC5002B2D5220B
:1002C900EC30E7100FBF000C0EBE00080DBD000496
:1002D9000BEB6014A2D5EB13FCED92E7FD2274FF42
:1002E900FCFDFEFF22E480F8A2D574FF13FC7D809B
:0302F900E480EFAF
:10072700020B5BE493A3F8E493A34003F68001F282
:1007370008DFF48029E493A3F85407240CC8C333D3
:10074700C4540F4420C8834004F456800146F6DFA2
:10075700E4800B010204081020408090081AE47E10
:10076700019360BCA3FF543F30E509541FFEE49397
:10077700A360010ECF54C025E060A840B8E493A35E
:10078700FAE493A3F8E493A3C8C582C8CAC583CA89
:10079700F0A3C8C582C8CAC583CADFE9DEE780BE41
:01087C00007B
:1002FC00BB010689828A83E0225002E722BBFE0200
:09030C00E32289828A83E4932232
:10031500BB010CE58229F582E5833AF583E022509D
:1003250006E92582F8E622BBFE06E92582F8E222E7
:0D033500E58229F582E5833AF583E4932201
:10034200BB010689828A83F0225002F722BBFE019A
:02035200F32294
:10035400F8BB010DE58229F582E5833AF583E8F0DF
:10036400225006E92582C8F622BBFE05E92582C88B
:02037400F22273
:10037600BC000BBE0029EF8DF084FFADF022E4CC6B
:10038600F875F008EF2FFFEE33FEEC33FCEE9DEC34
:10039600984005FCEE9DFE0FD5F0E9E4CEFD22ED7A
:1003A600F8F5F0EE8420D21CFEADF075F008EF2FC4
:1003B600FFED33FD4007985006D5F0F222C398FDB5
:0503C6000FD5F0EA2252
:0E03CB00C3E49FFFE49EFEE49DFDE49CFC2243
:0C03D900E6FC08E6FD08E6FE08E6FF2250
:0D03E500E6FB08E6F908E6FA08E6CBF82288
:0C03F200ECF608EDF608EEF608EFF62237
:1003FE00D083D082E493F608740193F608740293C6
:09040E00F608740393F6740473FC
:00000001FF
