:030000000207FBF9
:0C07FB00787FE4F6D8FD7581A00208426A
:10076900049B00000000088E0A0A0A0A0A0A0A0AFB
:1007790008860000000000000000019A00038317AA
:100789003B37012908019600204D34FF0A76000005
:10079900000A00000000FF047C0000003200000095
:1007A90000FF00030000000100000000FF0C120020
:1007B9000000A000000000FF0F57000000C8000063
:1007C9000000FF0F4E0000006400000000FF0F5FF3
:0807D9000000005000000000C8
:100C12007F41120D89AC07E41201CEE4FBFA794C54
:100C22007842120127782A12039C7F43120D89AC65
:100C320007E41201CEE4FBFA794C784212012778DC
:090C42002412039C7F75020ED000
:080F5700120C83783002039CA8
:090F4E007B007A007983020AC1DC
:080F5F00120C4B7828A60722B2
:100A76001209D5789FEFF67899E65FFE6FFD7897B5
:100A8600F6EFF46E7822F6789FE67899F6BD041AAA
:100A9600782376057B007A007923750C01E4FD1234
:100AA6000B0A789A06E65403F6227897E6B4050A06
:0B0AB600782906E675F00A84A6F022FD
:10047C00789AE61470030205271470030205AA1477
:10048C0070030205EA2403600302068C782A120327
:10049C0083120202EF75F00A84E5F0242C788EF6B4
:1004AC00EF75F00AA4FFAEF07C007D0A12030F7802
:1004BC008FA605E4FFFE7DC87C42782A12038F12BA
:1004CC00001E1202027C007D0A12030F7890A60512
:1004DC0008760A7824120383120202EF75F00A845C
:1004EC00E5F0242C7892F6EF75F00AA4FFAEF07CC0
:1004FC00007D0A12030F7893A605E4FFFE7DC87CED
:10050C0042782412038F12001E1202027C007D0A14
:10051C0012030F7894A60508760A2278301203830A
:10052C00120202EF75F00A8475F00A84788EA6F038
:10053C00EF75F00A84E5F0242C08F6E4FFFE7D202C
:10054C007C41783012038F12001E120202EF75F0FC
:10055C000A847890A6F0E4FFFE7DC87C42783012C5
:10056C00038F12001E1202027C007D0A12030F7808
:10057C0091A60508760A7828E6FF75F0648475F074
:10058C000A847893A6F0EF75F00A8475F00A840853
:10059C00A6F07828E675F00A847895A6F022788380
:1005AC00E6FF75F00A84788EF6EF75F00A8408A6DB
:1005BC00F008760A7884E6FF75F00A847891F6EFF5
:1005CC0075F00A8408A6F008760A7885E6FF75F0BF
:1005DC000A847894F6EF75F00A8408A6F022782144
:1005EC00E6788EF608760A782EE6FE08E6FFE4FC3E
:1005FC00FD7BA07A867901F8120B50E47B0AFAF99C
:10060C00F8120B50AF037890A607782EE6FA08E69E
:10061C00FB7C277D10FFAE0212030F7C007D0A12BB
:10062C00030F7891A6057C037DE8AF03AE0212039D
:10063C000F7C007D0A12030F7892A605782EE6FA3D
:10064C0008E6FB7C007D64FFAE0212030F7C007D8C
:10065C000A12030F7893A6057C007D0AAF03AE0245
:10066C0012030F7C007D0A12030F7894A605782ED6
:10067C00E6FE08E6FF7C007D0A12030F7895A605BE
:01068C00224B
:1000030078867601788DE624FF9200120D10788DA4
:08001300E624FF9200020CE458
:100EFA00538E7F5389F0438905E4F58AF58CC28DB8
:030F0A00D28C2264
:100F0D00538EBF53890F758B18758DFCC28FD28E82
:030F1D00D2AB2232
:03001B0002068D4D
:10068D00C0E0C0F0C083C082C0D075D000C000C033
:10069D0001C002C003C004C005C006C007789B128C
:1006AD000383EF2401FFE43EFEE43DFDE43CFC78D2
:1006BD009B12039C78810806E61870010686066475
:1006CD00644E702A7881F608F6AF8CEFAD8A782EDD
:1006DD00F6ED08F6758A00758C0018E6FE08E6FF43
:1006ED007C007D0A1202FD782EA60608A6077896D4
:1006FD0006E675F00A84A6F07996E7D37829964038
:10070D0005120E4E80097B007A00798612088778D3
:10071D00A006E65407F6E6FF248EF8E6FED3941401
:10072D00400EEE24D4FDE434FFFC7B017A00800EF4
:10073D0078A0E6FF248EF8E6FD7C00E4FBFA120AB1
:10074D0026D007D006D005D004D003D002D001D0DA
:0C075D0000D0D0D082D083D0F0D0E032A9
:050F76007898760722C7
:0B090900E4F508E508C37898965069F3
:10091400789B1203838F0C8E0B8D0A8C09E5087566
:10092400F00BA4243BF8120383E50875F00BA42410
:1009340037F812038FEB2FFFEA3EFEE93DFDE83C5A
:10094400FCAB0CAA0BA90AA809C31203724026AF78
:100954000CAE0BAD0AAC09E50875F00BA4243BF80A
:1009640012039CE50875F00BA42434F808E6FA0891
:05097400E6F91203A8E2
:040979000508808F5E
:01097D002257
:100D6300120DAE120EFA120F0D120F767B007A00DF
:100D73007921750C01E4FD120B947B007A007983D1
:060D830012097ED2AF222E
:080F6700120D6312090980FB61
:100F2000E4FEC297EF1392A3EFC313FFD2970EBE56
:020F300008F0C7
:010F3200229C
:080E320075F00A84EE25F0FDC5
:100E3A00C29300C29700D29300120F20AF05120F7F
:040E4A0020C293220D
:080BD600C4540F75F00AA4FCE1
:100BDE00E4FDC29300C29700D29300120F20E4FFEF
:100BEE00C297EDC313FD30A303430580D2970FBF09
:100BFE0008EEC29300C29700D29700C2A300D2A300
:030C0E0000AF052F
:010C110022C0
:10097E00E4FD7F8E120E3A7F80120E3A120283FF32
:10098E0075F00A84C454F0FEEF7F84120E3290008C
:10099E000112029CFF75F00A84C454F0FEEF7F82B0
:1009AE00120E3290000212029CFF75F00A84C4549B
:1009BE00F0FEEF75F00A84EE25F0FD7F80120E3A00
:0709CE007D807F8E020E3ACE
:100AC100C2AF7F85120BDEEF7F85120BD6EF540F7D
:100AD1002C1202C97F83120BDEEF7F83120BD6EF3C
:100AE100540F2C9000011202DB7F81120BDEEFC448
:100AF100540F75F00AA4FC7F81120BDEEF540F2C0A
:080B01009000021202DBD2AFEA
:010B090022C9
:040E6A00D2A07F058E
:100E6E00000000000000000000000000000000AEC6
:060E7E00071FEE70EB22DD
:0F0F3300D2A1120E6AC2A17F05120E6EC2A022B9
:0C0F4200C2A1120E6AD2A17F05020E6E41
:020CB800AD0786
:100CBA00E4FCC2A07F05120E6EED30E704D2A180DB
:100CCA0002C2A17F05120E6ED2A0ED25E0FD7F05BE
:090CDA00120E6E0CBC08DBC2A076
:010CE30022EE
:100E1500E4FC120E6AED25E0FD30A103430501C295
:0C0E2500A07F05120E6E0CBC08E8AF05A3
:010E3100229E
:100DD300AB05120F337FA0120CB8120DE5AF03124F
:020DE3000CB84A
:100DE500120E6AA2A1E433FDC2A07F05120E6EAFFA
:010DF50005F8
:010DF60022DA
:100EB800C2A0EF24FF92A17F05120E6E120E6AC225
:080EC800A0D2A17F05020E6E0D
:020D8900AB07B6
:100D8B00120F337F90120DDA120F337F91120CB8C2
:100D9B00120DE5120E15AD077F01120EB8120F42A0
:020DAB00AF0592
:010DAD002223
:100ED000AB07120F337F90120CB8120DE57F411251
:050EE0000DDA020F42D3
:100B0A008B088A09890A120DD3AF0C150CEF601FE6
:100B1A00AB08050AE50AAA097002050914F91202C6
:100B2A0083FF120CB8120DE57FC8120E6E80DA121E
:100B3A000F427FFA120E6E7FFA120E6E7FFA120EB3
:060B4A006E7FFA020E6E40
:100B94008B088A09890A120DD3120F337FA1120C14
:100BA400B8120DE5AF0C150CEF6024120E15AB084E
:100BB400050AE50AAA097002050914F9EF1202C927
:100BC400E50C6004E4FF80027F01120EB880D502B8
:020BD4000F42CE
:100DAE007580FFE5A0541FFF4307808FA053071FD8
:100DBE008FA0E4F580E5A0541FFF4307A08FA0533A
:040DCE00071F8FA0CC
:010DD20022FE
:1009D500E4FFC2C4D2C2D2B520B3027F0420B20262
:1009E5007F0520B1027F0620B0027F07D2C4C2C2B4
:1009F500D2B520B3027F0820B2027F0920B1027F61
:100A05000A20B0027F0BD2C4D2C2C2B520B3027F86
:100A15000C20B2027F0D20B1027F0E20B0027F0FA5
:010A250022AE
:0C07E100011800011AFF011900011BFFA4
:10088700E47818F690000112029C25E0FF1202831B
:100897004FFF90000212029C25E025E04FFF9000D9
:1008A7000312029C33333354F84FFF9000041202B3
:1008B7009CC454F04FFF90000512029CC43354E0CF
:1008C7004FFF90000612029CC4333354C04FFF9071
:1008D700000712029CC433333354804FFF7818F655
:1008E700781AE66F601B7818E6FFF4F580E5A054E8
:1008F7001FFE4306808EA0E5A0541FF5A0781AA618
:0109070007E8
:0109080022CC
:100E4E00781876FF7580FFE5A0541FFF4307808F4B
:0B0E5E00A0E5A0541FF5A0E4781AF6F0
:010E69002266
:100CE4007819E63000054440F6800354BFF67819BD
:100CF400E6FF781B6660148F80E5A0541FFE430650
:0B0D0400A08EA0E5A0541FF5A0A607DC
:010D0F0022C1
:100D10007819E63000054410F6800354EFF6781990
:100D2000E6FF781B6660148F80E5A0541FFE430623
:0B0D3000A08EA0E5A0541FF5A0A607B0
:010D3B002295
:040E84007F057E0068
:100E8800EF1FAA0670011E4A600BE4FDEDC3940C27
:050E980050EE0D80F793
:010E9D002232
:020DF700A9074A
:100DF900E4FBC294E9139294120E84D294E9C313CA
:0C0E0900F90BBB08ED7F057E00020E888F
:100E9E00E4FBC294ECC313FCD2943094034304805D
:090EAE00120E840BBB08EBAF042B
:010EB7002218
:100D3C00C200D2947F0C7E00120E88C2947F507E2B
:100D4C0000120E88D2947F0A7E00120E88A2949212
:060D5C0000120E84A2004B
:010D6200226E
:100C8300120D3C7FCC120DF77F44120DF7120D3C71
:100C93007FCC120DF77FBE120DF7120E9EA907121D
:100CA3000E9EEFAD01FCE41201C9E4FBFA798078F2
:040CB30041120127C2
:010CB700221A
:0D07ED000B0DC0F9A4B0999282F88090FF26
:100A26007580FFE5A0541FFE4306E08EA0E5A054A6
:100A36001FFEF5A07401A807088002C333D8FCF591
:100A460080E5A0541FFE4306C08EA0E5A0541FF506
:100A5600A0740D2DF8E6F580EB4A600353807FE520
:0F0A6600A0541FFE4306E08EA0E5A0541FF5A08C
:010A7500225E
:060F6F0000007F26DFFEFA
:010F75002259
:100EE500C2AFE4FED290120F6FC290120F6F0EBE0A
:040EF50008F2D2AF7E
:010EF90022D6
:100C4B00E4F5D9F5F9F5E9120EE5D2DE3091033072
:100C5B00DFFAC2DE20DF1CAFF9EFFEADE9EDFFAC32
:100C6B0006E41201C97B967A43798B783C12001EFD
:070C7B00020202C2DF7F004C
:010C8200224F
:10001E00EC4D6011E8497017ED33EC3304600DE4DC
:10002E00FCFFFEFD22E933E8330470F802026E1283
:10003E00023958046009E4CC248150062850090284
:10004E000278284003020275C0E0EB4A7044B98082
:10005E0006D0E0FB020264EF4E701CBD8008EBFF81
:10006E00EAFEE9FD80EBE98DF0A4FEE5F002010762
:10007E00E9CDF9EAFEEBFFEF89F0A4FCE5F0CE89BD
:10008E00F0A42EFFE435F0CD89F0A42DFEE435F07A
:10009E008067EF4E7005BD80D780C3EF8BF0A4ACA8
:1000AE00F0EE8BF0A42CFCE435F0F8EF8AF0A42CE3
:1000BE00E5F038FCE433CB8DF0A42CFCE5F03BF8F6
:1000CE00EE8AF0A42CFCE5F038F8E433CF89F0A4E6
:1000DE002CFCE5F038CF3400CE89F0A42FFFE5F0EC
:1000EE003EFEE433C98DF0A42EFEE5F039CD8AF044
:1000FE00A42FFFE5F03EFEE43DFD33D0E0FB5007BC
:10010E000BBB000F020278EC2CFCEF33FFEE33FE3C
:06011E00ED33FD0202506A
:10012400020278EC5D046005E85904700302026E73
:10013400120239580460F6EC4860F2EC7004FDFEDB
:10014400FF22C860DB2481C85009C39860025006AE
:100154000202759850CAF582E9294B4A7005AB82B0
:1001640002026475F0007C1A7880C3EF9BEE9AED6E
:1001740099400DC3EF9BFFEE9AFEED99FDE842F026
:10018400DC23ACF0D0E0FFD0E0FED0E0FDAB822079
:10019400E7101BEB60BAEC2CFCEF33FFEE33FEED03
:1001A40033FD020250E803F830E705C0F075F000B3
:1001B400EF2FFFEE33FEED33FD40B830E7C280AAE7
:1001C40075F020800E75F010800575F0087D007EB6
:1001D400007F003392D530D503120364EC33401012
:1001E400EF33FFEE33FEED33FDEC33FCD5F0ED22BF
:0E01F400E5F0247EA2D513CC92E7CDCEFF22FB
:10020200EDD2E7CD33EC3392D524814006E4FFFEF4
:10021200FDFC22FCE4CFCECDCC24E0501174FF8053
:10022200EDC3CC13CCCD13CDCE13CECF13CF0470F0
:07023200F030D5DE02036489
:10023900E9D2E7C933E833F892D5EDD2E7CD33EC0B
:0702490033FC5002B2D52284
:10025000EC30E7100FBF000C0EBE00080DBD00040F
:100260000BEB6014A2D5EB13FCED92E7FD2274FFBB
:10027000FCFDFEFF22E480F8A2D574FF13FC7D8014
:03028000E480EF28
:10080700020F67E493A3F8E493A34003F68001F291
:1008170008DFF48029E493A3F85407240CC8C333F2
:10082700C4540F4420C8834004F456800146F6DFC1
:10083700E4800B0102040810204080900769E47EE1
:10084700019360BCA3FF543F30E509541FFEE493B6
:10085700A360010ECF54C025E060A840B8E493A37D
:10086700FAE493A3F8E493A3C8C582C8CAC583CAA8
:10087700F0A3C8C582C8CAC583CADFE9DEE780BE60
:0107FA0000FE
:10028300BB010689828A83E0225002E722BBFE0279
:09029300E32289828A83E49322AC
:10029C00BB010CE58229F582E5833AF583E0225017
:1002AC0006E92582F8E622BBFE06E92582F8E22261
:0D02BC00E58229F582E5833AF583E493227B
:1002C900BB010689828A83F0225002F722BBFE0114
:0202D900F3220E
:1002DB00F8BB010DE58229F582E5833AF583E8F059
:1002EB00225006E92582C8F622BBFE05E92582C805
:0202FB00F222ED
:1002FD00EF8DF0A4A8F0CF8CF0A428CE8DF0A42E15
:02030D00FE22CE
:10030F00BC000BBE0029EF8DF084FFADF022E4CCD2
:10031F00F875F008EF2FFFEE33FEEC33FCEE9DEC9B
:10032F00984005FCEE9DFE0FD5F0E9E4CEFD22EDE1
:10033F00F8F5F0EE8420D21CFEADF075F008EF2F2B
:10034F00FFED33FD4007985006D5F0F222C398FD1C
:05035F000FD5F0EA22B9
:100B5000C2D5E830E70FB2D5E4C39BFBE49AFAE4D0
:100B600099F9E498F8EC30E717B2D5120B86120326
:100B7000EAE4C39BFBE49AFAE499F9E498F8800369
:100B80001203EA30D50DE4C39FFFE49EFEE49DFD11
:040B9000E49CFC22C3
:0E036400C3E49FFFE49EFEE49DFDE49CFC22AA
:10037200EB9FF5F0EA9E42F0E99D42F0E89C45F0E1
:010382002258
:0C038300E6FC08E6FD08E6FE08E6FF22A6
:0D038F00E6FB08E6F908E6FA08E6CBF822DE
:0C039C00ECF608EDF608EEF608EFF6228D
:0603A8008A838982E473E0
:1003AE0075F008758200EF2FFFEE33FECD33CDCC06
:1003BE0033CCC58233C5829BED9AEC99E582984089
:1003CE000CF582EE9BFEED9AFDEC99FC0FD5F0D666
:1003DE00E4CEFBE4CDFAE4CCF9A88222B800C1B990
:1003EE000059BA002DEC8BF084CFCECDFCE5F0CBCE
:1003FE00F97818EF2FFFEE33FEED33FDEC33FCEB07
:10040E0033FB10D703994004EB99FB0FD8E5E4F9C1
:10041E00FA227818EF2FFFEE33FEED33FDEC33FCAE
:10042E00C933C910D7059BE99A4007EC9BFCE99AA2
:10043E00F90FD8E0E4C9FAE4CCFB2275F010EF2FE7
:10044E00FFEE33FEED33FDCC33CCC833C810D707E7
:10045E009BEC9AE899400AED9BFDEC9AFCE899F822
:0E046E000FD5F0DAE4CDFBE4CCFAE4C8F922B5
:00000001FF
