:030000000208876C
:0C088700787FE4F6D8FD7581560208CE9B
:100A110008410A0A0A0A0A0A0A0A0829000000000B
:100A21000000000001510001270008310000000012
:100A310000000000012800014F00045200000000E6
:060A4100043D41D000005D
:10070C00784DE660030207F9784D760112099E7860
:10071C004CA607E6FF1866FE5FFF7849F6784CE6B4
:10072C00FDF45E7850F6784BA605EF24FB601B2495
:10073C00FD602414606C240560030207F978280618
:10074C00E6640360030207F9F622784F06E66402BA
:10075C0060030207F9F6227828E6B4011D78527F6F
:10076C00007E007D807CBF1203BBE4FBFA79C87865
:10077C00C21202BC7077785280207828E66402702E
:10078C006C783DFFFE7D807CBF1203BBE4FBFA79E5
:10079C00C878C21202BC7055783D12049FC2C600C4
:1007AC0000227828E6B4011D78527F007E007D80FF
:1007BC007C3F1203BBE4FBFA79C878421202BC708E
:1007CC002C785280217828E6B40222783D7F007E76
:1007DC00007D807C3F1203BBE4FBFA79C87842129F
:0E07EC0002BC7009783D12049F42C600002234
:1004B800784AE6600302070B784A7601120AF27856
:1004C8005212048612002578391204937828E6140B
:1004D800605D1470030206102402600302070B78A3
:1004E80041760B7845760A18760A18760A18760A3D
:1004F800783912047A120384EF75F00A8475F00AC9
:10050800847846A6F0EF75F00A8408A6F0782F766E
:1005180001E4FFFE7D207C41783912048612011621
:100528001203847C007D0A1204177848A60522E489
:10053800782FF67841760C7845760A18760A187678
:100548000A18760AFFFEFDFC78521204861202BCD5
:100558004053785212047A120384EF75F06484755C
:10056800F00A847846A6F0EF75F00A8475F00A84DC
:1005780008A6F0785212047A120384EF75F00A8400
:100588007848A6F0785676057856E6FFC394074073
:100598000302070B74412FF8E6600302070B760A83
:1005A80078560680E3E4FFFE7D207CC17852120471
:1005B800861202BC601D401BE4FFFEFDFC7852124F
:1005C80004861202BC500C7846760A08760E7852D9
:1005D8000206AEE4FFFE7DC87CC278521204861281
:1005E80002BC6002500302070BE4FFFE7D207CC1C1
:1005F80078521204861202BC6005400302070B7889
:1006080046760E78520206ED7841760D7845760AE0
:1006180018760A18760A18760AE4FFFEFDFC783D7B
:100628001204861202BC4053783D12047A120384E5
:10063800EF75F0648475F00A847846A6F0EF75F0DB
:100648000A8475F00A8408A6F0783D12047A120329
:1006580084EF75F00A847848A6F0785676057856BF
:10066800E6FFC39407400302070B74412FF8E660C6
:100678000302070B760A78560680E3E4FFFE7D2026
:100688007CC1783D1204861202BC602D402BE4FF29
:10069800FEFDFC783D1204861202BC501C7846769A
:1006A8000A08760E783D12047A120335120384EF95
:1006B80075F00A847848A6F022E4FFFE7DC87CC263
:1006C800783D1204861202BC60394037E4FFFE7D93
:1006D800207CC1783D1204861202BC600250247846
:1006E80046760E783D12047A120335120384EF75AC
:1006F800F00A8475F00A847847A6F0EF75F00A844A
:0407080008A6F0222D
:10091300E47827F67851F67828E6FF70047E0180A4
:10092300027E007831A606EFB401047F0180027FC6
:10093300007832A6077828E6B402047F0180027F9C
:10094300007833A607784FE6FF70047E0180027EAD
:10095300007834A606EFB401047F0180027F00789B
:1009630035A607784FE67019783D12047A78391264
:1009730004861202BC600640047F0180197F008058
:1009830015783D12047A78391204861202BC500499
:0B0993007F0180027F007838A6072259
:10000300538EBF53890F758B18758DFCC28FD28E9B
:05001300D2ABD2AF22C8
:03001B000207FADF
:1007FA00C0E0C0F0C083C082C0D075D000C000C0C5
:10080A0001C002C003C004C005C006C007784D0677
:10081A00E6B414027600784A06E6B45A02760078FC
:10082A004E06E6B408027600784EE6FF2441F8E662
:10083A00FD7C00784EE62429F8E6FB7A00120A7558
:10084A00784EE6FF2431F8E6FD7C00120AB77851AB
:10085A00E624FF9201120B4E7827E624FF9201123A
:10086A000B71D007D006D005D004D003D002D00136
:0D087A00D000D0D0D082D083D0F0D0E032BA
:100C0300120AF2E4FBFA79AA78421202BC60F112EA
:050C13000BB20200031A
:0E0C1800120C0312070C1204B812091380F517
:100BB2007580FFE5A0541F4480F5A053A01FE4F503
:0D0BC20080E5A0541F44A0F5A053A0A02280
:10099E00E4FFC2C4D2C2D2B5D2B420B3027F0420C7
:1009AE00B2027F0520B1027F0620B0027F07D2C4BB
:1009BE00C2C2D2B5D2B420B3027F0820B2027F09E0
:1009CE0020B1027F0A20B0027F0BD2C4D2C2C2B5C0
:1009DE00D2B420B3027F0C20B2027F0D20B1027F71
:1009EE000E20B0027F0FD2C4D2C2D2B5C2B420B391
:1009FE00027F1020B2027F1120B1027F1220B002BE
:020A0E007F1354
:010A100022C3
:100A47000121000122FF0123000124FF01250001EC
:020A570026FF78
:100AB700ED4C600F7401A807088002C333D8FC42CD
:100AC70021800E7401A807088002C333D8FCF452B2
:100AD70021E52165226013E521F4F580E5A0541F87
:0A0AE7004480F5A053A01F852122D2
:010AF10022E2
:100B4E0030010543234080035323BFE52365246012
:100B5E0011852380E5A0541F44A0F5A053A01F8546
:020B6E0023243E
:010B70002262
:100B710030010543251080035325EFE525652660E7
:100B810011852580E5A0541F44A0F5A053A01F8521
:020B9100252617
:010B9300223F
:040BCF007F057E0020
:100BD300EF1FAA0670011E4A600BE4FDEDC3940CDF
:050BE30050EE0D80F74B
:010BE80022EA
:020B9400A907AF
:100B9600E4FBC294E9139294120BCFD294E9C313E7
:0C0BA600F90BBB08ED7F057E00020BD3AD
:100BE900E4FBC294ECC313FCD29430940343048015
:090BF900120BCF0BBB08EBAF049B
:010C020022CF
:100B2700C200D2947F0C7E00120BD3C2947F507EFA
:100B370000120BD3D2947F0A7E00120BD3A2949299
:060B470000120BCFA2001A
:010B4D002285
:100AF200120B277FCC120B947F44120B94120B27FC
:100B02007FCC120B947FBE120B94120BE9A9071231
:100B12000BE9EFAD01FCE412034BE4FBFA798078B8
:040B22004112021F5B
:010B260022AC
:100A59000F08C0F9A4B0999282F88090FFC68689E0
:0B0A6900BF08170102040810204080A5
:100A75007580FFE5A0541F44E0F5A053A01F74172F
:100A85002FF8E6F580E5A0541F44C0F5A053A01F3C
:100A9500EB4A600B74082DF8E6547FF580800774E7
:100AA500082DF8E6F580E5A0541F44E0F5A053A015
:020AB5001F22FE
:10001E00020402E86480F8E933E83360110460F00A
:10002E00ED33EC337009E8FCE9FDEAFEEBFF220448
:10003E0060DED3EB9FEA9EE99DE8C2E78CF0C2F743
:10004E0095F0400CE8CCF8E9CDF9EACEFAEBCFFB0F
:10005E001203CD85D0F05804700320D5B3E8047098
:10006E00075002B2D502040C92D5EC0460F7E4CC32
:10007E00C0E0C398F8603B94186008400DD0E0FBD8
:10008E000203E4E4FBFAC9FC8028E830E406E4C984
:10009E00FBE4CAFCE830E305E4C9CACBFCE854072C
:1000AE006010F8C3E913F9EA13FAEB13FBEC13FC37
:1000BE00D8F130F52FC3E49CFCEF9BFFEE9AFEEDDA
:1000CE0099FDD0E0FBEF4E4D4C701222DB03020483
:1000DE0009EC2CFCEF33FFEE33FEED33FDED30E794
:1000EE00EB0203E4EF2BFFEE3AFEED39FDD0E0FB21
:1000FE0050130BBB000302040CED13FDEE13FEEFC9
:08010E0013FFEC13FC0203E4F3
:10011600EC4D6011E8497017ED33EC3304600DE4E3
:10012600FCFFFEFD22E933E8330470F802040212F4
:1001360003CD58046009E4CC2481500628500902F6
:10014600040C284003020409C0E0EB4A7044B9805D
:1001560006D0E0FB0203F8EF4E701CBD8008EBFFF3
:10016600EAFEE9FD80EBE98DF0A4FEE5F00201FF71
:10017600E9CDF9EAFEEBFFEF89F0A4FCE5F0CE89C4
:10018600F0A42EFFE435F0CD89F0A42DFEE435F081
:100196008067EF4E7005BD80D780C3EF8BF0A4ACAF
:1001A600F0EE8BF0A42CFCE435F0F8EF8AF0A42CEA
:1001B600E5F038FCE433CB8DF0A42CFCE5F03BF8FD
:1001C600EE8AF0A42CFCE5F038F8E433CF89F0A4ED
:1001D6002CFCE5F038CF3400CE89F0A42FFFE5F0F3
:1001E6003EFEE433C98DF0A42EFEE5F039CD8AF04B
:1001F600A42FFFE5F03EFEE43DFD33D0E0FB5007C3
:100206000BBB000F02040CEC2CFCEF33FFEE33FEAD
:06021600ED33FD0203E4DC
:10021C0002040CEC5D046005E8590470030204024E
:10022C001203CD580460F6EC4860F2EC7004FDFE4D
:10023C00FF22C860DB2481C85009C39860025006B5
:10024C000204099850CAF582E9294B4A7005AB8221
:10025C000203F875F0007C1A7880C3EF9BEE9AEDE0
:10026C0099400DC3EF9BFFEE9AFEED99FDE842F02D
:10027C00DC23ACF0D0E0FFD0E0FED0E0FDAB822080
:10028C00E7101BEB60BAEC2CFCEF33FFEE33FEED0A
:10029C0033FD0203E4E803F830E705C0F075F00025
:1002AC00EF2FFFEE33FEED33FD40B830E7C280AAEE
:1002BC0074F8CC6480CCC86480C8F58204604FC3E9
:1002CC00EB9FF5F0EA9E42F0E99D42F0E89C45F088
:1002DC00603C501DE5825FFFE582D313CB5BCBF412
:1002EC002B5582FB50280ABA002409B9002008803B
:1002FC001DE5825BFBE582D313CF5FCFF4C3132FD5
:10030C005582FF50090EBE00050DBD00010CC3EB5C
:10031C009FF5F0EA9E42F0E99D42F0E89C45F060C2
:09032C0007CC4820E701B3EC22E4
:10033500ED33EC33600A047003BD8004ECB2E7FCD6
:010345002295
:1003460075F020800E75F010800575F0087D007E32
:10035600007F003392D530D50312046CEC33401085
:10036600EF33FFEE33FEED33FDEC33FCD5F0ED223B
:0E037600E5F0247EA2D513CC92E7CDCEFF2277
:10038400EDD2E7CD33EC3392D524814006E4FFFE71
:10039400FDFC22FCE4CFCECDCC24E0501174FF80D0
:1003A400EDC3CC13CCCD13CDCE13CECF13CF04706D
:0703B400F030D5DE02046CFD
:1003BB0088827D80E4FEFF120486120025A882024B
:0203CB00049399
:1003CD00E9D2E7C933E833F892D5EDD2E7CD33EC76
:0703DD0033FC5002B2D522EF
:1003E400EC30E7100FBF000C0EBE00080DBD00047A
:1003F4000BEB6014A2D5EB13FCED92E7FD2274FF26
:10040400FCFDFEFF22E480F8A2D574FF13FC7D807E
:03041400E480EF92
:10089300020C18E493A3F8E493A34003F68001F257
:1008A30008DFF48029E493A3F85407240CC8C33366
:1008B300C4540F4420C8834004F456800146F6DF35
:1008C300E4800B0102040810204080900A11E47EAA
:1008D300019360BCA3FF543F30E509541FFEE4932A
:1008E300A360010ECF54C025E060A840B8E493A3F1
:1008F300FAE493A3F8E493A3C8C582C8CAC583CA1C
:10090300F0A3C8C582C8CAC583CADFE9DEE780BED3
:010A74000081
:10041700BC000BBE0029EF8DF084FFADF022E4CCC9
:10042700F875F008EF2FFFEE33FEEC33FCEE9DEC92
:10043700984005FCEE9DFE0FD5F0E9E4CEFD22EDD8
:10044700F8F5F0EE8420D21CFEADF075F008EF2F22
:10045700FFED33FD4007985006D5F0F222C398FD13
:050467000FD5F0EA22B0
:0E046C00C3E49FFFE49EFEE49DFDE49CFC22A1
:0C047A00E6FC08E6FD08E6FE08E6FF22AE
:0D048600E6FB08E6F908E6FA08E6CBF822E6
:0C049300ECF608EDF608EEF608EFF62295
:10049F00D083D082E493F608740193F60874029324
:0904AF00F608740393F67404735B
:00000001FF
