:030000000208C132
:0C08C100787FE4F6D8FD75815F0209081D
:1009C20008460A0A0A0A0A0A0A0A082E0000000051
:1009D2000000000008380000000000000000015D77
:0C09E20000012700012D00012C01C18143
:10082C007854E660030208C078547601120B79788C
:10083C0053A607E6FF1866FE5FFF784EF67853E680
:10084C00FDF45E785CF67852A605BF0702D20078FC
:10085C005CE6B407267840B6030B08B6E807A2019D
:10086C00B39201800E785AE6FE08E6FF7850A60691
:10087C0008A607E47840F608F6C200784EE624FB9A
:10088C00601A1460252402702B782D06E6B403023E
:10089C00E4F6782DE6B4021C18760122782CE6B426
:1008AC000103760322782C760122782812035F78D4
:0508BC00551203782233
:10045200784FE624C4602124E2603C243C70527F41
:1004620001120B09AC07E4120247E4FBFA794C785B
:100472004212012778428036785AE6FE08E6FBAA45
:1004820006E4F9F87F407E427D0FFC120A1C785E7A
:10049200A60608A607801A7F03120B09AC07E4120E
:1004A2000247E4FBFA794C784212012778281203BA
:1004B20078784FE6600302074A784F7601782DE696
:1004C2001470030205C31470030206AD2402600314
:1004D20002074AE47833F67846760B785AE6FE0845
:1004E200E6FFE4FCFD7B407A42790FF8120A1CE435
:1004F2007B0AFAF9F8120A1CAF037847A607785A62
:10050200E6FE08E6FFE4FCFD7BA07A867901F8129C
:100512000A1CE47B0AFAF9F8120A1CAF037848A60F
:1005220007785AE6FA08E6FB7C277D10FFAE021236
:1005320002FC7C007D0A1202FC7849A6057C037D40
:10054200E8AF03AE021202FC7C007D0A1202FC78C4
:100552004AA605785AE6FA08E6FB7C007D64FFAEFF
:10056200021202FC7C007D0A1202FC784BA6057C7A
:10057200007D0AAF03AE021202FC7C007D0A120269
:10058200FC784CA605785AE6FE08E6FF7C007D0A58
:100592001202FC784DA6057847E67002760A751FAE
:1005A200017446251FF8E670107445251FF8E6B45D
:1005B2000A077446251FF8760A051FE51FB408E1ED
:1005C200227846760C785EE6FE08E6FFE4FCFD7BC8
:1005D200407A42790FF8120A1CE47B0AFAF9F812FF
:1005E2000A1CAF037847A607785EE6FE08E6FFE43A
:1005F200FCFD7BA07A867901F8120A1CE47B0AFAD8
:10060200F9F8120A1CAF037848A607785EE6FA08E2
:10061200E6FB7C277D10FFAE021202FC7C007D0A05
:100622001202FC7849A6057C037DE8AF03AE0212F4
:1006320002FC7C007D0A1202FC784AA605785EE67E
:10064200FA08E6FB7C007D64FFAE021202FC7C002D
:100652007D0A1202FC784BA6057C007D0AAF03AE30
:10066200021202FC7C007D0A1202FC784CA605787C
:100672005EE6FE08E6FF7C007D0A1202FC784DA6CB
:10068200057847E67002760A751F017446251FF841
:10069200E670107445251FF8E6B40A077446251F54
:1006A200F8760A051FE51FB408E1227846760D08A0
:1006B200760E782CE6FF7848F608760A08760A78ED
:1006C200337601EF64017037784212035F12027BC6
:1006D200EF75F00A84784BA6F0E4FFFE7D207C41A2
:1006E200784212036B12001E12027BEF75F00A842D
:1006F200784CA6F0E4FFFE7DC87C427842803578D3
:100702002812035F12027BEF75F00A84784BA6F081
:10071200E4FFFE7D207C41782812036B12001E123A
:10072200027BEF75F00A84784CA6F0E4FFFE7DC8E8
:100732007C42782812036B12001E12027B7C007D21
:080742000A1202FC784DA60525
:01074A00228C
:10094D00E47827F6785DF6300161785512035F780B
:10095D002812036B1201C4600640047F0180027FE0
:10096D00007838A607D3795BE778519619E7189682
:10097D0040047F0180027F007839A607782DE6FFBD
:10098D0070047E0180027E00783AA606EFB4010461
:10099D007F0180027F00783BA607782DE6B4020424
:1009AD007F0180027F00783CA607227F087838E41B
:0409BD00F608DFFC5D
:0109C1002213
:100C1500538E7F5389F0438905E4F58AF58CC28D9F
:030C2500D28C224C
:100BEB00538EBF53890F758B18758DFCC28FD28EA8
:050BFB00D2ABD2AF22D5
:03001B0002074B8E
:10074B00C0E0C0F0C083C082C0D075D000C000C074
:10075B0001C002C003C004C005C006C00778540620
:10076B00E6B414027600784F06E6B464027600789D
:10077B00360806E618700106FF8606BE031FBFE8A3
:10078B001CC28C78367600087600AF8CEFAD8A7879
:10079B005AF6ED08F6758A00758C00D28C30001C69
:1007AB0078400806E6187001068606C394E8EE94B6
:1007BB00034010784076030876E88007784076008F
:1007CB00087600785906E6B4080276007859E6FFF9
:1007DB002446F8E6FD7C007859E6242EF8E6FB7AF1
:1007EB0000120A607859E6FF2438F8E6FD7C001207
:1007FB000AA2785DE624FF9202120B337827E624D7
:10080B00FF9202120B56D007D006D005D004D003AE
:10081B00D002D001D000D0D0D082D083D0F0D0E0A5
:01082B00329A
:0E0C3700120B977F01120B09120BEB020C152A
:0E0C4500120C3712082C12045212094D80F5C1
:100B97007580FFE5A0541F4480F5A053A01FE4F51E
:0D0BA70080E5A0541F44A0F5A053A01F221C
:100B7900E4FFC2A920B3027F0420B2027F0520B19D
:0D0B8900027F0620B0027F07D2A975B0FFE1
:010B9600223C
:1009EE000121000122FF0123000124FF0125000146
:0209FE0026FFD2
:100AA200ED4C600F7401A807088002C333D8FC42E2
:100AB20021800E7401A807088002C333D8FCF452C7
:100AC20021E52165226013E521F4F580E5A0541F9C
:0A0AD2004480F5A053A01F852122E7
:010ADC0022F7
:100B330030020543234080035323BFE5236524602C
:100B430011852380E5A0541F44A0F5A053A01F8561
:020B5300232459
:010B5500227D
:100B560030020543251080035325EFE52565266001
:100B660011852580E5A0541F44A0F5A053A01F853C
:020B7600252632
:010B7800225A
:100A00000F08C0F9A4B0999282F88090FF8EC8C1F7
:0B0A1000BF08170102040810204080FE
:100A60007580FFE5A0541F44E0F5A053A01F741744
:100A70002FF8E6F580E5A0541F44C0F5A053A01F51
:100A8000EB4A600B74082DF8E6547FF580800774FC
:100A9000082DF8E6F580E5A0541F44E0F5A053A02A
:020AA0001F2213
:040BD100D2A07F0A25
:100BD500000000000000000000000000000000AE62
:060BE500071FEE70EB2279
:0F0C2800D2A1120BD1C2A17F0A120BD5C2A022FA
:0C0C5300C2A1120BD1D2A17F0A020BD566
:020ADD00AD0763
:100ADF00E4FCC2A07F0A120BD5ED30E704D2A1804F
:100AEF0002C2A17F0A120BD5D2A0ED25E0FD7F0A2D
:090AFF00120BD50CBC08DBC2A0EF
:010B080022CA
:100BB400E4FC120BD1ED25E0FD30A103430501C295
:0C0BC400A07F0A120BD50CBC08E8AF059E
:010BD0002202
:030C0000120ADDF8
:100C0300120BD1A2A1E433FDC2A07F0A120BD5AF10
:010C130005DB
:010C140022BD
:10000300C2A0EF24FF92A17F0A120BD5120BD1C21B
:08001300A0D2A17F0A020BD567
:020B0900AB0738
:100B0B00120C287F90120C00AF03120C00120C2851
:100B1B007F91120ADD120C03120BB4AD077F011289
:070B2B000003120C53AF059B
:010B320022A0
:10001E00EC4D6011E8497017ED33EC3304600DE4DC
:10002E00FCFFFEFD22E933E8330470F80202E7120A
:10003E0002B258046009E4CC24815006285009020B
:10004E0002F12840030202EEC0E0EB4A7044B98090
:10005E0006D0E0FB0202DDEF4E701CBD8008EBFF08
:10006E00EAFEE9FD80EBE98DF0A4FEE5F002010762
:10007E00E9CDF9EAFEEBFFEF89F0A4FCE5F0CE89BD
:10008E00F0A42EFFE435F0CD89F0A42DFEE435F07A
:10009E008067EF4E7005BD80D780C3EF8BF0A4ACA8
:1000AE00F0EE8BF0A42CFCE435F0F8EF8AF0A42CE3
:1000BE00E5F038FCE433CB8DF0A42CFCE5F03BF8F6
:1000CE00EE8AF0A42CFCE5F038F8E433CF89F0A4E6
:1000DE002CFCE5F038CF3400CE89F0A42FFFE5F0EC
:1000EE003EFEE433C98DF0A42EFEE5F039CD8AF044
:1000FE00A42FFFE5F03EFEE43DFD33D0E0FB5007BC
:10010E000BBB000F0202F1EC2CFCEF33FFEE33FEC3
:06011E00ED33FD0202C9F1
:100124000202F1EC5D046005E8590470030202E781
:100134001202B2580460F6EC4860F2EC7004FDFE62
:10014400FF22C860DB2481C85009C39860025006AE
:100154000202EE9850CAF582E9294B4A7005AB8237
:100164000202DD75F0007C1A7880C3EF9BEE9AEDF5
:1001740099400DC3EF9BFFEE9AFEED99FDE842F026
:10018400DC23ACF0D0E0FFD0E0FED0E0FDAB822079
:10019400E7101BEB60BAEC2CFCEF33FFEE33FEED03
:1001A40033FD0202C9E803F830E705C0F075F0003A
:1001B400EF2FFFEE33FEED33FD40B830E7C280AAE7
:1001C40074F8CC6480CCC86480C8F58204604FC3E2
:1001D400EB9FF5F0EA9E42F0E99D42F0E89C45F081
:1001E400603C501DE5825FFFE582D313CB5BCBF40B
:1001F4002B5582FB50280ABA002409B90020088034
:100204001DE5825BFBE582D313CF5FCFF4C3132FCD
:100214005582FF50090EBE00050DBD00010CC3EB55
:100224009FF5F0EA9E42F0E99D42F0E89C45F060BB
:0902340007CC4820E701B3EC22DD
:10023D0075F020800E75F010800575F0087D007E3C
:10024D00007F003392D530D503120351EC334010AB
:10025D00EF33FFEE33FEED33FDEC33FCD5F0ED2245
:0E026D00E5F0247EA2D513CC92E7CDCEFF2281
:10027B00EDD2E7CD33EC3392D524814006E4FFFE7B
:10028B00FDFC22FCE4CFCECDCC24E0501174FF80DA
:10029B00EDC3CC13CCCD13CDCE13CECF13CF047077
:0702AB00F030D5DE02035123
:1002B200E9D2E7C933E833F892D5EDD2E7CD33EC92
:0702C20033FC5002B2D5220B
:1002C900EC30E7100FBF000C0EBE00080DBD000496
:1002D9000BEB6014A2D5EB13FCED92E7FD2274FF42
:1002E900FCFDFEFF22E480F8A2D574FF13FC7D809B
:0302F900E480EFAF
:1008CD00020C45E493A3F8E493A34003F68001F2F0
:1008DD0008DFF48029E493A3F85407240CC8C3332C
:1008ED00C4540F4420C8834004F456800146F6DFFB
:1008FD00E4800B01020408102040809009C2E47EC0
:10090D00019360BCA3FF543F30E509541FFEE493EF
:10091D00A360010ECF54C025E060A840B8E493A3B6
:10092D00FAE493A3F8E493A3C8C582C8CAC583CAE1
:10093D00F0A3C8C582C8CAC583CADFE9DEE780BE99
:010A1B0000DA
:1002FC00BC000BBE0029EF8DF084FFADF022E4CCE6
:10030C00F875F008EF2FFFEE33FEEC33FCEE9DECAE
:10031C00984005FCEE9DFE0FD5F0E9E4CEFD22EDF4
:10032C00F8F5F0EE8420D21CFEADF075F008EF2F3E
:10033C00FFED33FD4007985006D5F0F222C398FD2F
:05034C000FD5F0EA22CC
:100A1C00C2D5E830E70FB2D5E4C39BFBE49AFAE405
:100A2C0099F9E498F8EC30E717B2D5120A52120390
:100A3C00C0E4C39BFBE49AFAE499F9E498F88003C8
:100A4C001203C030D50DE4C39FFFE49EFEE49DFD70
:040A5C00E49CFC22F8
:0E035100C3E49FFFE49EFEE49DFDE49CFC22BD
:0C035F00E6FC08E6FD08E6FE08E6FF22CA
:0D036B00E6FB08E6F908E6FA08E6CBF82202
:0C037800ECF608EDF608EEF608EFF622B1
:1003840075F008758200EF2FFFEE33FECD33CDCC30
:1003940033CCC58233C5829BED9AEC99E5829840B3
:1003A4000CF582EE9BFEED9AFDEC99FC0FD5F0D690
:1003B400E4CEFBE4CDFAE4CCF9A88222B800C1B9BA
:1003C4000059BA002DEC8BF084CFCECDFCE5F0CBF8
:1003D400F97818EF2FFFEE33FEED33FDEC33FCEB31
:1003E40033FB10D703994004EB99FB0FD8E5E4F9EC
:1003F400FA227818EF2FFFEE33FEED33FDEC33FCD9
:10040400C933C910D7059BE99A4007EC9BFCE99ACC
:10041400F90FD8E0E4C9FAE4CCFB2275F010EF2F11
:10042400FFEE33FEED33FDCC33CCC833C810D70711
:100434009BEC9AE899400AED9BFDEC9AFCE899F84C
:0E0444000FD5F0DAE4CDFBE4CCFAE4C8F922DF
:00000001FF
