:10072800083E0A0A0A0A0A0A0A0A082500000000FE
:1007380000000000082D0000000000000000032158
:1007480023595003550000000349235950033B0027
:100758000000C101012400015800015200025300A9
:1007680000C102024F0000C1000239000004350038
:030778000000007E
:1003BC00E54D600302054D754D011206B58F4CE5F8
:1003CC0048654CFF554CF546E54CF45FF551854CB2
:1003DC0048E524700DE548B404057558018003E424
:1003EC00F558300115E546700302054DC201E4F5E0
:1003FC004FF550C200F539F53A22E54624FB606C06
:10040C00147003020505147003020526240360030F
:10041C0002054DE5246401702574482552F81674C4
:10042C00482552F8E6540FFFBF0F0474FA26F674F1
:10043C00482552F8E664F9600302054DF622E524DE
:10044C006402600302054D743A2552F816743A257D
:10045C0052F8E6540FFFBF0F0474FA26F6743A25CF
:10046C0052F8E664F9600302054DF622E5246401B6
:10047C00704274482552F80674482552F8E6540F19
:10048C00FFBF0A04740626F6E552B40108E54AB427
:10049C002403754A23E55264026009E55264036043
:1004AC000302054D74482552F8E6646060030205AA
:1004BC004D765922E5246402600302054D743A25F9
:1004CC0052F806743A2552F8E6540FFFBF0A04742A
:1004DC000626F6E552B40108E53CB42403753C232A
:1004EC00E55264026006E55264037055743A255275
:1004FC00F8E66460704B765922E52460046402705F
:10050C00407524020552E55264047035F524F55209
:10051C00853B55853C56853D5722E5246003B40147
:10052C00207524010552E552B40416E4F524F55265
:10053C00854921854A22854B23FB7A0079211208B3
:02054C00752216
:1001F500E54760030203BB75470112080C8F388E73
:10020500378D368C357B007A0079211208CBE5587D
:10021500600302038FE52414604414700302030D88
:10022500240260030203BBE521C4540FF53EE5211A
:10023500540FF53F75400BE522C4540FF541E522F7
:10024500540FF54275430BE523C4540FF544E523DC
:10025500540FF54585214985224A85234B22E552D0
:1002650024FE6036146069240260030203BB300279
:1002750008E549C4540FFF80027F0A8F3E3002070C
:10028500E549540FFF80027F0A8F3FE54AC4540FAA
:10029500F541E54A540FF542802AE549C4540FF566
:1002A5003EE549540FF53F300208E54AC4540FFFB7
:1002B50080027F0A8F41300207E54A540FFF800212
:1002C5007F0A8F42E54BC4540FF544E54B02038A80
:1002D500E549C4540FF53EE549540FF53FE54AC4D9
:1002E500540FF541E54A540FF542300208E54BC479
:1002F500540FFF80027F0A8F44300207E54B540FED
:10030500FF80027F0A8F4522E55224FE602F14608C
:1003150051240260030203BBE53BC4540FF53EE5DF
:100325003B540FF53FE53CC4540FF541E53C540FF4
:10033500F542E53DC4540FF544E53D8048E53BC431
:10034500540FF53EE53B540FF53FE53CC4540FF51E
:1003550041E53C540FF542E53DC4540FF544E53DF8
:100365008023E53BC4540FF53EE53B540FF53FE5CF
:100375003CC4540FF541E53C540FF542E53DC454EA
:100385000FF544E53D540FF54522753E0A753F0AC4
:1003950075400A75410A75420AAF38AE37AD36ACBD
:1003A500351200ECEF75F00A84F543EF75F00A8419
:0703B50085F04475450C22A0
:1009840030010C3000047F0180027F008F2D22E4AF
:03099400F52D221C
:10095B00538E7F5389F0758A18758CFCC28DD28C9F
:05096B00D2A9D2AF2269
:03000B0002054E9D
:10054E00C0E0C0F0C083C082C0D075D000C000C073
:10055E0001C002C003C004C005C006C007054DE5BA
:10056E004DB41403754D000547AF477E00BE01061E
:10057E00BFF403754700054EE54EB40803754E00F3
:10058E00743E254EF8E6FD7C007425254EF8E6FBFC
:10059E007A00AF4E120795742D254EF8E6FD7C00BD
:1005AE00AF4E1207D7E52460190554E554700205C5
:1005BE0053FFAE53BE030BBFE808755300755400CE
:1005CE00B202E521B5550CE522B55607E523B55720
:1005DE0002D20130012A0550E5507002054F64C861
:1005EE00454F700EF54FF550053AE53A7002053954
:1005FE00B200E53A641945397006C201F539F53A8B
:10060E00D007D006D005D004D003D002D001D00040
:0B061E00D0D0D082D083D0F0D0E032EA
:0F09AA0012090A12095B7B007A00792102087595
:0E09B9001209AA1203BC1201F512098480F57E
:10090A007580FFE5A0541F4480F5A053A01FE4F5AD
:0D091A0080E5A0541F44A0F5A053A01F22AB
:1006B500E4FFC2C4D2C2D2B5D2B420B3027F0420B3
:1006C500B2027F0520B1027F0620B0027F07D2C4A7
:1006D500C2C2D2B5D2B420B3027F0820B2027F09CC
:1006E50020B1027F0A20B0027F0BD2C4D2C2C2B5AC
:1006F500D2B420B3027F0C20B2027F0D20B1027F5D
:100705000E20B0027F0FD2C4D2C2D2B5C2B420B37C
:10071500027F1020B2027F1120B1027F1220B002A9
:020725007F1340
:0107270022AF
:1007D700E4FE7BFFED4C600F7401A807088002C39D
:1007E70033D8FC4206800E7401A807088002C33381
:1007F700D8FCF45206EEF4F580E5A0541F4480F5CA
:04080700A053A01F3B
:01080B0022CA
:10077B000D08C0F9A4B0999282F88090FFBFC6080B
:09078B0015010204081020408051
:10079500E4F580E5A0541F44E0F5A053A01F7415AF
:1007A5002FF8E6F580E5A0541F44C0F5A053A01F1F
:1007B500EB4A600B74082DF8E6547FF580800774CA
:1007C500082DF8E6F580E5A0541F44E0F5A053A0F8
:0207D5001F22E1
:10099700E4FEC297EF1392A3EFC313FFD2970EBEE5
:0209A70008F056
:0109A900222B
:10097000C29300C29700D29300120997AF051209E3
:0409800097C2932265
:10084100E4FDC29300C29700D29300120997E4FF1E
:10085100C297EDC313FD30A303430580D2970FBFA9
:1008610008EEC29300C29700D29700C2A300D2A3A0
:0308710000AF05D0
:010874002261
:10087500E4FD7F8E12097012016DFD7F84120970EF
:10088500900001120186FD7F82120970900002120C
:0F0895000186FD7F80120970E4FD7F8E020970DD
:1008CB007F85120841EF1201B37F8312084190001C
:1008DB0001EF1201C57F81120841900002EF020166
:0108EB00C547
:040927007F057E00CA
:10092B00EF1FAA0670011E4A600BE4FDEDC3940C89
:05093B0050EE0D80F7F5
:010940002294
:0208EC00A9075A
:1008EE00E4FBC294E9139294120927D294E9C3133C
:0C08FE00F90BBB08ED7F057E0002092B02
:10094100E4FBC294ECC313FCD294309403430480BF
:090951001209270BBB08EBAF04EF
:01095A00227A
:1008A400C203D2947F0C7E0012092BC2947F507E27
:1008B4000012092BD2947F0A7E0012092BA2949273
:0608C40003120927A20344
:0108CA00220B
:10080C001208A47FCC1208EC7F441208EC1208A446
:10081C007FCC1208EC7FBE1208EC120941A907121A
:10082C000941EFAD01FCE41200B3E4FBFA798078E6
:04083C004112001154
:010840002295
:10000E00020162EC5D046005E859047003020158B8
:10001E00120123580460F6EC4860F2EC7004FDFE09
:10002E00FF22C860DB2481C85009C39860025006C5
:10003E0002015F9850CAF582E9294B4A7005AB82DE
:10004E0002014E75F0007C1A7880C3EF9BEE9AED9C
:10005E0099400DC3EF9BFFEE9AFEED99FDE842F03D
:10006E00DC23ACF0D0E0FFD0E0FED0E0FDAB822090
:10007E00E7101BEB60BAEC2CFCEF33FFEE33FEED1A
:10008E0033FD02013AE803F830E705C0F075F000E1
:10009E00EF2FFFEE33FEED33FD40B830E7C280AAFE
:1000AE0075F020800E75F010800575F0087D007ECD
:1000BE00007F003392D530D5031201E7EC334010A8
:1000CE00EF33FFEE33FEED33FDEC33FCD5F0ED22D6
:0E00DE00E5F0247EA2D513CC92E7CDCEFF2212
:1000EC00EDD2E7CD33EC3392D524814006E4FFFE0C
:1000FC00FDFC22FCE4CFCECDCC24E0501174FF806B
:10010C00EDC3CC13CCCD13CDCE13CECF13CF047007
:07011C00F030D5DE0201E71F
:10012300E9D2E7C933E833F892D5EDD2E7CD33EC22
:0701330033FC5002B2D5229B
:10013A00EC30E7100FBF000C0EBE00080DBD000426
:10014A000BEB6014A2D5EB13FCED92E7FD2274FFD2
:10015A00FCFDFEFF22E480F8A2D574FF13FC7D802B
:03016A00E480EF3F
:03000000020629CC
:0C062900787FE4F6D8FD75815802067059
:10016D00BB010689828A83E0225002E722BBFE0290
:09017D00E32289828A83E49322C3
:10018600BB010CE58229F582E5833AF583E022502E
:1001960006E92582F8E622BBFE06E92582F8E22278
:0D01A600E58229F582E5833AF583E4932292
:1001B300BB010689828A83F0225002F722BBFE012B
:0201C300F32225
:1001C500F8BB010DE58229F582E5833AF583E8F070
:1001D500225006E92582C8F622BBFE05E92582C81C
:0201E500F22204
:0E01E700C3E49FFFE49EFEE49DFDE49CFC2229
:100635000209B9E493A3F8E493A34003F68001F219
:1006450008DFF48029E493A3F85407240CC8C333C6
:10065500C4540F4420C8834004F456800146F6DF95
:10066500E4800B0102040810204080900728E47EF6
:10067500019360BCA3FF543F30E509541FFEE4938A
:10068500A360010ECF54C025E060A840B8E493A351
:10069500FAE493A3F8E493A3C8C582C8CAC583CA7C
:1006A500F0A3C8C582C8CAC583CADFE9DEE780BE34
:010794000064
:00000001FF
