:030000000207F202
:0C07F200787FE4F6D8FD758158020839C4
:10087E00083F0A0A0A0A0A0A0A0A082900000000A2
:10088E0000000000015300012700083300000000A3
:0B089E0000000000012800C101C100A3
:10092600784CE67048784C76011208D5784BA607C5
:10093600E6FF1866FE5FFF7848F6784BE6FDF45E44
:100946007852F6784AA605EF24FB601424FC60155D
:1009560024057019C201782806E6B40210E4F622CE
:0E096600D201D20022C201E47828F6C200229B
:100464007849E660030206EB78497601120A81783E
:100474003B12038A783B12037112027B7847A6076A
:10048400784EE6FE08E6FBAA06E4F9F87F407E42D1
:100494007D0FFC1209C07857A60608A6077828E63F
:1004A40014700302064A0460030206EBE4782FF694
:1004B400783F760B30010302056D784EE6FE08E6C0
:1004C400FFE4FCFD7B407A42790FF81209C0E47B1B
:1004D4000AFAF9F81209C0AF037840A607784EE685
:1004E400FE08E6FFE4FCFD7BA07A867901F8120998
:1004F400C0E47B0AFAF9F81209C0AF037841A607F1
:10050400784EE6FA08E6FB7C277D10FFAE02120364
:100514000E7C007D0A12030E7842A6057C037DE85A
:10052400AF03AE0212030E7C007D0A12030E784361
:10053400A605784EE6FA08E6FB7C007D64FFAE0271
:1005440012030E7C007D0A12030E7844A6057C007B
:100554007D0AAF03AE0212030E7C007D0A12030E65
:100564007845A605784E0206197857E6FE08E6FF98
:10057400E4FCFD7B407A42790FF81209C0E47B0A5F
:10058400FAF9F81209C0AF037840A6077857E6FED7
:1005940008E6FFE4FCFD7BA07A867901F81209C025
:1005A400E47B0AFAF9F81209C0AF037841A6077888
:1005B40057E6FA08E6FB7C277D10FFAE0212030E15
:1005C4007C007D0A12030E7842A6057C037DE8AF09
:1005D40003AE0212030E7C007D0A12030E7843A6BA
:1005E400057857E6FA08E6FB7C007D64FFAE02124C
:1005F400030E7C007D0A12030E7844A6057C007D60
:100604000AAF03AE0212030E7C007D0A12030E78B9
:1006140045A6057857E6FE08E6FF7C007D0A12032E
:100624000E7846A605785676017856E6FFC39407F9
:1006340040030206EB743F2FF8E660030206EB76F4
:100644000A78560680E3783F760C7843760A187663
:100654000A18760A18760A20015FE4FFFE7D207CE2
:1006640041783B12037D1201C450047F0A80137841
:100674003B12037112027BEF75F00A8475F00A8451
:10068400AFF07844A607783B12037112027BEF7532
:10069400F00A847845A6F0782F7601E4FFFE7D20E9
:1006A4007C41783B12037D12001E12027B7C007D8C
:1006B4000A12030E7846A605227844760A7847E69D
:1006C400FFC3940A50047F0A800BEF75F00A847507
:1006D400F00A84AFF07845A607E4782FF67847E669
:0806E40075F00A8418A6F0224B
:10097400E47827F67853F67828E6FF70047E018041
:10098400027E007833A606EFB401047F0180027F63
:10099400007834A607A200E43308F6E4FFFE7DF0F5
:1009A4007C41783B12037D1201C460094007A20216
:0C09B400E433FF80027F00783AA607229F
:100BA700538E7F5389F0438905E4F58AF58CC28D0E
:030BB700D28C22BB
:100B9200538EBF53890F758B18758DFCC28FD28E01
:050BA200D2ABD2AF222E
:03001B000206ECEE
:1006EC00C0E0C0F0C083C082C0D075D000C000C0D4
:1006FC0001C002C003C004C005C006C007784C0688
:10070C00E6B414027600784906E6B45A027600780C
:10071C00500806E618700106860664644E702A7846
:10072C0050F608F6AF8CEFAD8A784EF6ED08F61859
:10073C00E6FE08E6FF7C007D0A1202FC784EA60657
:10074C0008A607758A00758C0030001B78310806E6
:10075C00E618700106FF8606BE030CBFE809783167
:10076C007600087600C200E4FFFE7DF07C41783B09
:10077C0012037D1201C46010400E785406E6B46476
:10078C00077600A202B39202784D06E6B408027610
:10079C0000784DE6FF243FF8E6FD7C00784DE6241A
:1007AC0029F8E6FB7A00120A04784DE6FF2433F8A8
:1007BC00E6FD7C00120A467853E624FF9204120AE6
:1007CC00DD7827E624FF9204120B00D007D006D068
:1007DC0005D004D003D002D001D000D0D0D082D02C
:0607EC0083D0F0D0E032E2
:10000300120A81E4FBFA79AA78421201C460F11260
:080013000B41120BA7020B9236
:0E0BBA0012000312092612046412097480F559
:100B41007580FFE5A0541F4480F5A053A01FE4F574
:0D0B510080E5A0541F44A0F5A053A0A022F1
:1008D500E4FFC2C4D2C2D2B520B3027F0420B20263
:1008E5007F0520B1027F0620B0027F07D2C4C2C2B5
:1008F500D2B520B3027F0820B2027F0920B1027F62
:100905000A20B0027F0BD2C4D2C2C2B520B3027F87
:100915000C20B2027F0D20B1027F0E20B0027F0FA6
:0109250022AF
:1008A9000121000122FF0123000124FF012500018C
:0208B90026FF18
:100A4600ED4C600F7401A807088002C333D8FC423E
:100A560021800E7401A807088002C333D8FCF45223
:100A660021E52165226013E521F4F580E5A0541FF8
:0A0A76004480F5A053A01F85212243
:010A80002253
:100ADD0030040543234080035323BFE52365246081
:100AED0011852380E5A0541F44A0F5A053A01F85B8
:020AFD002324B0
:010AFF0022D4
:100B000030040543251080035325EFE52565266055
:100B100011852580E5A0541F44A0F5A053A01F8592
:020B2000252688
:010B220022B0
:1008BB000D08C0F9A4B0999282F88090FF8CC608FD
:0908CB0015010204081020408010
:100A04007580FFE5A0541F44E0F5A053A01F7415A2
:100A14002FF8E6F580E5A0541F44C0F5A053A01FAD
:100A2400EB4A600B74082DF8E6547FF58080077458
:100A3400082DF8E6F580E5A0541F44E0F5A053A086
:020A44001F226F
:040B5E007F057E0091
:100B6200EF1FAA0670011E4A600BE4FDEDC3940C50
:050B720050EE0D80F7BC
:010B7700225B
:020B2300A90720
:100B2500E4FBC294E9139294120B5ED294E9C313C9
:0C0B3500F90BBB08ED7F057E00020B628F
:100B7800E4FBC294ECC313FCD29430940343048086
:090B8800120B5E0BBB08EBAF047D
:010B91002241
:100AB600C203D2947F0C7E00120B62C2947F507EDA
:100AC60000120B62D2947F0A7E00120B62A29492ED
:060AD60003120B5EA203F7
:010ADC0022F7
:100A8100120AB67FCC120B237F44120B23120AB633
:100A91007FCC120B237FBE120B23120B78A90712F6
:100AA1000B78EFAD01FCE4120242E4FBFA798078A5
:040AB10041120127C6
:010AB500221E
:10001E00EC4D6011E8497017ED33EC3304600DE4DC
:10002E00FCFFFEFD22E933E8330470F80202E7120A
:10003E0002B258046009E4CC24815006285009020B
:10004E0002F12840030202EEC0E0EB4A7044B98090
:10005E0006D0E0FB0202DDEF4E701CBD8008EBFF08
:10006E00EAFEE9FD80EBE98DF0A4FEE5F002010762
:10007E00E9CDF9EAFEEBFFEF89F0A4FCE5F0CE89BD
:10008E00F0A42EFFE435F0CD89F0A42DFEE435F07A
:10009E008067EF4E7005BD80D780C3EF8BF0A4ACA8
:1000AE00F0EE8BF0A42CFCE435F0F8EF8AF0A42CE3
:1000BE00E5F038FCE433CB8DF0A42CFCE5F03BF8F6
:1000CE00EE8AF0A42CFCE5F038F8E433CF89F0A4E6
:1000DE002CFCE5F038CF3400CE89F0A42FFFE5F0EC
:1000EE003EFEE433C98DF0A42EFEE5F039CD8AF044
:1000FE00A42FFFE5F03EFEE43DFD33D0E0FB5007BC
:10010E000BBB000F0202F1EC2CFCEF33FFEE33FEC3
:06011E00ED33FD0202C9F1
:100124000202F1EC5D046005E8590470030202E781
:100134001202B2580460F6EC4860F2EC7004FDFE62
:10014400FF22C860DB2481C85009C39860025006AE
:100154000202EE9850CAF582E9294B4A7005AB8237
:100164000202DD75F0007C1A7880C3EF9BEE9AEDF5
:1001740099400DC3EF9BFFEE9AFEED99FDE842F026
:10018400DC23ACF0D0E0FFD0E0FED0E0FDAB822079
:10019400E7101BEB60BAEC2CFCEF33FFEE33FEED03
:1001A40033FD0202C9E803F830E705C0F075F0003A
:1001B400EF2FFFEE33FEED33FD40B830E7C280AAE7
:1001C40074F8CC6480CCC86480C8F58204604FC3E2
:1001D400EB9FF5F0EA9E42F0E99D42F0E89C45F081
:1001E400603C501DE5825FFFE582D313CB5BCBF40B
:1001F4002B5582FB50280ABA002409B90020088034
:100204001DE5825BFBE582D313CF5FCFF4C3132FCD
:100214005582FF50090EBE00050DBD00010CC3EB55
:100224009FF5F0EA9E42F0E99D42F0E89C45F060BB
:0902340007CC4820E701B3EC22DD
:10023D0075F020800E75F010800575F0087D007E3C
:10024D00007F003392D530D503120363EC33401099
:10025D00EF33FFEE33FEED33FDEC33FCD5F0ED2245
:0E026D00E5F0247EA2D513CC92E7CDCEFF2281
:10027B00EDD2E7CD33EC3392D524814006E4FFFE7B
:10028B00FDFC22FCE4CFCECDCC24E0501174FF80DA
:10029B00EDC3CC13CCCD13CDCE13CECF13CF047077
:0702AB00F030D5DE02036311
:1002B200E9D2E7C933E833F892D5EDD2E7CD33EC92
:0702C20033FC5002B2D5220B
:1002C900EC30E7100FBF000C0EBE00080DBD000496
:1002D9000BEB6014A2D5EB13FCED92E7FD2274FF42
:1002E900FCFDFEFF22E480F8A2D574FF13FC7D809B
:0302F900E480EFAF
:1007FE00020BBAE493A3F8E493A34003F68001F24C
:10080E0008DFF48029E493A3F85407240CC8C333FB
:10081E00C4540F4420C8834004F456800146F6DFCA
:10082E00E4800B010204081020408090087EE47ED4
:10083E00019360BCA3FF543F30E509541FFEE493BF
:10084E00A360010ECF54C025E060A840B8E493A386
:10085E00FAE493A3F8E493A3C8C582C8CAC583CAB1
:10086E00F0A3C8C582C8CAC583CADFE9DEE780BE69
:0108D4000023
:1002FC00EF8DF0A4A8F0CF8CF0A428CE8DF0A42E16
:02030C00FE22CF
:10030E00BC000BBE0029EF8DF084FFADF022E4CCD3
:10031E00F875F008EF2FFFEE33FEEC33FCEE9DEC9C
:10032E00984005FCEE9DFE0FD5F0E9E4CEFD22EDE2
:10033E00F8F5F0EE8420D21CFEADF075F008EF2F2C
:10034E00FFED33FD4007985006D5F0F222C398FD1D
:05035E000FD5F0EA22BA
:1009C000C2D5E830E70FB2D5E4C39BFBE49AFAE462
:1009D00099F9E498F8EC30E717B2D51209F612034A
:1009E000D2E4C39BFBE49AFAE499F9E498F8800313
:1009F0001203D230D50DE4C39FFFE49EFEE49DFDBB
:040A0000E49CFC2254
:0E036300C3E49FFFE49EFEE49DFDE49CFC22AB
:0C037100E6FC08E6FD08E6FE08E6FF22B8
:0D037D00E6FB08E6F908E6FA08E6CBF822F0
:0C038A00ECF608EDF608EEF608EFF6229F
:1003960075F008758200EF2FFFEE33FECD33CDCC1E
:1003A60033CCC58233C5829BED9AEC99E5829840A1
:1003B6000CF582EE9BFEED9AFDEC99FC0FD5F0D67E
:1003C600E4CEFBE4CDFAE4CCF9A88222B800C1B9A8
:1003D6000059BA002DEC8BF084CFCECDFCE5F0CBE6
:1003E600F97818EF2FFFEE33FEED33FDEC33FCEB1F
:1003F60033FB10D703994004EB99FB0FD8E5E4F9DA
:10040600FA227818EF2FFFEE33FEED33FDEC33FCC6
:10041600C933C910D7059BE99A4007EC9BFCE99ABA
:10042600F90FD8E0E4C9FAE4CCFB2275F010EF2FFF
:10043600FFEE33FEED33FDCC33CCC833C810D707FF
:100446009BEC9AE899400AED9BFDEC9AFCE899F83A
:0E0456000FD5F0DAE4CDFBE4CCFAE4C8F922CD
:00000001FF
