:0300000002057482
:0C057400787FE4F6D8FD75815E0205BBBF
:1006730008450A0A0A0A0A0A0A0A0833000000009F
:1006830000000000015C00013100083D0000000093
:0E06930000000000013200013B0002533C0A4F
:1004DE007851E660030205737851760112060078B2
:1004EE0050A607E6FF1866FE5FFF784DF67850E6D9
:1004FE00FDF45E785BF6784FA605EF24FB601524BD
:10050E00FD60481460282405705B783206E66403AB
:10051E007053F6227832E6FFB4010A783B06E664A1
:10052E00027042F622EF6402703B785AF62278325D
:10053E00E664017030783BE6700E7853740A26F646
:10054E00E664647020763222C202227832E6B4016A
:10055E0014783BE6700D7854740A26F6E6B432052C
:06056E00E4F622D2022295
:1002D400784EE66003020442784E76011207D47821
:1002E40055A607200115E6FFD37853965006EFC3B1
:1002F40008965018D201785A0680117855E6FFC343
:1003040018964008EFD318965002C2017F031208D2
:100314006BAC07E41201CEE4FBFA794C784212018B
:100324002778561202C8783BE66401704120022106
:1003340078561202BC120202EF75F00AA4783CF659
:10034400C3943240027628783CE624327953F7800D
:100354001D78561202BC120202EF75F00AA4783C12
:10036400F6C3943240027628783CE67854F6783224
:10037400E614606014700302041B24026003020488
:10038400427845760C7849760A18760A18760A185F
:10039400760A7855E6FF75F0648475F00A84784A25
:1003A400A6F0EF75F00A8475F00A8408A6F0785573
:1003B400E675F00A84784CA6F0785E7605785EE6F9
:1003C400FFC39407507874452FF8E67071760A7865
:1003D4005E0680E97845760D783BE6047946F77841
:1003E40047760A7854E6FF75F00A8475F00A847833
:1003F40048A6F0EF75F00A8408A6F008760B785347
:10040400E6FF75F00A8475F00A84784BA6F0EF7560
:10041400F00A8408A6F0227845760E784B760A18FE
:10042400760A18760A18760A18760A18760A785A16
:0F043400E6FFC3940A784C5003A60722760B22EA
:1006CF00E47831F6785CF67832E6FF70047E0180CC
:1006DF00027E00783DA606EFB401047F0180027F01
:1006EF0000783EA6077832E6B402047F0180027FCD
:1006FF0000783FA6072001047F018005A200E433A4
:06070F00FF7844A607225A
:10094E00538EBF53890F758B18758DFCC28FD28E47
:05095E00D2ABD2AF2274
:03001B0002044399
:10044300C0E0C0F0C083C082C0D075D000C000C07F
:1004530001C002C003C004C005C006C0077851062E
:10046300E6B414027600784E06E6B45A02760078B3
:100473005D06E6B464077600A200B39200785206E4
:10048300E6B4080276007852E6FF2445F8E6FD7CE0
:10049300007852E62433F8E6FB7A00120715785207
:1004A300E6FF243DF8E6FD7C00120799785CE6241C
:1004B300FF92031208B47831E624FF92031208D79F
:1004C300D007D006D005D004D003D002D001D0008D
:0B04D300D0D0D082D083D0F0D0E03237
:0609B9001208FA02094ECB
:0E0998001209B91204DE1202D41206CF80F545
:1008FA007580FFE5A0541F4480F5A053A01FE4F5BE
:0D090A0080E5A0541F44A0F5A053A0A0223A
:10060000E4FFC2C4D2C2D2B5D2B420B3027F042068
:10061000B2027F0520B1027F0620B0027F07D2C45C
:10062000C2C2D2B5D2B420B3027F0820B2027F0981
:1006300020B1027F0A20B0027F0BD2C4D2C2C2B561
:10064000D2B420B3027F0C20B2027F0D20B1027F12
:100650000E20B0027F0FD2C4D2C2D2B5C2B420B332
:10066000027F1020B2027F1120B1027F1220B0025F
:020670007F13F6
:010672002265
:1006A1000121000122FF0123000124FF0125000196
:0206B10026FF22
:10079900ED4C600F7401A807088002C333D8FC42EE
:1007A90021800E7401A807088002C333D8FCF452D3
:1007B90021E52165226013E521F4F580E5A0541FA8
:0A07C9004480F5A053A01F852122F3
:0107D3002203
:1008B40030030543234080035323BFE523652460AD
:1008C40011852380E5A0541F44A0F5A053A01F85E3
:0208D4002324DB
:0108D60022FF
:1008D70030030543251080035325EFE52565266082
:1008E70011852580E5A0541F44A0F5A053A01F85BE
:0208F7002526B4
:0108F90022DC
:1006B3000F08C0F9A4B0999282F88090FFBF888C8C
:0B06C300860817010204081020408088
:100715007580FFE5A0541F44E0F5A053A01F741792
:100725002FF8E6F580E5A0541F44C0F5A053A01F9F
:10073500EB4A600B74082DF8E6547FF5808007744A
:10074500082DF8E6F580E5A0541F44E0F5A053A078
:020755001F2261
:0609B20000007F21DFFEC2
:0109B800221C
:10097800E4FED2901209B2C2901209B20EBE08F279
:01098800224C
:1007D4005389F0E4F58AF58C120978D28C309103B0
:1007E400308DFAC28C208D1CAF8CEFFEAD8AEDFFEC
:1007F400AC06E41201C97B967A43798B783C1200EB
:080804001E020202C28D7F00FA
:01080C0022C9
:04093400D2A07F0AC4
:10093800000000000000000000000000000000AE01
:06094800071FEE70EB2218
:0F098900D2A1120934C2A17F0A120938C2A022DA
:0C09A600C2A1120934D2A17F0A02093854
:02083F00AD0703
:10084100E4FCC2A07F0A120938ED30E704D2A1808E
:1008510002C2A17F0A120938D2A0ED25E0FD7F0A6C
:090861001209380CBC08DBC2A02E
:01086A00226B
:10091700E4FC120934ED25E0FD30A103430501C2D3
:0C092700A07F0A1209380CBC08E8AF05DC
:0109330022A1
:10089000AB051209897FA012083F1208A2AF03120C
:0208A000083F0F
:1008A200120934A2A1E433FDC2A07F0A120938AFB3
:0108B2000540
:0108B3002222
:10000300C2A0EF24FF92A17F0A120938120934C259
:08001300A0D2A17F0A02093806
:02086B00AB07D9
:10086D001209897F901208971209897F9112083F0A
:10087D001208A2120917AD077F011200031209A673
:02088D00AF05B5
:01088F002246
:10096300AB071209897F9012083F1208A27F411238
:0509730008970209A62F
:100757008B278A2889291208901209897FA11208F4
:100767003F1208A2AF2B152BEF6024120917AB27F6
:100777000529E529AA287002052814F9EF12029C19
:10078700E52B6004E4FF80027F0112000380D5029D
:0207970009A6B1
:10080D008B2C8A2D892E120890AF301530EF601F7A
:10081D00AB2C052EE52EAA2D7002052D14F9120212
:10082D0083FF12083F1208A27FC812093880DA022E
:02083D0009A60A
:10001E00EC4D6011E8497017ED33EC3304600DE4DC
:10002E00FCFFFEFD22E933E8330470F802026E1283
:10003E00023958046009E4CC248150062850090284
:10004E000278284003020275C0E0EB4A7044B98082
:10005E0006D0E0FB020264EF4E701CBD8008EBFF81
:10006E00EAFEE9FD80EBE98DF0A4FEE5F002010762
:10007E00E9CDF9EAFEEBFFEF89F0A4FCE5F0CE89BD
:10008E00F0A42EFFE435F0CD89F0A42DFEE435F07A
:10009E008067EF4E7005BD80D780C3EF8BF0A4ACA8
:1000AE00F0EE8BF0A42CFCE435F0F8EF8AF0A42CE3
:1000BE00E5F038FCE433CB8DF0A42CFCE5F03BF8F6
:1000CE00EE8AF0A42CFCE5F038F8E433CF89F0A4E6
:1000DE002CFCE5F038CF3400CE89F0A42FFFE5F0EC
:1000EE003EFEE433C98DF0A42EFEE5F039CD8AF044
:1000FE00A42FFFE5F03EFEE43DFD33D0E0FB5007BC
:10010E000BBB000F020278EC2CFCEF33FFEE33FE3C
:06011E00ED33FD0202506A
:10012400020278EC5D046005E85904700302026E73
:10013400120239580460F6EC4860F2EC7004FDFEDB
:10014400FF22C860DB2481C85009C39860025006AE
:100154000202759850CAF582E9294B4A7005AB82B0
:1001640002026475F0007C1A7880C3EF9BEE9AED6E
:1001740099400DC3EF9BFFEE9AFEED99FDE842F026
:10018400DC23ACF0D0E0FFD0E0FED0E0FDAB822079
:10019400E7101BEB60BAEC2CFCEF33FFEE33FEED03
:1001A40033FD020250E803F830E705C0F075F000B3
:1001B400EF2FFFEE33FEED33FD40B830E7C280AAE7
:1001C40075F020800E75F010800575F0087D007EB6
:1001D400007F003392D530D5031202AEEC334010C9
:1001E400EF33FFEE33FEED33FDEC33FCD5F0ED22BF
:0E01F400E5F0247EA2D513CC92E7CDCEFF22FB
:10020200EDD2E7CD33EC3392D524814006E4FFFEF4
:10021200FDFC22FCE4CFCECDCC24E0501174FF8053
:10022200EDC3CC13CCCD13CDCE13CECF13CF0470F0
:07023200F030D5DE0202AE40
:10023900E9D2E7C933E833F892D5EDD2E7CD33EC0B
:0702490033FC5002B2D52284
:10025000EC30E7100FBF000C0EBE00080DBD00040F
:100260000BEB6014A2D5EB13FCED92E7FD2274FFBB
:10027000FCFDFEFF22E480F8A2D574FF13FC7D8014
:03028000E480EF28
:10058000020998E493A3F8E493A34003F68001F2F0
:1005900008DFF48029E493A3F85407240CC8C3337C
:1005A000C4540F4420C8834004F456800146F6DF4B
:1005B000E4800B0102040810204080900673E47E62
:1005C000019360BCA3FF543F30E509541FFEE49340
:1005D000A360010ECF54C025E060A840B8E493A307
:1005E000FAE493A3F8E493A3C8C582C8CAC583CA32
:1005F000F0A3C8C582C8CAC583CADFE9DEE780BEEA
:0106CE00002B
:10028300BB010689828A83E0225002E722BBFE0279
:09029300E32289828A83E49322AC
:10029C00BB010689828A83F0225002F722BBFE0141
:0202AC00F3223B
:0E02AE00C3E49FFFE49EFEE49DFDE49CFC2261
:0C02BC00E6FC08E6FD08E6FE08E6FF226E
:0C02C800ECF608EDF608EEF608EFF62262
:00000001FF
