:10048F0008350A0A0A0A0A0A0A0A082100000000A7
:10049F0000000000082900000000000000000431E7
:0404AF000000000049
:10056000E541701A75410112038D8F40E53F6540EA
:0F057000FF5540F53DE540F45FF54385403F22E0
:10040000E53E7048753E011205048F348E338D32FF
:100410008C311201F2EF75F00A8475F00A8485F0D0
:1004200035EF75F00A8485F036752201E4FFFE7D14
:10043000207C41AB34AA33A932A83112000E12013C
:0D044000F2EF75F00A8485F037853D3B2210
:0D061100752901752A01752B01752C012238
:03000B0002030DE0
:10030D00C0E0C0F0C083C082C0D075D000C000C0B6
:10031D0001C002C003C004C005C006C0070541E509
:10032D0041B40A03754100053EAF3E7E00BE010695
:10033D00BFF403753E000542E542B4080375420063
:10034D0074352542F8E6FD7C0074212542F8E6FB64
:10035D007A00AF4212044D74292542F8E6FD7C0067
:10036D00AF421204CBD007D006D005D004D003D0B5
:10037D0002D001D000D0D0D082D083D0F0D0E032E6
:1005EE00538E7F5389F0758A18758CFCC28DD28C10
:0505FE00D2A9D2AF22DA
:0600030012059D0205EE4E
:0E06030012000312056012040012061180F5A9
:0405BA007F057E003B
:1005BE00EF1FAA0670011E4A600BE4FDEDC3940CFA
:0505CE0050EE0D80F766
:0105D3002205
:02057F00A907CA
:10058100E4FBC294E91392941205BAD294E9C3131D
:0C059100F90BBB08ED7F057E000205BEE3
:1005D400E4FBC294ECC313FCD29430940343048030
:0905E4001205BA0BBB08EBAF04D1
:0105ED0022EB
:10053900C200D2947F0C7E001205BEC2947F507E09
:10054900001205BED2947F0A7E001205BEA29492C3
:06055900001205BAA20029
:01055F002279
:100504001205397FCC12057F7F4412057F1205390D
:100514007FCC12057F7FBE12057F1205D4A9071276
:1005240005D4EFAD01FCE41201B9E4FBFA7980785B
:040534004112011758
:0105380022A0
:10038D00E4FFC2C4D2C2D2B5D2B420B3027F0420DE
:10039D00B2027F0520B1027F0620B0027F07D2C4D2
:1003AD00C2C2D2B5D2B420B3027F0820B2027F09F7
:1003BD0020B1027F0A20B0027F0BD2C4D2C2C2B5D7
:1003CD00D2B420B3027F0C20B2027F0D20B1027F88
:1003DD000E20B0027F0FD2C4D2C2D2B5C2B420B3A8
:1003ED00027F1020B2027F1120B1027F1220B002D5
:0203FD007F136C
:0103FF0022DB
:1004CB00E4FE7BFFED4C600F7401A807088002C3AC
:1004DB0033D8FC4206800E7401A807088002C33390
:1004EB00D8FCF45206EE6B600FEEF4F580E5A054E9
:0804FB001F4480F5A053A01F6F
:0105030022D5
:1004B3000B08C0F9A4B0999282F88090FF08130149
:0704C3000204081020408034
:10044D007580FFE5A0541F44E0F5A053A01F741361
:10045D002FF8E6F580E5A0541F44C0F5A053A01F6A
:10046D00EB4A600B74082DF8E6547FF58080077415
:10047D00082DF8E6F580E5A0541F44E0F5A053A043
:02048D001F222C
:10059D007580FFE5A0541F4480F5A053A01FE4F51E
:0D05AD0080E5A0541F44A0F5A053A01F221C
:10000E00EC4D6011E8497017ED33EC3304600DE4EC
:10001E00FCFFFEFD22E933E8330470F802025E12A3
:10002E00022958046009E4CC2481500628500902A4
:10003E000268284003020265C0E0EB4A7044B980B2
:10004E0006D0E0FB020254EF4E701CBD8008EBFFA1
:10005E00EAFEE9FD80EBE98DF0A4FEE5F00200F783
:10006E00E9CDF9EAFEEBFFEF89F0A4FCE5F0CE89CD
:10007E00F0A42EFFE435F0CD89F0A42DFEE435F08A
:10008E008067EF4E7005BD80D780C3EF8BF0A4ACB8
:10009E00F0EE8BF0A42CFCE435F0F8EF8AF0A42CF3
:1000AE00E5F038FCE433CB8DF0A42CFCE5F03BF806
:1000BE00EE8AF0A42CFCE5F038F8E433CF89F0A4F6
:1000CE002CFCE5F038CF3400CE89F0A42FFFE5F0FC
:1000DE003EFEE433C98DF0A42EFEE5F039CD8AF054
:1000EE00A42FFFE5F03EFEE43DFD33D0E0FB5007CC
:1000FE000BBB000F020268EC2CFCEF33FFEE33FE5D
:06010E00ED33FD0202408A
:10011400020268EC5D046005E85904700302025EA3
:10012400120229580460F6EC4860F2EC7004FDFEFB
:10013400FF22C860DB2481C85009C39860025006BE
:100144000202659850CAF582E9294B4A7005AB82D0
:1001540002025475F0007C1A7880C3EF9BEE9AED8E
:1001640099400DC3EF9BFFEE9AFEED99FDE842F036
:10017400DC23ACF0D0E0FFD0E0FED0E0FDAB822089
:10018400E7101BEB60BAEC2CFCEF33FFEE33FEED13
:1001940033FD020240E803F830E705C0F075F000D3
:1001A400EF2FFFEE33FEED33FD40B830E7C280AAF7
:1001B40075F020800E75F010800575F0087D007EC6
:1001C400007F003392D530D503120273EC33401014
:1001D400EF33FFEE33FEED33FDEC33FCD5F0ED22CF
:0E01E400E5F0247EA2D513CC92E7CDCEFF220B
:1001F200EDD2E7CD33EC3392D524814006E4FFFE05
:10020200FDFC22FCE4CFCECDCC24E0501174FF8063
:10021200EDC3CC13CCCD13CDCE13CECF13CF047000
:07022200F030D5DE0202738B
:10022900E9D2E7C933E833F892D5EDD2E7CD33EC1B
:0702390033FC5002B2D52294
:10024000EC30E7100FBF000C0EBE00080DBD00041F
:100250000BEB6014A2D5EB13FCED92E7FD2274FFCB
:10026000FCFDFEFF22E480F8A2D574FF13FC7D8024
:03027000E480EF38
:0300000002028178
:0C028100787FE4F6D8FD7581430202C8C6
:0E027300C3E49FFFE49EFEE49DFDE49CFC229C
:10028D00020603E493A3F8E493A34003F68001F27E
:10029D0008DFF48029E493A3F85407240CC8C33372
:1002AD00C4540F4420C8834004F456800146F6DF41
:1002BD00E4800B010204081020408090048FE47E3E
:1002CD00019360BCA3FF543F30E509541FFEE49336
:1002DD00A360010ECF54C025E060A840B8E493A3FD
:1002ED00FAE493A3F8E493A3C8C582C8CAC583CA28
:1002FD00F0A3C8C582C8CAC583CADFE9DEE780BEE0
:0104CA000031
:00000001FF
