:03000000020B4FA1
:0C0B4F00787FE4F6D8FD75813D020B961E
:0D0F170054656D703A252E3266430D0A00B8
:100EAF0088000A0A0A0A0A0A0A0A0A0D0000000044
:060EBF000000000000002D
:100D8400781CE6703B781C7601120EC6781BA60709
:100D9400E6FF1866FE5FFF7817F6781BE6FDF45E43
:100DA400781EF6781AA605BF04167BFF7A0F79170A
:100DB40078091206598F288E278D268C2512074212
:010DC400220C
:100C64007819E6706C78197601120DC578091206A8
:100C7400727807740BF27809120659120283EF7521
:100C8400F00A8475F00A847803E5F0F2EF75F00A4F
:100C940084E5F0242C08F2E4FFFE7D207C417809F1
:100CA4001206651200261202837C007D0A1205F6E4
:100CB4007805EDF2E4FFFE7DC87C427809120665F2
:100CC4001200261202837C007D0A1205F67806EDD6
:020CD400F2220A
:100E2100781FE6FF60187808E6C3940A4010E4F6DC
:0F0E3100FEFDFB7A00790D1206B4E4781FF6225D
:03002300020CD6F6
:100CD600C0E0C0F0C083C082C0D075D000C000C0E4
:100CE60001C002C003C004C005C006C00730982C6E
:100CF6007818760178087600781FE606240DF8A69F
:100D060099C298781FE6D3940A401176007E007F38
:100D16000A7D007B007A00790D1206B4D007D00652
:100D2600D005D004D003D002D001D000D0D0D082DC
:070D3600D083D0F0D0E032C1
:100EF400538EBF53890F758B18758DFCC28FD28E9C
:050F0400D2ABD2AF22C8
:03001B00020BDBFA
:100BDB00C0E0C0F0C083C082C0D075D000C000C0E0
:100BEB0001C002C003C004C005C006C007781C06C4
:100BFB00E6B414027600781906E6B45A0276007849
:100C0B001D06E6B408027600781DE6FF2400F8E224
:100C1B00FED39414400EEE24D4FDE434FFFC7B0190
:100C2B007A00800E781DE6FF2400F8E2FD7C00E4DC
:100C3B00FBFA120D3D7818E6B40103780806D007CD
:100C4B00D006D005D004D003D002D001D000D0D034
:090C5B00D082D083D0F0D0E03249
:10000300120DC5E4FBFA79AA78421201CC60F11211
:080013000E5E120EF4020EDD78
:0E0F0900120003120D84120C64120E2180F5EA
:100E5E007580FFE5A0541F4480F5A053A01FE4F554
:0D0E6E0080E5A0541F44A0F5A053A01F2252
:100EC600E4FF20B3027F0420B2027F0520B1027F37
:060ED6000620B0027F07B8
:010EDC0022F3
:040E7B007F057E0071
:100E7F00EF1FAA0670011E4A600BE4FDEDC3940C30
:050E8F0050EE0D80F79C
:010E9400223B
:020E4000A90700
:100E4200E4FBC294E9139294120E7BD294E9C31389
:0C0E5200F90BBB08ED7F057E00020E7F4F
:100E9500E4FBC294ECC313FCD29430940343048066
:090EA500120E7B0BBB08EBAF043D
:010EAE002221
:100DFA00C200D2947F0C7E00120E7FC2947F507E76
:100E0A0000120E7FD2947F0A7E00120E7FA2949265
:060E1A0000120E7BA20095
:010E200022AF
:100DC500120DFA7FCC120E407F44120E40120DFA1E
:100DD5007FCC120E407FBE120E40120E95A907124F
:100DE5000E95EFAD01FCE412024AE4FBFA79807836
:040DF5004112012F77
:010DF90022D7
:0C0F2400C0F9A4B0999282F88090FFC63A
:100D3D007580FFE5A0541F44E0F5A053A01F74017A
:100D4D00A807088002C333D8FCF580E5A0541F44E2
:100D5D00C0F5A053A01F74242DF582740F3CF583AC
:100D6D00E493F580EB4A600353807FE5A0541F4464
:070D7D00E0F5A053A01F22C6
:100EDD00759850438E01538EFB75D7E675D6FF433B
:070EED008E10D2ACD2AF223F
:080F30008F993099FDC299224E
:10002600EC4D6011E8497017ED33EC3304600DE4D4
:10003600FCFFFEFD22E933E8330470F80202EF12FA
:1000460002BA58046009E4CC2481500628500902FB
:1000560002F92840030202F6C0E0EB4A7044B98078
:1000660006D0E0FB0202E5EF4E701CBD8008EBFFF8
:10007600EAFEE9FD80EBE98DF0A4FEE5F002010F52
:10008600E9CDF9EAFEEBFFEF89F0A4FCE5F0CE89B5
:10009600F0A42EFFE435F0CD89F0A42DFEE435F072
:1000A6008067EF4E7005BD80D780C3EF8BF0A4ACA0
:1000B600F0EE8BF0A42CFCE435F0F8EF8AF0A42CDB
:1000C600E5F038FCE433CB8DF0A42CFCE5F03BF8EE
:1000D600EE8AF0A42CFCE5F038F8E433CF89F0A4DE
:1000E6002CFCE5F038CF3400CE89F0A42FFFE5F0E4
:1000F6003EFEE433C98DF0A42EFEE5F039CD8AF03C
:10010600A42FFFE5F03EFEE43DFD33D0E0FB5007B3
:100116000BBB000F0202F9EC2CFCEF33FFEE33FEB3
:06012600ED33FD0202D1E1
:10012C000202F9EC5D046005E8590470030202EF69
:10013C001202BA580460F6EC4860F2EC7004FDFE52
:10014C00FF22C860DB2481C85009C39860025006A6
:10015C000202F69850CAF582E9294B4A7005AB8227
:10016C000202E575F0007C1A7880C3EF9BEE9AEDE5
:10017C0099400DC3EF9BFFEE9AFEED99FDE842F01E
:10018C00DC23ACF0D0E0FFD0E0FED0E0FDAB822071
:10019C00E7101BEB60BAEC2CFCEF33FFEE33FEEDFB
:1001AC0033FD0202D1E803F830E705C0F075F0002A
:1001BC00EF2FFFEE33FEED33FD40B830E7C280AADF
:1001CC0074F8CC6480CCC86480C8F58204604FC3DA
:1001DC00EB9FF5F0EA9E42F0E99D42F0E89C45F079
:1001EC00603C501DE5825FFFE582D313CB5BCBF403
:1001FC002B5582FB50280ABA002409B9002008802C
:10020C001DE5825BFBE582D313CF5FCFF4C3132FC5
:10021C005582FF50090EBE00050DBD00010CC3EB4D
:10022C009FF5F0EA9E42F0E99D42F0E89C45F060B3
:09023C0007CC4820E701B3EC22D5
:1002450075F020800E75F010800575F0087D007E34
:10025500007F003392D530D50312064BEC334010A6
:10026500EF33FFEE33FEED33FDEC33FCD5F0ED223D
:0E027500E5F0247EA2D513CC92E7CDCEFF2279
:10028300EDD2E7CD33EC3392D524814006E4FFFE73
:10029300FDFC22FCE4CFCECDCC24E0501174FF80D2
:1002A300EDC3CC13CCCD13CDCE13CECF13CF04706F
:0702B300F030D5DE02064B1E
:1006E000E5392425F8E605392278223007027825F5
:1006F000E475F00112067E02059E2000EB7F2ED2EB
:10070000008018EF540F2490D43440D4FF30040BF1
:10071000EF24BFB41A0050032461FFE53A600215CC
:100720003A053DE53D7002053C30070D7822E47541
:10073000F00112067EEF0205E4020F307403D207C7
:100740008003E4C207F5398B228A238924E4F53A31
:10075000F53CF53DE53A60077F2012071B80F575F3
:100760003BFFC201C200C202C203C205C206C208E8
:100770001206E9FF700D3007057F0012072CAF3D10
:10078000AE3C22B4255FC2D5C2041206E9FF24D0D4
:10079000B40A00501A75F00A783A30D50508B6FF49
:1007A0000106C6A426F620D5047002D20380D924FF
:1007B000CFB41A00EF5004C2E5D204020A19D201E4
:1007C00080C6D20080C0D20280BCD2D580BAD20509
:1007D00080B47F2012071B2002077401B53A004045
:1007E000F11206E0FF12071B020754D208D206805E
:1007F000951206E0FB1206E0FA1206E0F94A4B7089
:100800000679107A0B7BFF20022EE53A602A7E00E3
:100810008E827583001205B760060EEE653B70F0A0
:10082000C2D5EBC0E0EAC0E0E9C0E0EE120A79D040
:10083000E0F9D0E0FAD0E0FB12059EFF60AAEBC021
:10084000E0EAC0E0E9C0E012071BD0E02401F9D0E3
:10085000E03400FAD0E0FBE53B0460DCD53BD98016
:1008600087D20280A2120A5C60F7E53B7001041295
:100870000304A93B600DE53B600914F53B120B0333
:10088000EF60F3EA30E702F404C3995077EAF42505
:100890003B0430E701E404F53B800D120A5C60C1C3
:1008A000EA053B253B120304EA7838F630E701E419
:1008B000253B04D53B0420050114120A79E4C0E06D
:1008C000120B037838E6601320E70714F6120703CB
:1008D000802204F6D0E014C0E07F00120703E53B5D
:1008E00060071206FA153B800B3005031206FAD09A
:1008F000E0020754D0E00480C5120A5C60A0E53B2A
:10090000041203047838EAF6E53B2005026001048E
:050910002404120A7925
:1009150074FF04C0E0120B03120703E53B20050238
:1009250060031206FAD0E0B53BE87F4512070D7863
:1009350038E67F2B30E7047F2DF404C0E012071B57
:10094500D0E075F00A84C0F0120704D0E012070465
:10095500020754791080027908C206C2088008D2BD
:10096500D5790A8004790AC2D5E53B047002F53BC6
:10097500E4FAFDFEFF1206E0FC7B082001131206D7
:10098500E0FD7B1030000A1206E0FE1206E0FF7B58
:1009950020EC3382D592D55013C3E43000069FFF77
:1009A500E49EFEE42001039DFDE49CFCE4CBF8C23B
:1009B50001EC700CCFCECDCCE824F8F870F380179D
:1009C500C3EF33FFEE33FEED33FDEC33FCEB33FBCE
:1009D500994002FB0FD8E9EB300105F8D0E0C44897
:1009E500B201C0E00AEC4D4E4F78207B0070C2EAA0
:1009F500B53B0040BCC0E0120A7BD0F0D0E020013E
:100A050004C4C0E0C4B201C0F0120704D0F0D5F0B0
:100A1500EB02075412068E07F15309585807C24CCA
:100A250007BE42095C4F09644409644907D7430975
:100A35006A55089B4608F9450865470B305007C6B7
:100A45002D07CA2E07ED2B07CE2307EB200B192AFE
:100A5500078648000007E5E53BB4FF03753B061232
:100A650006E0FC1206E0FD1206E0FE1206E0FF7845
:100A750031020333790AA2D5200314300509B910D0
:100A8500020404B9080104A2D5200602500104207D
:100A950002689202B53A005034C0E07F2030031955
:100AA5007F30A20272067205500F120AD2C202C22C
:100AB50006C205C2087F30800F300503E9C0E01289
:100AC500071B300503D0E0F9D0E0B53ACC30051767
:100AD5007F30B9100C12071B7F583004077F7880D0
:100AE50003B9080312071B3002057F2D02071B7F80
:100AF500202008F87F2B2006F322920280CF7F006A
:100B0500B4070050052431F8E6FF22286E756C6C99
:100B15002900D2011206E03001F8C201783A30D539
:100B25000108F60207862D504349581206E02403B2
:100B3500B405004001E4900B2B9312070C743A1294
:0A0B4500070CD203753A04020958A8
:1002BA00E9D2E7C933E833F892D5EDD2E7CD33EC8A
:0702CA0033FC5002B2D52203
:1002D100EC30E7100FBF000C0EBE00080DBD00048E
:1002E1000BEB6014A2D5EB13FCED92E7FD2274FF3A
:1002F100FCFDFEFF22E480F8A2D574FF13FC7D8093
:03030100E480EFA6
:10030400F920E72824F950037907E4F42402FB18C0
:10031400DBFDE624FB5014E9600DE4F618E604F670
:0F032400B40A08E4F6D9F57401F60A22C2D5220C
:10033300ED33EC3392D5FA602AB4FF33EDC2E77B99
:10034300FF60067A037958E4227A03796120D504A1
:100353007A03795C224E614E002B494E46002D49AB
:100363004E4600E47A08F608DAFC7B00740722E8BC
:10037300C0E0ECC0E0EDC0E0EEC0E0EFC0E0EA7545
:10038300F010A4CAABF075F04DA42BFBE435F0FCE0
:10039300EA2410FAEB34C5FBEC34D9FCEDC2E7FFD9
:1003A30075F056A4F42411C5F0F434C58FF0A42AD3
:1003B300E5F03BE43CF620E71412055ED0E0FFD005
:1003C300E0FED0E0FDD0E0FC12012F8014F4041213
:1003D300055ED0E0FFD0E0FED0E0FDD0E0FC1200EF
:1003E30026D0E0F8E6FAEDD2E7CD33EC332482FBF6
:1003F300E4C3CF33CFCE33CECD33CD33DBF37B0763
:1004030075F00A846004F6081B0AE5F0F6088FF01D
:10041300740AA4FFACF08EF0740AA42CFEACF05066
:10042300010C8DF0740AA42CFDE435F0F608DBDE34
:0304330074072229
:100436000202EFE86480F8E933E83360110460F003
:10044600ED33EC337009E8FCE9FDEAFEEBFF22042C
:1004560060DED3EB9FEA9EE99DE8C2E78CF0C2F727
:1004660095F0400CE8CCF8E9CDF9EACEFAEBCFFBF3
:100476001202BA85D0F05804700320D5B3E8047090
:10048600075002B2D50202F992D5EC0460F7E4CC2B
:10049600C0E0C398F8603B94186008400DD0E0FBBC
:1004A6000202D1E4FBFAC9FC8028E830E406E4C97C
:1004B600FBE4CAFCE830E305E4C9CACBFCE8540710
:1004C6006010F8C3E913F9EA13FAEB13FBEC13FC1B
:1004D600D8F130F52FC3E49CFCEF9BFFEE9AFEEDBE
:1004E60099FDD0E0FBEF4E4D4C701222DB03020269
:1004F600F6EC2CFCEF33FFEE33FEED33FDED30E78B
:10050600EB0202D1EF2BFFEE3AFEED39FDD0E0FB18
:1005160050130BBB00030202F9ED13FDEE13FEEFC1
:0805260013FFEC13FC0202D1EB
:10052E003F8000004120000042C80000447A0000D5
:10053E00461C400047C35000497424004B18968057
:10054E004CBEBC205A0E1BCA6753C21C749DC5AE4E
:10055E00FB60065407601C232312058CEB54386095
:10056E0009120578120587120026ECF8EDF9EEFA5D
:10057E00EFCB22EB12058780F1543803241C900533
:10058E002EFE93FC0EEE93FD0EEE930ECE93FF22F7
:100B5B00020F09E493A3F8E493A34003F68001F298
:100B6B0008DFF48029E493A3F85407240CC8C3339B
:100B7B00C4540F4420C8834004F456800146F6DF6A
:100B8B00E4800B0102040810204080900EAFE47E3D
:100B9B00019360BCA3FF543F30E509541FFEE4935F
:100BAB00A360010ECF54C025E060A840B8E493A326
:100BBB00FAE493A3F8E493A3C8C582C8CAC583CA51
:100BCB00F0A3C8C582C8CAC583CADFE9DEE780BE09
:010EC500002C
:10059E00BB010689828A83E0225002E722BBFE025B
:0905AE00E32289828A83E493228E
:1005B700BB010CE58229F582E5833AF583E02250F9
:1005C70006E92582F8E622BBFE06E92582F8E22243
:0D05D700E58229F582E5833AF583E493225D
:1005E400BB010689828A83F0225002F722BBFE01F6
:0205F400F322F0
:1005F600BC000BBE0029EF8DF084FFADF022E4CCE9
:10060600F875F008EF2FFFEE33FEEC33FCEE9DECB1
:10061600984005FCEE9DFE0FD5F0E9E4CEFD22EDF7
:10062600F8F5F0EE8420D21CFEADF075F008EF2F41
:10063600FFED33FD4007985006D5F0F222C398FD32
:050646000FD5F0EA22CF
:0E064B00C3E49FFFE49EFEE49DFDE49CFC22C0
:0C065900E6FC08E6FD08E6FE08E6FF22CD
:0D066500E6FB08E6F908E6FA08E6CBF82205
:0C067200ECF608EDF608EEF608EFF622B4
:10067E00FAE6FB0808E6F925F0F618E6CA3AF6227D
:10068E00D083D082F8E4937012740193700DA3A3FB
:10069E0093F8740193F5828883E47374029368600F
:0606AE00EFA3A3A380DF0F
:1006B400EF4E6012EF60010EEDBB010B89828A835D
:1006C400F0A3DFFCDEFA2289F05007F709DFFCA96A
:0C06D400F022BBFEFCF309DFFCA9F022C1
:00000001FF
