:0300000002001EDD
:0C001E00787FE4F6D8FD758117020065BC
:0D025F0008080A0A0A0A0A0A0A0A0116001B
:10021B007814E670217814760112012A7813EFF620
:10022B00E6FE18665E7810F67812A607600878105E
:07023B00E624FD7916F7220D
:1001E4007811E67031781176017808760B7816E686
:1001F400FFC3940A5008780E760A08A607227816D8
:10020400E6FF75F00A8475F00A84780EA6F0EF759F
:07021400F00A8408A6F022A5
:10000300538EBF53890F758B18758DFCC28FD28E9B
:05001300D2ABD2AF22C8
:03001B000200AA36
:1000AA00C0E0C0F0C083C082C0D075D000C000C01C
:1000BA0001C002C003C004C005C006C00778140608
:1000CA00E6B414027600781106E6B4640276007883
:1000DA001506E6B4080276007815E6FF2408F8E665
:1000EA00FED39414400EEE24D4FDE434FFFC7B01CD
:1000FA007A00800E7815E6FF2408F8E6FD7C00E415
:10010A00FBFA12019DD007D006D005D004D003D047
:10011A0002D001D000D0D0D082D083D0F0D0E0324B
:0602840012024202000319
:0B02790012028412021B1201E480F844
:100242007580FFE5A0541F4480F5A053A01FE4F57C
:0D02520080E5A0541F44A0F5A053A01F227A
:10012A00E4FFC2C4D2C2D2B5D2B420B3027F042043
:10013A00B2027F0520B1027F0620B0027F07D2C437
:10014A00C2C2D2B5D2B420B3027F0820B2027F095C
:10015A0020B1027F0A20B0027F0BD2C4D2C2C2B53C
:10016A00D2B420B3027F0C20B2027F0D20B1027FED
:10017A000E20B0027F0FD2C4D2C2D2B5C2B420B30D
:10018A00027F1020B2027F1120B1027F1220B0023A
:02019A007F13D1
:01019C002240
:0C026D00C0F9A4B0999282F88090FFC8FC
:10019D007580FFE5A0541F44E0F5A053A01F740126
:1001AD00A807088002C333D8FCF580E5A0541F448E
:1001BD00C0F5A053A01F746D2DF58274023CF5831C
:1001CD00E493F580EB4A600353807FE5A0541F4410
:0701DD00E0F5A053A01F2272
:10002A00020279E493A3F8E493A34003F68001F271
:10003A0008DFF48029E493A3F85407240CC8C333D7
:10004A00C4540F4420C8834004F456800146F6DFA6
:10005A00E4800B010204081020408090025FE47ED5
:10006A00019360BCA3FF543F30E509541FFEE4939B
:10007A00A360010ECF54C025E060A840B8E493A362
:10008A00FAE493A3F8E493A3C8C582C8CAC583CA8D
:10009A00F0A3C8C582C8CAC583CADFE9DEE780BE45
:01026C000091
:00000001FF
