:03000000020549AD
:0C054900787FE4F6D8FD75815002059023
:1005D500083A0A0A0A0A0A0A0A0A08290000000053
:1005E50000000000014E0001270008320000000055
:0C05F50000000000012800013100C101DD
:10062C007846E6704F784676011206D57845A607CF
:10063C00E6FF1866FE5FFF7842F67845E6FDF45E4D
:10064C00784DF67844A605EF24FB601224FD601C5F
:10065C0024047020782806E6B40219E4F622E47823
:10066C004AF6783106E6B4020BE4F6227831E6B4A9
:05067C000102D2012281
:100326007843E6600302046D784376017831E6701F
:100336001BD37849E694E818E6940340091207AC03
:10034600784AA6078012E4784AF6800C3001091232
:1003560007AC784AA607C201783A760B7828E6FFFA
:1003660004783BF6EF14700302042F0460030204C2
:100376006DE4782EF67848E6FE08E6FFE4FCFD7BA1
:10038600A07A867901F8120726E47B0AFAF9F812B0
:100396000726AF03783CA6077848E6FA08E6FB7C12
:1003A600277D10FFAE021201F57C007D0A1201F5D1
:1003B600783DA6057C037DE8AF03AE021201F57C0D
:1003C600007D0A1201F5783EA6057848E6FA08E6A9
:1003D600FB7C007D64FFAE021201F57C007D0A12F3
:1003E60001F5783FA6057C007D0AAF03AE02120137
:1003F600F57C007D0A1201F57840A6057848E6FEF0
:1004060008E6FF7C007D0A1201F57841A6057850C2
:1004160076027850E6FFC39407504C743A2FF8E6FC
:100426007045760A78500680E9783E760A18760A8C
:1004360018760A784AE6FF75F0648475F00A8478BF
:100446003FA6F0EF7003FF80027F01782EA60778A3
:100456004AE6FF75F00A8475F00A847840A6F0EF44
:0804660075F00A8408A6F022DB
:10068100E4784EF67828E6FF70047E0180027E0051
:100691007832A606EFB401047F0180027F0078332F
:1006A100A6077831E670047F0180027F007834A6C6
:1006B10007784AE6D3944140047F0180027F0078A5
:1006C10027EFF6BF0107A200E433FF80027F007825
:0406D10039A607221D
:10088600538E7F5389F0438905E4F58AF58CC28D32
:03089600D28C22DF
:10000300538EBF53890F758B18758DFCC28FD28E9B
:05001300D2ABD2AF22C8
:03001B0002046E6E
:10046E00C0E0C0F0C083C082C0D075D000C000C054
:10047E0001C002C003C004C005C006C0077846060E
:10048E00E6B414027600784306E6B45A0276007893
:10049E004706E6B4080276007847E6FF243AF8E607
:1004AE00FD7C007847E62429F8E6FB7A0012076AFD
:1004BE007847E6FF2432F8E6FD7C001207E8784E16
:1004CE00E624FF92021208237827E624FF920212F6
:1004DE000846784B0806E618700106860664644ED8
:1004EE00702A784BF608F6AF8CEFAD8A7848F6EDA9
:1004FE0008F618E6FE08E6FF7C007D0A1201E37896
:10050E0048A60608A607758A00758C007827E6B4FB
:10051E00010E784F06E6B464077600A200B392008F
:10052E00D007D006D005D004D003D002D001D00021
:0B053E00D0D0D082D083D0F0D0E032CB
:0908B8001208691208860200030F
:0E08AA001208B812062C12032612068180F5E1
:100869007580FFE5A0541F4480F5A053A01FE4F54F
:0D08790080E5A0541F44A0F5A053A0A022CC
:1006D500E4FFC2C4D2C2D2B520B3027F0420B20265
:1006E5007F0520B1027F0620B0027F07D2C4C2C2B7
:1006F500D2B520B3027F0820B2027F0920B1027F64
:100705000A20B0027F0BD2C4D2C2C2B520B3027F89
:100715000C20B2027F0D20B1027F0E20B0027F0FA8
:0107250022B1
:100601000121000122FF0123000124FF0125000136
:0206110026FFC2
:1007E800ED4C600F7401A807088002C333D8FC429F
:1007F80021800E7401A807088002C333D8FCF45284
:1008080021E52165226013E521F4F580E5A0541F58
:0A0818004480F5A053A01F852122A3
:0108220022B3
:1008230030020543234080035323BFE5236524603F
:1008330011852380E5A0541F44A0F5A053A01F8574
:0208430023246C
:010845002290
:1008460030020543251080035325EFE52565266014
:1008560011852580E5A0541F44A0F5A053A01F854F
:02086600252645
:01086800226D
:100613000C08C0F9A4B0999282F88090FFC1081425
:080623000102040810204080D0
:10076A007580FFE5A0541F44E0F5A053A01F741440
:10077A002FF8E6F580E5A0541F44C0F5A053A01F4A
:10078A00EB4A600B74082DF8E6547FF580800774F5
:10079A00082DF8E6F580E5A0541F44E0F5A053A023
:0207AA001F220C
:0608C10000007F21DFFEB4
:0108C700220E
:10089900E4FED2901208C1C2901208C10EBE08F23D
:0108A900222C
:1007AC00E4F5D9F5E9F5F9C2AF120899D2AFD2DE6A
:1007BC0030910330DFFAC2DE20DF1CAFF9EFFEAD63
:1007CC00E9EDFFAC06E41201297B967A43798B782C
:0B07DC003C12001E020162C2DF7F0021
:0107E70022EF
:10001E00EC4D6011E8497017ED33EC3304600DE4DC
:10002E00FCFFFEFD22E933E8330470F80201CE1224
:10003E00019958046009E4CC248150062850090225
:10004E0001D82840030201D5C0E0EB4A7044B980C4
:10005E0006D0E0FB0201C4EF4E701CBD8008EBFF22
:10006E00EAFEE9FD80EBE98DF0A4FEE5F002010762
:10007E00E9CDF9EAFEEBFFEF89F0A4FCE5F0CE89BD
:10008E00F0A42EFFE435F0CD89F0A42DFEE435F07A
:10009E008067EF4E7005BD80D780C3EF8BF0A4ACA8
:1000AE00F0EE8BF0A42CFCE435F0F8EF8AF0A42CE3
:1000BE00E5F038FCE433CB8DF0A42CFCE5F03BF8F6
:1000CE00EE8AF0A42CFCE5F038F8E433CF89F0A4E6
:1000DE002CFCE5F038CF3400CE89F0A42FFFE5F0EC
:1000EE003EFEE433C98DF0A42EFEE5F039CD8AF044
:1000FE00A42FFFE5F03EFEE43DFD33D0E0FB5007BC
:10010E000BBB000F0201D8EC2CFCEF33FFEE33FEDD
:06011E00ED33FD0201B00B
:1001240075F020800E75F010800575F0087D007E56
:10013400007F003392D530D50312024AEC334010CD
:10014400EF33FFEE33FEED33FDEC33FCD5F0ED225F
:0E015400E5F0247EA2D513CC92E7CDCEFF229B
:10016200EDD2E7CD33EC3392D524814006E4FFFE95
:10017200FDFC22FCE4CFCECDCC24E0501174FF80F4
:10018200EDC3CC13CCCD13CDCE13CECF13CF047091
:07019200F030D5DE02024A45
:10019900E9D2E7C933E833F892D5EDD2E7CD33ECAC
:0701A90033FC5002B2D52225
:1001B000EC30E7100FBF000C0EBE00080DBD0004B0
:1001C0000BEB6014A2D5EB13FCED92E7FD2274FF5C
:1001D000FCFDFEFF22E480F8A2D574FF13FC7D80B5
:0301E000E480EFC9
:100555000208AAE493A3F8E493A34003F68001F20A
:1005650008DFF48029E493A3F85407240CC8C333A7
:10057500C4540F4420C8834004F456800146F6DF76
:10058500E4800B01020408102040809005D5E47E2C
:10059500019360BCA3FF543F30E509541FFEE4936B
:1005A500A360010ECF54C025E060A840B8E493A332
:1005B500FAE493A3F8E493A3C8C582C8CAC583CA5D
:1005C500F0A3C8C582C8CAC583CADFE9DEE780BE15
:01062B0000CE
:1001E300EF8DF0A4A8F0CF8CF0A428CE8DF0A42E30
:0201F300FE22EA
:1001F500BC000BBE0029EF8DF084FFADF022E4CCEE
:10020500F875F008EF2FFFEE33FEEC33FCEE9DECB6
:10021500984005FCEE9DFE0FD5F0E9E4CEFD22EDFC
:10022500F8F5F0EE8420D21CFEADF075F008EF2F46
:10023500FFED33FD4007985006D5F0F222C398FD37
:050245000FD5F0EA22D4
:10072600C2D5E830E70FB2D5E4C39BFBE49AFAE4FE
:1007360099F9E498F8EC30E717B2D512075C120283
:1007460094E4C39BFBE49AFAE499F9E498F88003ED
:1007560012029430D50DE4C39FFFE49EFEE49DFD96
:04076600E49CFC22F1
:0E024A00C3E49FFFE49EFEE49DFDE49CFC22C5
:1002580075F008758200EF2FFFEE33FECD33CDCC5D
:1002680033CCC58233C5829BED9AEC99E5829840E0
:100278000CF582EE9BFEED9AFDEC99FC0FD5F0D6BD
:10028800E4CEFBE4CDFAE4CCF9A88222B800C1B9E7
:100298000059BA002DEC8BF084CFCECDFCE5F0CB25
:1002A800F97818EF2FFFEE33FEED33FDEC33FCEB5E
:1002B80033FB10D703994004EB99FB0FD8E5E4F919
:1002C800FA227818EF2FFFEE33FEED33FDEC33FC06
:1002D800C933C910D7059BE99A4007EC9BFCE99AFA
:1002E800F90FD8E0E4C9FAE4CCFB2275F010EF2F3F
:1002F800FFEE33FEED33FDCC33CCC833C810D7073F
:100308009BEC9AE899400AED9BFDEC9AFCE899F879
:0E0318000FD5F0DAE4CDFBE4CCFAE4C8F9220C
:00000001FF
